{
  "contractName": "notas",
  "abi": [
    {
      "inputs": [],
      "stateMutability": "nonpayable",
      "type": "constructor"
    },
    {
      "anonymous": false,
      "inputs": [
        {
          "indexed": false,
          "internalType": "bytes32",
          "name": "",
          "type": "bytes32"
        }
      ],
      "name": "alumno_evaluado",
      "type": "event"
    },
    {
      "anonymous": false,
      "inputs": [
        {
          "indexed": false,
          "internalType": "string",
          "name": "",
          "type": "string"
        }
      ],
      "name": "evento_revision",
      "type": "event"
    },
    {
      "inputs": [
        {
          "internalType": "bytes32",
          "name": "",
          "type": "bytes32"
        }
      ],
      "name": "Notas",
      "outputs": [
        {
          "internalType": "uint256",
          "name": "",
          "type": "uint256"
        }
      ],
      "stateMutability": "view",
      "type": "function"
    },
    {
      "inputs": [],
      "name": "profesor",
      "outputs": [
        {
          "internalType": "address",
          "name": "",
          "type": "address"
        }
      ],
      "stateMutability": "view",
      "type": "function"
    },
    {
      "inputs": [
        {
          "internalType": "string",
          "name": "_asignatura",
          "type": "string"
        },
        {
          "internalType": "string",
          "name": "_idAlumno",
          "type": "string"
        },
        {
          "internalType": "uint256",
          "name": "_nota",
          "type": "uint256"
        }
      ],
      "name": "Evaluar",
      "outputs": [],
      "stateMutability": "nonpayable",
      "type": "function"
    },
    {
      "inputs": [
        {
          "internalType": "string",
          "name": "_asignatura",
          "type": "string"
        },
        {
          "internalType": "string",
          "name": "_idAlumno",
          "type": "string"
        }
      ],
      "name": "verNotas",
      "outputs": [
        {
          "internalType": "uint256",
          "name": "",
          "type": "uint256"
        }
      ],
      "stateMutability": "view",
      "type": "function"
    },
    {
      "inputs": [
        {
          "internalType": "string",
          "name": "_asignatura",
          "type": "string"
        },
        {
          "internalType": "string",
          "name": "_idAlumno",
          "type": "string"
        }
      ],
      "name": "Revision",
      "outputs": [],
      "stateMutability": "nonpayable",
      "type": "function"
    },
    {
      "inputs": [
        {
          "internalType": "string",
          "name": "_asignatura",
          "type": "string"
        }
      ],
      "name": "VerRevisiones",
      "outputs": [
        {
          "internalType": "string[]",
          "name": "",
          "type": "string[]"
        }
      ],
      "stateMutability": "view",
      "type": "function"
    }
  ],
  "bytecode": "0x60806040526040518060400160405280600481526020017f4a6f616e000000000000000000000000000000000000000000000000000000008152506001908051906020019062000051929190620000a6565b503480156200005f57600080fd5b50336000806101000a81548173ffffffffffffffffffffffffffffffffffffffff021916908373ffffffffffffffffffffffffffffffffffffffff160217905550620001bb565b828054620000b49062000185565b90600052602060002090601f016020900481019282620000d8576000855562000124565b82601f10620000f357805160ff191683800117855562000124565b8280016001018555821562000124579182015b828111156200012357825182559160200191906001019062000106565b5b50905062000133919062000137565b5090565b5b808211156200015257600081600090555060010162000138565b5090565b7f4e487b7100000000000000000000000000000000000000000000000000000000600052602260045260246000fd5b600060028204905060018216806200019e57607f821691505b60208210811415620001b557620001b462000156565b5b50919050565b610d8780620001cb6000396000f3fe608060405234801561001057600080fd5b50600436106100625760003560e01c80633036222414610067578063315944c514610097578063593cbcf0146100c7578063df096576146100e3578063df3bba9f14610101578063e0b8c3021461011d575b600080fd5b610081600480360381019061007c91906106fb565b61014d565b60405161008e919061088e565b60405180910390f35b6100b160048036038101906100ac91906108e6565b6102d2565b6040516100be919061092c565b60405180910390f35b6100e160048036038101906100dc9190610973565b6102ea565b005b6100eb6103fc565b6040516100f89190610a3f565b60405180910390f35b61011b60048036038101906101169190610a5a565b610420565b005b61013760048036038101906101329190610a5a565b6104b3565b604051610144919061092c565b60405180910390f35b606060008054906101000a900473ffffffffffffffffffffffffffffffffffffffff1673ffffffffffffffffffffffffffffffffffffffff163373ffffffffffffffffffffffffffffffffffffffff16146101dd576040517f08c379a00000000000000000000000000000000000000000000000000000000081526004016101d490610b2f565b60405180910390fd5b6003826040516101ed9190610b8b565b9081526020016040518091039020805480602002602001604051908101604052809291908181526020016000905b828210156102c757838290600052602060002001805461023a90610bd1565b80601f016020809104026020016040519081016040528092919081815260200182805461026690610bd1565b80156102b35780601f10610288576101008083540402835291602001916102b3565b820191906000526020600020905b81548152906001019060200180831161029657829003601f168201915b50505050508152602001906001019061021b565b505050509050919050565b60026020528060005260406000206000915090505481565b3360008054906101000a900473ffffffffffffffffffffffffffffffffffffffff1673ffffffffffffffffffffffffffffffffffffffff168173ffffffffffffffffffffffffffffffffffffffff1614610379576040517f08c379a000000000000000000000000000000000000000000000000000000000815260040161037090610c75565b60405180910390fd5b6000848460405160200161038e929190610cce565b6040516020818303038152906040528051906020012090508260026000838152602001908152602001600020819055507f9129eeeb684507aca017f10030b70e5bf86d129f417fcc5840348a957eb12cee816040516103ed9190610d14565b60405180910390a15050505050565b60008054906101000a900473ffffffffffffffffffffffffffffffffffffffff1681565b6003826040516104309190610b8b565b9081526020016040518091039020819080600181540180825580915050600190039060005260206000200160009091909190915090805190602001906104779291906104fe565b507fafd73f39162aa4c0421f362f3a3d26f44b23c73253256cfc1c68794b0973e0a0816040516104a79190610d2f565b60405180910390a15050565b60008083836040516020016104c9929190610cce565b604051602081830303815290604052805190602001209050600260008281526020019081526020016000205491505092915050565b82805461050a90610bd1565b90600052602060002090601f01602090048101928261052c5760008555610573565b82601f1061054557805160ff1916838001178555610573565b82800160010185558215610573579182015b82811115610572578251825591602001919060010190610557565b5b5090506105809190610584565b5090565b5b8082111561059d576000816000905550600101610585565b5090565b6000604051905090565b600080fd5b600080fd5b600080fd5b600080fd5b6000601f19601f8301169050919050565b7f4e487b7100000000000000000000000000000000000000000000000000000000600052604160045260246000fd5b610608826105bf565b810181811067ffffffffffffffff82111715610627576106266105d0565b5b80604052505050565b600061063a6105a1565b905061064682826105ff565b919050565b600067ffffffffffffffff821115610666576106656105d0565b5b61066f826105bf565b9050602081019050919050565b82818337600083830152505050565b600061069e6106998461064b565b610630565b9050828152602081018484840111156106ba576106b96105ba565b5b6106c584828561067c565b509392505050565b600082601f8301126106e2576106e16105b5565b5b81356106f284826020860161068b565b91505092915050565b600060208284031215610711576107106105ab565b5b600082013567ffffffffffffffff81111561072f5761072e6105b0565b5b61073b848285016106cd565b91505092915050565b600081519050919050565b600082825260208201905092915050565b6000819050602082019050919050565b600081519050919050565b600082825260208201905092915050565b60005b838110156107aa57808201518184015260208101905061078f565b838111156107b9576000848401525b50505050565b60006107ca82610770565b6107d4818561077b565b93506107e481856020860161078c565b6107ed816105bf565b840191505092915050565b600061080483836107bf565b905092915050565b6000602082019050919050565b600061082482610744565b61082e818561074f565b93508360208202850161084085610760565b8060005b8581101561087c578484038952815161085d85826107f8565b94506108688361080c565b925060208a01995050600181019050610844565b50829750879550505050505092915050565b600060208201905081810360008301526108a88184610819565b905092915050565b6000819050919050565b6108c3816108b0565b81146108ce57600080fd5b50565b6000813590506108e0816108ba565b92915050565b6000602082840312156108fc576108fb6105ab565b5b600061090a848285016108d1565b91505092915050565b6000819050919050565b61092681610913565b82525050565b6000602082019050610941600083018461091d565b92915050565b61095081610913565b811461095b57600080fd5b50565b60008135905061096d81610947565b92915050565b60008060006060848603121561098c5761098b6105ab565b5b600084013567ffffffffffffffff8111156109aa576109a96105b0565b5b6109b6868287016106cd565b935050602084013567ffffffffffffffff8111156109d7576109d66105b0565b5b6109e3868287016106cd565b92505060406109f48682870161095e565b9150509250925092565b600073ffffffffffffffffffffffffffffffffffffffff82169050919050565b6000610a29826109fe565b9050919050565b610a3981610a1e565b82525050565b6000602082019050610a546000830184610a30565b92915050565b60008060408385031215610a7157610a706105ab565b5b600083013567ffffffffffffffff811115610a8f57610a8e6105b0565b5b610a9b858286016106cd565b925050602083013567ffffffffffffffff811115610abc57610abb6105b0565b5b610ac8858286016106cd565b9150509250929050565b600082825260208201905092915050565b7f4f6e6c79206f6e77657200000000000000000000000000000000000000000000600082015250565b6000610b19600a83610ad2565b9150610b2482610ae3565b602082019050919050565b60006020820190508181036000830152610b4881610b0c565b9050919050565b600081905092915050565b6000610b6582610770565b610b6f8185610b4f565b9350610b7f81856020860161078c565b80840191505092915050565b6000610b978284610b5a565b915081905092915050565b7f4e487b7100000000000000000000000000000000000000000000000000000000600052602260045260246000fd5b60006002820490506001821680610be957607f821691505b60208210811415610bfd57610bfc610ba2565b5b50919050565b7f4e6f207469656e65207065726d69736f73207061726120656a6563757461722060008201527f657374612066756e63696f6e0000000000000000000000000000000000000000602082015250565b6000610c5f602c83610ad2565b9150610c6a82610c03565b604082019050919050565b60006020820190508181036000830152610c8e81610c52565b9050919050565b6000610ca082610770565b610caa8185610ad2565b9350610cba81856020860161078c565b610cc3816105bf565b840191505092915050565b60006040820190508181036000830152610ce88185610c95565b90508181036020830152610cfc8184610c95565b90509392505050565b610d0e816108b0565b82525050565b6000602082019050610d296000830184610d05565b92915050565b60006020820190508181036000830152610d498184610c95565b90509291505056fea2646970667358221220db0a490e527beadc63510430eb1ac886c11eedb6153f62cd203a1ba7c4cc5dd564736f6c63430008090033",
  "immutableReferences": {},
  "source": "// SPDX-License-Identifier: GPL-3.0\n\npragma solidity >=0.7.0 <0.9.0;\n\n// --------------------------\n//ALUMON | ID      | Nota\n//Marcos | 3123123 | 5\n//Juan   | 3242345 | 4\n\n\ncontract notas{\n\n    //Direccion del profesor\n    address public profesor;\n    string my_string=\"Joan\";\n\n    //Mapping para relacionar el hash de la indentidad del alumno con su nota del examen\n    mapping(bytes32 => uint) public Notas;\n    \n\n    mapping(string => string[]) revisiones;\n    \n    //eventos alumon evaluado\n    event alumno_evaluado(bytes32);\n    event evento_revision(string);\n\n    modifier onlyOnwer() {\n        require(msg.sender == profesor,\"Only onwer\");\n        _;\n    }\n\n    modifier unicamenteProfesor(address _direccion) {\n        require(_direccion == profesor, \"No tiene permisos para ejecutar esta funcion\");\n        _;\n    }\n\n\n    constructor() {\n        profesor = msg.sender;\n    }\n\n    function Evaluar(string memory _asignatura,  string memory _idAlumno, uint  _nota) public unicamenteProfesor(msg.sender) {\n       // Hash de la identificacion del alumno\n       bytes32 hash_idAlumno = keccak256(abi.encode(_asignatura, _idAlumno));\n\n       //Relacion entre el hash de la identificacion del alumno y su nota\n       Notas[hash_idAlumno] = _nota;\n       emit alumno_evaluado(hash_idAlumno);\n    }\n\n    function verNotas(string memory _asignatura, string memory _idAlumno) external  view returns(uint) {\n        bytes32 hash_idAlumno = keccak256(abi.encode(_asignatura, _idAlumno));\n        return Notas[hash_idAlumno];\n    }\n\n    // Function para pedir una revision del examen\n    function Revision(string memory _asignatura, string memory _idAlumno) public {\n      //Almacenamiento de la identidad del alumno en un array \n      revisiones[_asignatura].push(_idAlumno);\n      //revisiones.push(_idAlumno);\n      // Emision del evento \n      emit evento_revision(_idAlumno);\n    }\n\n    //Function para ver los alumnos que han solicitado revision de examen \n    function VerRevisiones(string memory _asignatura) public view onlyOnwer returns (string[] memory){\n       return revisiones[_asignatura];\n    }\n\n\n}",
  "sourcePath": "/home/manuonda/projects/blockchain/truffle/project1/contracts/notas.sol",
  "compiler": {
    "name": "solc",
    "version": "0.8.9+commit.e5eed63a.Emscripten.clang"
  },
  "schemaVersion": "3.4.3",
  "updatedAt": "2022-01-11T03:03:51.381Z",
  "devdoc": {
    "kind": "dev",
    "methods": {},
    "version": 1
  },
  "userdoc": {
    "kind": "user",
    "methods": {},
    "version": 1
  }
}