{
  "contractName": "notas",
  "abi": [
    {
      "inputs": [],
      "stateMutability": "nonpayable",
      "type": "constructor"
    },
    {
      "anonymous": false,
      "inputs": [
        {
          "indexed": false,
          "internalType": "bytes32",
          "name": "",
          "type": "bytes32"
        }
      ],
      "name": "alumno_evaluado",
      "type": "event"
    },
    {
      "anonymous": false,
      "inputs": [
        {
          "indexed": false,
          "internalType": "string",
          "name": "",
          "type": "string"
        }
      ],
      "name": "evento_revision",
      "type": "event"
    },
    {
      "inputs": [
        {
          "internalType": "bytes32",
          "name": "",
          "type": "bytes32"
        }
      ],
      "name": "notas",
      "outputs": [
        {
          "internalType": "uint256",
          "name": "",
          "type": "uint256"
        }
      ],
      "stateMutability": "view",
      "type": "function",
      "constant": true
    },
    {
      "inputs": [],
      "name": "profesor",
      "outputs": [
        {
          "internalType": "address",
          "name": "",
          "type": "address"
        }
      ],
      "stateMutability": "view",
      "type": "function",
      "constant": true
    },
    {
      "inputs": [
        {
          "internalType": "string",
          "name": "_idAlumno",
          "type": "string"
        },
        {
          "internalType": "uint256",
          "name": "_nota",
          "type": "uint256"
        }
      ],
      "name": "Evaluar",
      "outputs": [],
      "stateMutability": "nonpayable",
      "type": "function"
    },
    {
      "inputs": [
        {
          "internalType": "string",
          "name": "_idAlumno",
          "type": "string"
        }
      ],
      "name": "verNotas",
      "outputs": [
        {
          "internalType": "uint256",
          "name": "",
          "type": "uint256"
        }
      ],
      "stateMutability": "view",
      "type": "function",
      "constant": true
    },
    {
      "inputs": [
        {
          "internalType": "string",
          "name": "_idAlumno",
          "type": "string"
        }
      ],
      "name": "Revision",
      "outputs": [],
      "stateMutability": "nonpayable",
      "type": "function"
    },
    {
      "inputs": [],
      "name": "VerRevisiones",
      "outputs": [
        {
          "internalType": "string[]",
          "name": "",
          "type": "string[]"
        }
      ],
      "stateMutability": "view",
      "type": "function",
      "constant": true
    }
  ],
  "bytecode": "0x60806040526040518060400160405280600481526020017f4a6f616e000000000000000000000000000000000000000000000000000000008152506001908051906020019061004f9291906100a2565b5034801561005c57600080fd5b50336000806101000a81548173ffffffffffffffffffffffffffffffffffffffff021916908373ffffffffffffffffffffffffffffffffffffffff1602179055506101a6565b8280546100ae90610174565b90600052602060002090601f0160209004810192826100d05760008555610117565b82601f106100e957805160ff1916838001178555610117565b82800160010185558215610117579182015b828111156101165782518255916020019190600101906100fb565b5b5090506101249190610128565b5090565b5b80821115610141576000816000905550600101610129565b5090565b7f4e487b7100000000000000000000000000000000000000000000000000000000600052602260045260246000fd5b6000600282049050600182168061018c57607f821691505b602082108114156101a05761019f610145565b5b50919050565b610b6f80620001b66000396000f3fe608060405234801561001057600080fd5b50600436106100625760003560e01c8063040d9f60146100675780632cd22cd81461008357806356e9be341461009f578063deafddae146100cf578063df096576146100ff578063f22044e61461011d575b600080fd5b610081600480360381019061007c91906106dc565b61013b565b005b61009d60048036038101906100989190610738565b610248565b005b6100b960048036038101906100b491906107b7565b6102be565b6040516100c691906107f3565b60405180910390f35b6100e960048036038101906100e49190610738565b6102d6565b6040516100f691906107f3565b60405180910390f35b61010761031e565b604051610114919061084f565b60405180910390f35b610125610342565b60405161013291906109b4565b60405180910390f35b60008054906101000a900473ffffffffffffffffffffffffffffffffffffffff1673ffffffffffffffffffffffffffffffffffffffff163373ffffffffffffffffffffffffffffffffffffffff16146101c9576040517f08c379a00000000000000000000000000000000000000000000000000000000081526004016101c090610a33565b60405180910390fd5b6000826040516020016101dc9190610a8c565b6040516020818303038152906040528051906020012090508160026000838152602001908152602001600020819055507f9129eeeb684507aca017f10030b70e5bf86d129f417fcc5840348a957eb12cee8160405161023b9190610abd565b60405180910390a1505050565b6003819080600181540180825580915050600190039060005260206000200160009091909190915090805190602001906102839291906104a9565b507fafd73f39162aa4c0421f362f3a3d26f44b23c73253256cfc1c68794b0973e0a0816040516102b39190610a8c565b60405180910390a150565b60026020528060005260406000206000915090505481565b600080826040516020016102ea9190610a8c565b6040516020818303038152906040528051906020012090506002600082815260200190815260200160002054915050919050565b60008054906101000a900473ffffffffffffffffffffffffffffffffffffffff1681565b606060008054906101000a900473ffffffffffffffffffffffffffffffffffffffff1673ffffffffffffffffffffffffffffffffffffffff163373ffffffffffffffffffffffffffffffffffffffff16146103d2576040517f08c379a00000000000000000000000000000000000000000000000000000000081526004016103c990610a33565b60405180910390fd5b6003805480602002602001604051908101604052809291908181526020016000905b828210156104a057838290600052602060002001805461041390610b07565b80601f016020809104026020016040519081016040528092919081815260200182805461043f90610b07565b801561048c5780601f106104615761010080835404028352916020019161048c565b820191906000526020600020905b81548152906001019060200180831161046f57829003601f168201915b5050505050815260200190600101906103f4565b50505050905090565b8280546104b590610b07565b90600052602060002090601f0160209004810192826104d7576000855561051e565b82601f106104f057805160ff191683800117855561051e565b8280016001018555821561051e579182015b8281111561051d578251825591602001919060010190610502565b5b50905061052b919061052f565b5090565b5b80821115610548576000816000905550600101610530565b5090565b6000604051905090565b600080fd5b600080fd5b600080fd5b600080fd5b6000601f19601f8301169050919050565b7f4e487b7100000000000000000000000000000000000000000000000000000000600052604160045260246000fd5b6105b38261056a565b810181811067ffffffffffffffff821117156105d2576105d161057b565b5b80604052505050565b60006105e561054c565b90506105f182826105aa565b919050565b600067ffffffffffffffff8211156106115761061061057b565b5b61061a8261056a565b9050602081019050919050565b82818337600083830152505050565b6000610649610644846105f6565b6105db565b90508281526020810184848401111561066557610664610565565b5b610670848285610627565b509392505050565b600082601f83011261068d5761068c610560565b5b813561069d848260208601610636565b91505092915050565b6000819050919050565b6106b9816106a6565b81146106c457600080fd5b50565b6000813590506106d6816106b0565b92915050565b600080604083850312156106f3576106f2610556565b5b600083013567ffffffffffffffff8111156107115761071061055b565b5b61071d85828601610678565b925050602061072e858286016106c7565b9150509250929050565b60006020828403121561074e5761074d610556565b5b600082013567ffffffffffffffff81111561076c5761076b61055b565b5b61077884828501610678565b91505092915050565b6000819050919050565b61079481610781565b811461079f57600080fd5b50565b6000813590506107b18161078b565b92915050565b6000602082840312156107cd576107cc610556565b5b60006107db848285016107a2565b91505092915050565b6107ed816106a6565b82525050565b600060208201905061080860008301846107e4565b92915050565b600073ffffffffffffffffffffffffffffffffffffffff82169050919050565b60006108398261080e565b9050919050565b6108498161082e565b82525050565b60006020820190506108646000830184610840565b92915050565b600081519050919050565b600082825260208201905092915050565b6000819050602082019050919050565b600081519050919050565b600082825260208201905092915050565b60005b838110156108d05780820151818401526020810190506108b5565b838111156108df576000848401525b50505050565b60006108f082610896565b6108fa81856108a1565b935061090a8185602086016108b2565b6109138161056a565b840191505092915050565b600061092a83836108e5565b905092915050565b6000602082019050919050565b600061094a8261086a565b6109548185610875565b93508360208202850161096685610886565b8060005b858110156109a25784840389528151610983858261091e565b945061098e83610932565b925060208a0199505060018101905061096a565b50829750879550505050505092915050565b600060208201905081810360008301526109ce818461093f565b905092915050565b600082825260208201905092915050565b7f4f6e6c79206f6e77657200000000000000000000000000000000000000000000600082015250565b6000610a1d600a836109d6565b9150610a28826109e7565b602082019050919050565b60006020820190508181036000830152610a4c81610a10565b9050919050565b6000610a5e82610896565b610a6881856109d6565b9350610a788185602086016108b2565b610a818161056a565b840191505092915050565b60006020820190508181036000830152610aa68184610a53565b905092915050565b610ab781610781565b82525050565b6000602082019050610ad26000830184610aae565b92915050565b7f4e487b7100000000000000000000000000000000000000000000000000000000600052602260045260246000fd5b60006002820490506001821680610b1f57607f821691505b60208210811415610b3357610b32610ad8565b5b5091905056fea26469706673582212206a615af6131e79b6dabc3581999e915d6dfd4b040540d084e37a42bc04c2efea64736f6c63430008090033",
  "immutableReferences": {},
  "source": "// SPDX-License-Identifier: GPL-3.0\n\npragma solidity >=0.7.0 <0.9.0;\n\n// --------------------------\n//ALUMON | ID      | Nota\n//Marcos | 3123123 | 5\n//Juan   | 3242345 | 4\n\n\ncontract notas{\n\n    //Direccion del profesor\n    address public profesor;\n    string my_string=\"Joan\";\n\n    //Mapping para relacionar el hash de la indentidad del alumno con su nota del examen\n    mapping(bytes32 => uint) public notas;\n    \n    //Array de los alumnos que pidan revision de examen\n    string[] revisiones;\n    \n    //eventos alumon evaluado\n    event alumno_evaluado(bytes32);\n    event evento_revision(string);\n\n    modifier onlyOnwer() {\n        require(msg.sender == profesor,\"Only onwer\");\n        _;\n    }\n\n    constructor() {\n        profesor = msg.sender;\n    }\n\n    function Evaluar(string memory _idAlumno, uint  _nota) external onlyOnwer {\n       // Hash de la identificacion del alumno\n       bytes32 hash_idAlumno = keccak256(abi.encode(_idAlumno));\n\n       //Relacion entre el hash de la identificacion del alumno y su nota\n       notas[hash_idAlumno] = _nota;\n       emit alumno_evaluado(hash_idAlumno);\n    }\n\n    function verNotas(string memory _idAlumno) external  view returns(uint) {\n        bytes32 hash_idAlumno = keccak256(abi.encode(_idAlumno));\n        return notas[hash_idAlumno];\n    }\n\n    // Function para pedir una revision del examen\n    function Revision(string memory _idAlumno) public {\n      //Almacenamiento de la identidad del alumno en un array \n      revisiones.push(_idAlumno);\n      // Emision del evento \n      emit evento_revision(_idAlumno);\n    }\n\n    //Function para ver los alumnos que han solicitado revision de examen \n    function VerRevisiones() public view onlyOnwer returns (string[] memory){\n       return revisiones;\n    }\n\n\n}",
  "sourcePath": "/home/manuonda/projects/blockchain/truffle/project1/contracts/notas.sol",
  "compiler": {
    "name": "solc",
    "version": "0.8.9+commit.e5eed63a.Emscripten.clang"
  },
  "schemaVersion": "3.4.3",
  "updatedAt": "2021-12-11T02:23:34.253Z",
  "networkType": "ethereum",
  "devdoc": {
    "kind": "dev",
    "methods": {},
    "version": 1
  },
  "userdoc": {
    "kind": "user",
    "methods": {},
    "version": 1
  }
}