{
	"Variados/Academia.sol": {
		"Academia": {
			"abi": [
				{
					"inputs": [],
					"stateMutability": "nonpayable",
					"type": "constructor"
				},
				{
					"anonymous": false,
					"inputs": [
						{
							"indexed": false,
							"internalType": "address",
							"name": "_user",
							"type": "address"
						},
						{
							"indexed": false,
							"internalType": "enum IEscuela.Rol",
							"name": "_rol",
							"type": "uint8"
						}
					],
					"name": "newUsa",
					"type": "event"
				},
				{
					"inputs": [],
					"name": "countStudents",
					"outputs": [
						{
							"internalType": "uint256",
							"name": "",
							"type": "uint256"
						}
					],
					"stateMutability": "view",
					"type": "function"
				},
				{
					"inputs": [
						{
							"internalType": "address",
							"name": "",
							"type": "address"
						}
					],
					"name": "users",
					"outputs": [
						{
							"internalType": "uint256",
							"name": "id",
							"type": "uint256"
						},
						{
							"internalType": "uint256",
							"name": "dni",
							"type": "uint256"
						},
						{
							"internalType": "string",
							"name": "nombre",
							"type": "string"
						},
						{
							"internalType": "string",
							"name": "apellido",
							"type": "string"
						},
						{
							"internalType": "enum IEscuela.Rol",
							"name": "rol",
							"type": "uint8"
						}
					],
					"stateMutability": "view",
					"type": "function"
				}
			],
			"devdoc": {
				"kind": "dev",
				"methods": {},
				"version": 1
			},
			"evm": {
				"assembly": "    /* \"Variados/Academia.sol\":298:441  contract Academia is IEscuela {... */\n  mstore(0x40, 0x80)\n    /* \"Variados/Academia.sol\":415:436  constructor(){... */\n  callvalue\n  dup1\n  iszero\n  tag_1\n  jumpi\n  0x00\n  dup1\n  revert\ntag_1:\n  pop\n    /* \"Variados/Academia.sol\":298:441  contract Academia is IEscuela {... */\n  dataSize(sub_0)\n  dup1\n  dataOffset(sub_0)\n  0x00\n  codecopy\n  0x00\n  return\nstop\n\nsub_0: assembly {\n        /* \"Variados/Academia.sol\":298:441  contract Academia is IEscuela {... */\n      mstore(0x40, 0x80)\n      callvalue\n      dup1\n      iszero\n      tag_1\n      jumpi\n      0x00\n      dup1\n      revert\n    tag_1:\n      pop\n      jumpi(tag_2, lt(calldatasize, 0x04))\n      shr(0xe0, calldataload(0x00))\n      dup1\n      0x477f5a69\n      eq\n      tag_3\n      jumpi\n      dup1\n      0xa87430ba\n      eq\n      tag_4\n      jumpi\n    tag_2:\n      0x00\n      dup1\n      revert\n        /* \"Variados/Academia.sol\":334:362  uint256 public countStudents */\n    tag_3:\n      tag_5\n      tag_6\n      jump\t// in\n    tag_5:\n      mload(0x40)\n      tag_7\n      swap2\n      swap1\n      tag_8\n      jump\t// in\n    tag_7:\n      mload(0x40)\n      dup1\n      swap2\n      sub\n      swap1\n      return\n        /* \"Variados/Academia.sol\":368:407  mapping(address => Alumno) public users */\n    tag_4:\n      tag_9\n      0x04\n      dup1\n      calldatasize\n      sub\n      dup2\n      add\n      swap1\n      tag_10\n      swap2\n      swap1\n      tag_11\n      jump\t// in\n    tag_10:\n      tag_12\n      jump\t// in\n    tag_9:\n      mload(0x40)\n      tag_13\n      swap6\n      swap5\n      swap4\n      swap3\n      swap2\n      swap1\n      tag_14\n      jump\t// in\n    tag_13:\n      mload(0x40)\n      dup1\n      swap2\n      sub\n      swap1\n      return\n        /* \"Variados/Academia.sol\":334:362  uint256 public countStudents */\n    tag_6:\n      sload(0x00)\n      dup2\n      jump\t// out\n        /* \"Variados/Academia.sol\":368:407  mapping(address => Alumno) public users */\n    tag_12:\n      mstore(0x20, 0x01)\n      dup1\n      0x00\n      mstore\n      keccak256(0x00, 0x40)\n      0x00\n      swap2\n      pop\n      swap1\n      pop\n      dup1\n      0x00\n      add\n      sload\n      swap1\n      dup1\n      0x01\n      add\n      sload\n      swap1\n      dup1\n      0x02\n      add\n      dup1\n      sload\n      tag_15\n      swap1\n      tag_16\n      jump\t// in\n    tag_15:\n      dup1\n      0x1f\n      add\n      0x20\n      dup1\n      swap2\n      div\n      mul\n      0x20\n      add\n      mload(0x40)\n      swap1\n      dup2\n      add\n      0x40\n      mstore\n      dup1\n      swap3\n      swap2\n      swap1\n      dup2\n      dup2\n      mstore\n      0x20\n      add\n      dup3\n      dup1\n      sload\n      tag_17\n      swap1\n      tag_16\n      jump\t// in\n    tag_17:\n      dup1\n      iszero\n      tag_18\n      jumpi\n      dup1\n      0x1f\n      lt\n      tag_19\n      jumpi\n      0x0100\n      dup1\n      dup4\n      sload\n      div\n      mul\n      dup4\n      mstore\n      swap2\n      0x20\n      add\n      swap2\n      jump(tag_18)\n    tag_19:\n      dup3\n      add\n      swap2\n      swap1\n      0x00\n      mstore\n      keccak256(0x00, 0x20)\n      swap1\n    tag_20:\n      dup2\n      sload\n      dup2\n      mstore\n      swap1\n      0x01\n      add\n      swap1\n      0x20\n      add\n      dup1\n      dup4\n      gt\n      tag_20\n      jumpi\n      dup3\n      swap1\n      sub\n      0x1f\n      and\n      dup3\n      add\n      swap2\n    tag_18:\n      pop\n      pop\n      pop\n      pop\n      pop\n      swap1\n      dup1\n      0x03\n      add\n      dup1\n      sload\n      tag_21\n      swap1\n      tag_16\n      jump\t// in\n    tag_21:\n      dup1\n      0x1f\n      add\n      0x20\n      dup1\n      swap2\n      div\n      mul\n      0x20\n      add\n      mload(0x40)\n      swap1\n      dup2\n      add\n      0x40\n      mstore\n      dup1\n      swap3\n      swap2\n      swap1\n      dup2\n      dup2\n      mstore\n      0x20\n      add\n      dup3\n      dup1\n      sload\n      tag_22\n      swap1\n      tag_16\n      jump\t// in\n    tag_22:\n      dup1\n      iszero\n      tag_23\n      jumpi\n      dup1\n      0x1f\n      lt\n      tag_24\n      jumpi\n      0x0100\n      dup1\n      dup4\n      sload\n      div\n      mul\n      dup4\n      mstore\n      swap2\n      0x20\n      add\n      swap2\n      jump(tag_23)\n    tag_24:\n      dup3\n      add\n      swap2\n      swap1\n      0x00\n      mstore\n      keccak256(0x00, 0x20)\n      swap1\n    tag_25:\n      dup2\n      sload\n      dup2\n      mstore\n      swap1\n      0x01\n      add\n      swap1\n      0x20\n      add\n      dup1\n      dup4\n      gt\n      tag_25\n      jumpi\n      dup3\n      swap1\n      sub\n      0x1f\n      and\n      dup3\n      add\n      swap2\n    tag_23:\n      pop\n      pop\n      pop\n      pop\n      pop\n      swap1\n      dup1\n      0x04\n      add\n      0x00\n      swap1\n      sload\n      swap1\n      0x0100\n      exp\n      swap1\n      div\n      0xff\n      and\n      swap1\n      pop\n      dup6\n      jump\t// out\n        /* \"#utility.yul\":7:146   */\n    tag_27:\n        /* \"#utility.yul\":53:58   */\n      0x00\n        /* \"#utility.yul\":91:97   */\n      dup2\n        /* \"#utility.yul\":78:98   */\n      calldataload\n        /* \"#utility.yul\":69:98   */\n      swap1\n      pop\n        /* \"#utility.yul\":107:140   */\n      tag_29\n        /* \"#utility.yul\":134:139   */\n      dup2\n        /* \"#utility.yul\":107:140   */\n      tag_30\n      jump\t// in\n    tag_29:\n        /* \"#utility.yul\":7:146   */\n      swap3\n      swap2\n      pop\n      pop\n      jump\t// out\n        /* \"#utility.yul\":152:481   */\n    tag_11:\n        /* \"#utility.yul\":211:217   */\n      0x00\n        /* \"#utility.yul\":260:262   */\n      0x20\n        /* \"#utility.yul\":248:257   */\n      dup3\n        /* \"#utility.yul\":239:246   */\n      dup5\n        /* \"#utility.yul\":235:258   */\n      sub\n        /* \"#utility.yul\":231:263   */\n      slt\n        /* \"#utility.yul\":228:347   */\n      iszero\n      tag_32\n      jumpi\n        /* \"#utility.yul\":266:345   */\n      tag_33\n      tag_34\n      jump\t// in\n    tag_33:\n        /* \"#utility.yul\":228:347   */\n    tag_32:\n        /* \"#utility.yul\":386:387   */\n      0x00\n        /* \"#utility.yul\":411:464   */\n      tag_35\n        /* \"#utility.yul\":456:463   */\n      dup5\n        /* \"#utility.yul\":447:453   */\n      dup3\n        /* \"#utility.yul\":436:445   */\n      dup6\n        /* \"#utility.yul\":432:454   */\n      add\n        /* \"#utility.yul\":411:464   */\n      tag_27\n      jump\t// in\n    tag_35:\n        /* \"#utility.yul\":401:464   */\n      swap2\n      pop\n        /* \"#utility.yul\":357:474   */\n      pop\n        /* \"#utility.yul\":152:481   */\n      swap3\n      swap2\n      pop\n      pop\n      jump\t// out\n        /* \"#utility.yul\":487:626   */\n    tag_36:\n        /* \"#utility.yul\":578:619   */\n      tag_38\n        /* \"#utility.yul\":613:618   */\n      dup2\n        /* \"#utility.yul\":578:619   */\n      tag_39\n      jump\t// in\n    tag_38:\n        /* \"#utility.yul\":573:576   */\n      dup3\n        /* \"#utility.yul\":566:620   */\n      mstore\n        /* \"#utility.yul\":487:626   */\n      pop\n      pop\n      jump\t// out\n        /* \"#utility.yul\":632:996   */\n    tag_40:\n        /* \"#utility.yul\":720:723   */\n      0x00\n        /* \"#utility.yul\":748:787   */\n      tag_42\n        /* \"#utility.yul\":781:786   */\n      dup3\n        /* \"#utility.yul\":748:787   */\n      tag_43\n      jump\t// in\n    tag_42:\n        /* \"#utility.yul\":803:874   */\n      tag_44\n        /* \"#utility.yul\":867:873   */\n      dup2\n        /* \"#utility.yul\":862:865   */\n      dup6\n        /* \"#utility.yul\":803:874   */\n      tag_45\n      jump\t// in\n    tag_44:\n        /* \"#utility.yul\":796:874   */\n      swap4\n      pop\n        /* \"#utility.yul\":883:935   */\n      tag_46\n        /* \"#utility.yul\":928:934   */\n      dup2\n        /* \"#utility.yul\":923:926   */\n      dup6\n        /* \"#utility.yul\":916:920   */\n      0x20\n        /* \"#utility.yul\":909:914   */\n      dup7\n        /* \"#utility.yul\":905:921   */\n      add\n        /* \"#utility.yul\":883:935   */\n      tag_47\n      jump\t// in\n    tag_46:\n        /* \"#utility.yul\":960:989   */\n      tag_48\n        /* \"#utility.yul\":982:988   */\n      dup2\n        /* \"#utility.yul\":960:989   */\n      tag_49\n      jump\t// in\n    tag_48:\n        /* \"#utility.yul\":955:958   */\n      dup5\n        /* \"#utility.yul\":951:990   */\n      add\n        /* \"#utility.yul\":944:990   */\n      swap2\n      pop\n        /* \"#utility.yul\":724:996   */\n      pop\n        /* \"#utility.yul\":632:996   */\n      swap3\n      swap2\n      pop\n      pop\n      jump\t// out\n        /* \"#utility.yul\":1002:1120   */\n    tag_50:\n        /* \"#utility.yul\":1089:1113   */\n      tag_52\n        /* \"#utility.yul\":1107:1112   */\n      dup2\n        /* \"#utility.yul\":1089:1113   */\n      tag_53\n      jump\t// in\n    tag_52:\n        /* \"#utility.yul\":1084:1087   */\n      dup3\n        /* \"#utility.yul\":1077:1114   */\n      mstore\n        /* \"#utility.yul\":1002:1120   */\n      pop\n      pop\n      jump\t// out\n        /* \"#utility.yul\":1126:1348   */\n    tag_8:\n        /* \"#utility.yul\":1219:1223   */\n      0x00\n        /* \"#utility.yul\":1257:1259   */\n      0x20\n        /* \"#utility.yul\":1246:1255   */\n      dup3\n        /* \"#utility.yul\":1242:1260   */\n      add\n        /* \"#utility.yul\":1234:1260   */\n      swap1\n      pop\n        /* \"#utility.yul\":1270:1341   */\n      tag_55\n        /* \"#utility.yul\":1338:1339   */\n      0x00\n        /* \"#utility.yul\":1327:1336   */\n      dup4\n        /* \"#utility.yul\":1323:1340   */\n      add\n        /* \"#utility.yul\":1314:1320   */\n      dup5\n        /* \"#utility.yul\":1270:1341   */\n      tag_50\n      jump\t// in\n    tag_55:\n        /* \"#utility.yul\":1126:1348   */\n      swap3\n      swap2\n      pop\n      pop\n      jump\t// out\n        /* \"#utility.yul\":1354:2208   */\n    tag_14:\n        /* \"#utility.yul\":1603:1607   */\n      0x00\n        /* \"#utility.yul\":1641:1644   */\n      0xa0\n        /* \"#utility.yul\":1630:1639   */\n      dup3\n        /* \"#utility.yul\":1626:1645   */\n      add\n        /* \"#utility.yul\":1618:1645   */\n      swap1\n      pop\n        /* \"#utility.yul\":1655:1726   */\n      tag_57\n        /* \"#utility.yul\":1723:1724   */\n      0x00\n        /* \"#utility.yul\":1712:1721   */\n      dup4\n        /* \"#utility.yul\":1708:1725   */\n      add\n        /* \"#utility.yul\":1699:1705   */\n      dup9\n        /* \"#utility.yul\":1655:1726   */\n      tag_50\n      jump\t// in\n    tag_57:\n        /* \"#utility.yul\":1736:1808   */\n      tag_58\n        /* \"#utility.yul\":1804:1806   */\n      0x20\n        /* \"#utility.yul\":1793:1802   */\n      dup4\n        /* \"#utility.yul\":1789:1807   */\n      add\n        /* \"#utility.yul\":1780:1786   */\n      dup8\n        /* \"#utility.yul\":1736:1808   */\n      tag_50\n      jump\t// in\n    tag_58:\n        /* \"#utility.yul\":1855:1864   */\n      dup2\n        /* \"#utility.yul\":1849:1853   */\n      dup2\n        /* \"#utility.yul\":1845:1865   */\n      sub\n        /* \"#utility.yul\":1840:1842   */\n      0x40\n        /* \"#utility.yul\":1829:1838   */\n      dup4\n        /* \"#utility.yul\":1825:1843   */\n      add\n        /* \"#utility.yul\":1818:1866   */\n      mstore\n        /* \"#utility.yul\":1883:1961   */\n      tag_59\n        /* \"#utility.yul\":1956:1960   */\n      dup2\n        /* \"#utility.yul\":1947:1953   */\n      dup7\n        /* \"#utility.yul\":1883:1961   */\n      tag_40\n      jump\t// in\n    tag_59:\n        /* \"#utility.yul\":1875:1961   */\n      swap1\n      pop\n        /* \"#utility.yul\":2008:2017   */\n      dup2\n        /* \"#utility.yul\":2002:2006   */\n      dup2\n        /* \"#utility.yul\":1998:2018   */\n      sub\n        /* \"#utility.yul\":1993:1995   */\n      0x60\n        /* \"#utility.yul\":1982:1991   */\n      dup4\n        /* \"#utility.yul\":1978:1996   */\n      add\n        /* \"#utility.yul\":1971:2019   */\n      mstore\n        /* \"#utility.yul\":2036:2114   */\n      tag_60\n        /* \"#utility.yul\":2109:2113   */\n      dup2\n        /* \"#utility.yul\":2100:2106   */\n      dup6\n        /* \"#utility.yul\":2036:2114   */\n      tag_40\n      jump\t// in\n    tag_60:\n        /* \"#utility.yul\":2028:2114   */\n      swap1\n      pop\n        /* \"#utility.yul\":2124:2201   */\n      tag_61\n        /* \"#utility.yul\":2196:2199   */\n      0x80\n        /* \"#utility.yul\":2185:2194   */\n      dup4\n        /* \"#utility.yul\":2181:2200   */\n      add\n        /* \"#utility.yul\":2172:2178   */\n      dup5\n        /* \"#utility.yul\":2124:2201   */\n      tag_36\n      jump\t// in\n    tag_61:\n        /* \"#utility.yul\":1354:2208   */\n      swap7\n      swap6\n      pop\n      pop\n      pop\n      pop\n      pop\n      pop\n      jump\t// out\n        /* \"#utility.yul\":2295:2394   */\n    tag_43:\n        /* \"#utility.yul\":2347:2353   */\n      0x00\n        /* \"#utility.yul\":2381:2386   */\n      dup2\n        /* \"#utility.yul\":2375:2387   */\n      mload\n        /* \"#utility.yul\":2365:2387   */\n      swap1\n      pop\n        /* \"#utility.yul\":2295:2394   */\n      swap2\n      swap1\n      pop\n      jump\t// out\n        /* \"#utility.yul\":2400:2569   */\n    tag_45:\n        /* \"#utility.yul\":2484:2495   */\n      0x00\n        /* \"#utility.yul\":2518:2524   */\n      dup3\n        /* \"#utility.yul\":2513:2516   */\n      dup3\n        /* \"#utility.yul\":2506:2525   */\n      mstore\n        /* \"#utility.yul\":2558:2562   */\n      0x20\n        /* \"#utility.yul\":2553:2556   */\n      dup3\n        /* \"#utility.yul\":2549:2563   */\n      add\n        /* \"#utility.yul\":2534:2563   */\n      swap1\n      pop\n        /* \"#utility.yul\":2400:2569   */\n      swap3\n      swap2\n      pop\n      pop\n      jump\t// out\n        /* \"#utility.yul\":2575:2671   */\n    tag_66:\n        /* \"#utility.yul\":2612:2619   */\n      0x00\n        /* \"#utility.yul\":2641:2665   */\n      tag_68\n        /* \"#utility.yul\":2659:2664   */\n      dup3\n        /* \"#utility.yul\":2641:2665   */\n      tag_69\n      jump\t// in\n    tag_68:\n        /* \"#utility.yul\":2630:2665   */\n      swap1\n      pop\n        /* \"#utility.yul\":2575:2671   */\n      swap2\n      swap1\n      pop\n      jump\t// out\n        /* \"#utility.yul\":2677:2800   */\n    tag_70:\n        /* \"#utility.yul\":2720:2727   */\n      0x00\n        /* \"#utility.yul\":2749:2754   */\n      dup2\n        /* \"#utility.yul\":2738:2754   */\n      swap1\n      pop\n        /* \"#utility.yul\":2755:2794   */\n      tag_72\n        /* \"#utility.yul\":2788:2793   */\n      dup3\n        /* \"#utility.yul\":2755:2794   */\n      tag_73\n      jump\t// in\n    tag_72:\n        /* \"#utility.yul\":2677:2800   */\n      swap2\n      swap1\n      pop\n      jump\t// out\n        /* \"#utility.yul\":2806:2932   */\n    tag_69:\n        /* \"#utility.yul\":2843:2850   */\n      0x00\n        /* \"#utility.yul\":2883:2925   */\n      0xffffffffffffffffffffffffffffffffffffffff\n        /* \"#utility.yul\":2876:2881   */\n      dup3\n        /* \"#utility.yul\":2872:2926   */\n      and\n        /* \"#utility.yul\":2861:2926   */\n      swap1\n      pop\n        /* \"#utility.yul\":2806:2932   */\n      swap2\n      swap1\n      pop\n      jump\t// out\n        /* \"#utility.yul\":2938:3015   */\n    tag_53:\n        /* \"#utility.yul\":2975:2982   */\n      0x00\n        /* \"#utility.yul\":3004:3009   */\n      dup2\n        /* \"#utility.yul\":2993:3009   */\n      swap1\n      pop\n        /* \"#utility.yul\":2938:3015   */\n      swap2\n      swap1\n      pop\n      jump\t// out\n        /* \"#utility.yul\":3021:3144   */\n    tag_39:\n        /* \"#utility.yul\":3075:3084   */\n      0x00\n        /* \"#utility.yul\":3108:3138   */\n      tag_77\n        /* \"#utility.yul\":3132:3137   */\n      dup3\n        /* \"#utility.yul\":3108:3138   */\n      tag_70\n      jump\t// in\n    tag_77:\n        /* \"#utility.yul\":3095:3138   */\n      swap1\n      pop\n        /* \"#utility.yul\":3021:3144   */\n      swap2\n      swap1\n      pop\n      jump\t// out\n        /* \"#utility.yul\":3150:3457   */\n    tag_47:\n        /* \"#utility.yul\":3218:3219   */\n      0x00\n        /* \"#utility.yul\":3228:3341   */\n    tag_79:\n        /* \"#utility.yul\":3242:3248   */\n      dup4\n        /* \"#utility.yul\":3239:3240   */\n      dup2\n        /* \"#utility.yul\":3236:3249   */\n      lt\n        /* \"#utility.yul\":3228:3341   */\n      iszero\n      tag_81\n      jumpi\n        /* \"#utility.yul\":3327:3328   */\n      dup1\n        /* \"#utility.yul\":3322:3325   */\n      dup3\n        /* \"#utility.yul\":3318:3329   */\n      add\n        /* \"#utility.yul\":3312:3330   */\n      mload\n        /* \"#utility.yul\":3308:3309   */\n      dup2\n        /* \"#utility.yul\":3303:3306   */\n      dup5\n        /* \"#utility.yul\":3299:3310   */\n      add\n        /* \"#utility.yul\":3292:3331   */\n      mstore\n        /* \"#utility.yul\":3264:3266   */\n      0x20\n        /* \"#utility.yul\":3261:3262   */\n      dup2\n        /* \"#utility.yul\":3257:3267   */\n      add\n        /* \"#utility.yul\":3252:3267   */\n      swap1\n      pop\n        /* \"#utility.yul\":3228:3341   */\n      jump(tag_79)\n    tag_81:\n        /* \"#utility.yul\":3359:3365   */\n      dup4\n        /* \"#utility.yul\":3356:3357   */\n      dup2\n        /* \"#utility.yul\":3353:3366   */\n      gt\n        /* \"#utility.yul\":3350:3451   */\n      iszero\n      tag_82\n      jumpi\n        /* \"#utility.yul\":3439:3440   */\n      0x00\n        /* \"#utility.yul\":3430:3436   */\n      dup5\n        /* \"#utility.yul\":3425:3428   */\n      dup5\n        /* \"#utility.yul\":3421:3437   */\n      add\n        /* \"#utility.yul\":3414:3441   */\n      mstore\n        /* \"#utility.yul\":3350:3451   */\n    tag_82:\n        /* \"#utility.yul\":3199:3457   */\n      pop\n        /* \"#utility.yul\":3150:3457   */\n      pop\n      pop\n      pop\n      jump\t// out\n        /* \"#utility.yul\":3463:3783   */\n    tag_16:\n        /* \"#utility.yul\":3507:3513   */\n      0x00\n        /* \"#utility.yul\":3544:3545   */\n      0x02\n        /* \"#utility.yul\":3538:3542   */\n      dup3\n        /* \"#utility.yul\":3534:3546   */\n      div\n        /* \"#utility.yul\":3524:3546   */\n      swap1\n      pop\n        /* \"#utility.yul\":3591:3592   */\n      0x01\n        /* \"#utility.yul\":3585:3589   */\n      dup3\n        /* \"#utility.yul\":3581:3593   */\n      and\n        /* \"#utility.yul\":3612:3630   */\n      dup1\n        /* \"#utility.yul\":3602:3683   */\n      tag_84\n      jumpi\n        /* \"#utility.yul\":3668:3672   */\n      0x7f\n        /* \"#utility.yul\":3660:3666   */\n      dup3\n        /* \"#utility.yul\":3656:3673   */\n      and\n        /* \"#utility.yul\":3646:3673   */\n      swap2\n      pop\n        /* \"#utility.yul\":3602:3683   */\n    tag_84:\n        /* \"#utility.yul\":3730:3732   */\n      0x20\n        /* \"#utility.yul\":3722:3728   */\n      dup3\n        /* \"#utility.yul\":3719:3733   */\n      lt\n        /* \"#utility.yul\":3699:3717   */\n      dup2\n        /* \"#utility.yul\":3696:3734   */\n      eq\n        /* \"#utility.yul\":3693:3777   */\n      iszero\n      tag_85\n      jumpi\n        /* \"#utility.yul\":3749:3767   */\n      tag_86\n      tag_87\n      jump\t// in\n    tag_86:\n        /* \"#utility.yul\":3693:3777   */\n    tag_85:\n        /* \"#utility.yul\":3514:3783   */\n      pop\n        /* \"#utility.yul\":3463:3783   */\n      swap2\n      swap1\n      pop\n      jump\t// out\n        /* \"#utility.yul\":3789:3969   */\n    tag_88:\n        /* \"#utility.yul\":3837:3914   */\n      0x4e487b7100000000000000000000000000000000000000000000000000000000\n        /* \"#utility.yul\":3834:3835   */\n      0x00\n        /* \"#utility.yul\":3827:3915   */\n      mstore\n        /* \"#utility.yul\":3934:3938   */\n      0x21\n        /* \"#utility.yul\":3931:3932   */\n      0x04\n        /* \"#utility.yul\":3924:3939   */\n      mstore\n        /* \"#utility.yul\":3958:3962   */\n      0x24\n        /* \"#utility.yul\":3955:3956   */\n      0x00\n        /* \"#utility.yul\":3948:3963   */\n      revert\n        /* \"#utility.yul\":3975:4155   */\n    tag_87:\n        /* \"#utility.yul\":4023:4100   */\n      0x4e487b7100000000000000000000000000000000000000000000000000000000\n        /* \"#utility.yul\":4020:4021   */\n      0x00\n        /* \"#utility.yul\":4013:4101   */\n      mstore\n        /* \"#utility.yul\":4120:4124   */\n      0x22\n        /* \"#utility.yul\":4117:4118   */\n      0x04\n        /* \"#utility.yul\":4110:4125   */\n      mstore\n        /* \"#utility.yul\":4144:4148   */\n      0x24\n        /* \"#utility.yul\":4141:4142   */\n      0x00\n        /* \"#utility.yul\":4134:4149   */\n      revert\n        /* \"#utility.yul\":4284:4401   */\n    tag_34:\n        /* \"#utility.yul\":4393:4394   */\n      0x00\n        /* \"#utility.yul\":4390:4391   */\n      dup1\n        /* \"#utility.yul\":4383:4395   */\n      revert\n        /* \"#utility.yul\":4407:4509   */\n    tag_49:\n        /* \"#utility.yul\":4448:4454   */\n      0x00\n        /* \"#utility.yul\":4499:4501   */\n      0x1f\n        /* \"#utility.yul\":4495:4502   */\n      not\n        /* \"#utility.yul\":4490:4492   */\n      0x1f\n        /* \"#utility.yul\":4483:4488   */\n      dup4\n        /* \"#utility.yul\":4479:4493   */\n      add\n        /* \"#utility.yul\":4475:4503   */\n      and\n        /* \"#utility.yul\":4465:4503   */\n      swap1\n      pop\n        /* \"#utility.yul\":4407:4509   */\n      swap2\n      swap1\n      pop\n      jump\t// out\n        /* \"#utility.yul\":4515:4626   */\n    tag_73:\n        /* \"#utility.yul\":4594:4595   */\n      0x02\n        /* \"#utility.yul\":4587:4592   */\n      dup2\n        /* \"#utility.yul\":4584:4596   */\n      lt\n        /* \"#utility.yul\":4574:4620   */\n      tag_96\n      jumpi\n        /* \"#utility.yul\":4600:4618   */\n      tag_97\n      tag_88\n      jump\t// in\n    tag_97:\n        /* \"#utility.yul\":4574:4620   */\n    tag_96:\n        /* \"#utility.yul\":4515:4626   */\n      pop\n      jump\t// out\n        /* \"#utility.yul\":4632:4754   */\n    tag_30:\n        /* \"#utility.yul\":4705:4729   */\n      tag_99\n        /* \"#utility.yul\":4723:4728   */\n      dup2\n        /* \"#utility.yul\":4705:4729   */\n      tag_66\n      jump\t// in\n    tag_99:\n        /* \"#utility.yul\":4698:4703   */\n      dup2\n        /* \"#utility.yul\":4695:4730   */\n      eq\n        /* \"#utility.yul\":4685:4748   */\n      tag_100\n      jumpi\n        /* \"#utility.yul\":4744:4745   */\n      0x00\n        /* \"#utility.yul\":4741:4742   */\n      dup1\n        /* \"#utility.yul\":4734:4746   */\n      revert\n        /* \"#utility.yul\":4685:4748   */\n    tag_100:\n        /* \"#utility.yul\":4632:4754   */\n      pop\n      jump\t// out\n\n    auxdata: 0xa264697066735822122064a4c0d3ca377d3601ccd9becedcf03808a5fec54379846907e350b170cec17764736f6c63430008070033\n}\n",
				"bytecode": {
					"linkReferences": {},
					"object": "608060405234801561001057600080fd5b506104b2806100206000396000f3fe608060405234801561001057600080fd5b50600436106100365760003560e01c8063477f5a691461003b578063a87430ba14610059575b600080fd5b61004361008d565b604051610050919061027f565b60405180910390f35b610073600480360381019061006e91906101fb565b610093565b60405161008495949392919061029a565b60405180910390f35b60005481565b60016020528060005260406000206000915090508060000154908060010154908060020180546100c2906103ab565b80601f01602080910402602001604051908101604052809291908181526020018280546100ee906103ab565b801561013b5780601f106101105761010080835404028352916020019161013b565b820191906000526020600020905b81548152906001019060200180831161011e57829003601f168201915b505050505090806003018054610150906103ab565b80601f016020809104026020016040519081016040528092919081815260200182805461017c906103ab565b80156101c95780601f1061019e576101008083540402835291602001916101c9565b820191906000526020600020905b8154815290600101906020018083116101ac57829003601f168201915b5050505050908060040160009054906101000a900460ff16905085565b6000813590506101f581610465565b92915050565b6000602082840312156102115761021061043b565b5b600061021f848285016101e6565b91505092915050565b61023181610366565b82525050565b6000610242826102fb565b61024c8185610306565b935061025c818560208601610378565b61026581610440565b840191505092915050565b6102798161035c565b82525050565b60006020820190506102946000830184610270565b92915050565b600060a0820190506102af6000830188610270565b6102bc6020830187610270565b81810360408301526102ce8186610237565b905081810360608301526102e28185610237565b90506102f16080830184610228565b9695505050505050565b600081519050919050565b600082825260208201905092915050565b60006103228261033c565b9050919050565b600081905061033782610451565b919050565b600073ffffffffffffffffffffffffffffffffffffffff82169050919050565b6000819050919050565b600061037182610329565b9050919050565b60005b8381101561039657808201518184015260208101905061037b565b838111156103a5576000848401525b50505050565b600060028204905060018216806103c357607f821691505b602082108114156103d7576103d661040c565b5b50919050565b7f4e487b7100000000000000000000000000000000000000000000000000000000600052602160045260246000fd5b7f4e487b7100000000000000000000000000000000000000000000000000000000600052602260045260246000fd5b600080fd5b6000601f19601f8301169050919050565b60028110610462576104616103dd565b5b50565b61046e81610317565b811461047957600080fd5b5056fea264697066735822122064a4c0d3ca377d3601ccd9becedcf03808a5fec54379846907e350b170cec17764736f6c63430008070033",
					"opcodes": "PUSH1 0x80 PUSH1 0x40 MSTORE CALLVALUE DUP1 ISZERO PUSH2 0x10 JUMPI PUSH1 0x0 DUP1 REVERT JUMPDEST POP PUSH2 0x4B2 DUP1 PUSH2 0x20 PUSH1 0x0 CODECOPY PUSH1 0x0 RETURN INVALID PUSH1 0x80 PUSH1 0x40 MSTORE CALLVALUE DUP1 ISZERO PUSH2 0x10 JUMPI PUSH1 0x0 DUP1 REVERT JUMPDEST POP PUSH1 0x4 CALLDATASIZE LT PUSH2 0x36 JUMPI PUSH1 0x0 CALLDATALOAD PUSH1 0xE0 SHR DUP1 PUSH4 0x477F5A69 EQ PUSH2 0x3B JUMPI DUP1 PUSH4 0xA87430BA EQ PUSH2 0x59 JUMPI JUMPDEST PUSH1 0x0 DUP1 REVERT JUMPDEST PUSH2 0x43 PUSH2 0x8D JUMP JUMPDEST PUSH1 0x40 MLOAD PUSH2 0x50 SWAP2 SWAP1 PUSH2 0x27F JUMP JUMPDEST PUSH1 0x40 MLOAD DUP1 SWAP2 SUB SWAP1 RETURN JUMPDEST PUSH2 0x73 PUSH1 0x4 DUP1 CALLDATASIZE SUB DUP2 ADD SWAP1 PUSH2 0x6E SWAP2 SWAP1 PUSH2 0x1FB JUMP JUMPDEST PUSH2 0x93 JUMP JUMPDEST PUSH1 0x40 MLOAD PUSH2 0x84 SWAP6 SWAP5 SWAP4 SWAP3 SWAP2 SWAP1 PUSH2 0x29A JUMP JUMPDEST PUSH1 0x40 MLOAD DUP1 SWAP2 SUB SWAP1 RETURN JUMPDEST PUSH1 0x0 SLOAD DUP2 JUMP JUMPDEST PUSH1 0x1 PUSH1 0x20 MSTORE DUP1 PUSH1 0x0 MSTORE PUSH1 0x40 PUSH1 0x0 KECCAK256 PUSH1 0x0 SWAP2 POP SWAP1 POP DUP1 PUSH1 0x0 ADD SLOAD SWAP1 DUP1 PUSH1 0x1 ADD SLOAD SWAP1 DUP1 PUSH1 0x2 ADD DUP1 SLOAD PUSH2 0xC2 SWAP1 PUSH2 0x3AB JUMP JUMPDEST DUP1 PUSH1 0x1F ADD PUSH1 0x20 DUP1 SWAP2 DIV MUL PUSH1 0x20 ADD PUSH1 0x40 MLOAD SWAP1 DUP2 ADD PUSH1 0x40 MSTORE DUP1 SWAP3 SWAP2 SWAP1 DUP2 DUP2 MSTORE PUSH1 0x20 ADD DUP3 DUP1 SLOAD PUSH2 0xEE SWAP1 PUSH2 0x3AB JUMP JUMPDEST DUP1 ISZERO PUSH2 0x13B JUMPI DUP1 PUSH1 0x1F LT PUSH2 0x110 JUMPI PUSH2 0x100 DUP1 DUP4 SLOAD DIV MUL DUP4 MSTORE SWAP2 PUSH1 0x20 ADD SWAP2 PUSH2 0x13B JUMP JUMPDEST DUP3 ADD SWAP2 SWAP1 PUSH1 0x0 MSTORE PUSH1 0x20 PUSH1 0x0 KECCAK256 SWAP1 JUMPDEST DUP2 SLOAD DUP2 MSTORE SWAP1 PUSH1 0x1 ADD SWAP1 PUSH1 0x20 ADD DUP1 DUP4 GT PUSH2 0x11E JUMPI DUP3 SWAP1 SUB PUSH1 0x1F AND DUP3 ADD SWAP2 JUMPDEST POP POP POP POP POP SWAP1 DUP1 PUSH1 0x3 ADD DUP1 SLOAD PUSH2 0x150 SWAP1 PUSH2 0x3AB JUMP JUMPDEST DUP1 PUSH1 0x1F ADD PUSH1 0x20 DUP1 SWAP2 DIV MUL PUSH1 0x20 ADD PUSH1 0x40 MLOAD SWAP1 DUP2 ADD PUSH1 0x40 MSTORE DUP1 SWAP3 SWAP2 SWAP1 DUP2 DUP2 MSTORE PUSH1 0x20 ADD DUP3 DUP1 SLOAD PUSH2 0x17C SWAP1 PUSH2 0x3AB JUMP JUMPDEST DUP1 ISZERO PUSH2 0x1C9 JUMPI DUP1 PUSH1 0x1F LT PUSH2 0x19E JUMPI PUSH2 0x100 DUP1 DUP4 SLOAD DIV MUL DUP4 MSTORE SWAP2 PUSH1 0x20 ADD SWAP2 PUSH2 0x1C9 JUMP JUMPDEST DUP3 ADD SWAP2 SWAP1 PUSH1 0x0 MSTORE PUSH1 0x20 PUSH1 0x0 KECCAK256 SWAP1 JUMPDEST DUP2 SLOAD DUP2 MSTORE SWAP1 PUSH1 0x1 ADD SWAP1 PUSH1 0x20 ADD DUP1 DUP4 GT PUSH2 0x1AC JUMPI DUP3 SWAP1 SUB PUSH1 0x1F AND DUP3 ADD SWAP2 JUMPDEST POP POP POP POP POP SWAP1 DUP1 PUSH1 0x4 ADD PUSH1 0x0 SWAP1 SLOAD SWAP1 PUSH2 0x100 EXP SWAP1 DIV PUSH1 0xFF AND SWAP1 POP DUP6 JUMP JUMPDEST PUSH1 0x0 DUP2 CALLDATALOAD SWAP1 POP PUSH2 0x1F5 DUP2 PUSH2 0x465 JUMP JUMPDEST SWAP3 SWAP2 POP POP JUMP JUMPDEST PUSH1 0x0 PUSH1 0x20 DUP3 DUP5 SUB SLT ISZERO PUSH2 0x211 JUMPI PUSH2 0x210 PUSH2 0x43B JUMP JUMPDEST JUMPDEST PUSH1 0x0 PUSH2 0x21F DUP5 DUP3 DUP6 ADD PUSH2 0x1E6 JUMP JUMPDEST SWAP2 POP POP SWAP3 SWAP2 POP POP JUMP JUMPDEST PUSH2 0x231 DUP2 PUSH2 0x366 JUMP JUMPDEST DUP3 MSTORE POP POP JUMP JUMPDEST PUSH1 0x0 PUSH2 0x242 DUP3 PUSH2 0x2FB JUMP JUMPDEST PUSH2 0x24C DUP2 DUP6 PUSH2 0x306 JUMP JUMPDEST SWAP4 POP PUSH2 0x25C DUP2 DUP6 PUSH1 0x20 DUP7 ADD PUSH2 0x378 JUMP JUMPDEST PUSH2 0x265 DUP2 PUSH2 0x440 JUMP JUMPDEST DUP5 ADD SWAP2 POP POP SWAP3 SWAP2 POP POP JUMP JUMPDEST PUSH2 0x279 DUP2 PUSH2 0x35C JUMP JUMPDEST DUP3 MSTORE POP POP JUMP JUMPDEST PUSH1 0x0 PUSH1 0x20 DUP3 ADD SWAP1 POP PUSH2 0x294 PUSH1 0x0 DUP4 ADD DUP5 PUSH2 0x270 JUMP JUMPDEST SWAP3 SWAP2 POP POP JUMP JUMPDEST PUSH1 0x0 PUSH1 0xA0 DUP3 ADD SWAP1 POP PUSH2 0x2AF PUSH1 0x0 DUP4 ADD DUP9 PUSH2 0x270 JUMP JUMPDEST PUSH2 0x2BC PUSH1 0x20 DUP4 ADD DUP8 PUSH2 0x270 JUMP JUMPDEST DUP2 DUP2 SUB PUSH1 0x40 DUP4 ADD MSTORE PUSH2 0x2CE DUP2 DUP7 PUSH2 0x237 JUMP JUMPDEST SWAP1 POP DUP2 DUP2 SUB PUSH1 0x60 DUP4 ADD MSTORE PUSH2 0x2E2 DUP2 DUP6 PUSH2 0x237 JUMP JUMPDEST SWAP1 POP PUSH2 0x2F1 PUSH1 0x80 DUP4 ADD DUP5 PUSH2 0x228 JUMP JUMPDEST SWAP7 SWAP6 POP POP POP POP POP POP JUMP JUMPDEST PUSH1 0x0 DUP2 MLOAD SWAP1 POP SWAP2 SWAP1 POP JUMP JUMPDEST PUSH1 0x0 DUP3 DUP3 MSTORE PUSH1 0x20 DUP3 ADD SWAP1 POP SWAP3 SWAP2 POP POP JUMP JUMPDEST PUSH1 0x0 PUSH2 0x322 DUP3 PUSH2 0x33C JUMP JUMPDEST SWAP1 POP SWAP2 SWAP1 POP JUMP JUMPDEST PUSH1 0x0 DUP2 SWAP1 POP PUSH2 0x337 DUP3 PUSH2 0x451 JUMP JUMPDEST SWAP2 SWAP1 POP JUMP JUMPDEST PUSH1 0x0 PUSH20 0xFFFFFFFFFFFFFFFFFFFFFFFFFFFFFFFFFFFFFFFF DUP3 AND SWAP1 POP SWAP2 SWAP1 POP JUMP JUMPDEST PUSH1 0x0 DUP2 SWAP1 POP SWAP2 SWAP1 POP JUMP JUMPDEST PUSH1 0x0 PUSH2 0x371 DUP3 PUSH2 0x329 JUMP JUMPDEST SWAP1 POP SWAP2 SWAP1 POP JUMP JUMPDEST PUSH1 0x0 JUMPDEST DUP4 DUP2 LT ISZERO PUSH2 0x396 JUMPI DUP1 DUP3 ADD MLOAD DUP2 DUP5 ADD MSTORE PUSH1 0x20 DUP2 ADD SWAP1 POP PUSH2 0x37B JUMP JUMPDEST DUP4 DUP2 GT ISZERO PUSH2 0x3A5 JUMPI PUSH1 0x0 DUP5 DUP5 ADD MSTORE JUMPDEST POP POP POP POP JUMP JUMPDEST PUSH1 0x0 PUSH1 0x2 DUP3 DIV SWAP1 POP PUSH1 0x1 DUP3 AND DUP1 PUSH2 0x3C3 JUMPI PUSH1 0x7F DUP3 AND SWAP2 POP JUMPDEST PUSH1 0x20 DUP3 LT DUP2 EQ ISZERO PUSH2 0x3D7 JUMPI PUSH2 0x3D6 PUSH2 0x40C JUMP JUMPDEST JUMPDEST POP SWAP2 SWAP1 POP JUMP JUMPDEST PUSH32 0x4E487B7100000000000000000000000000000000000000000000000000000000 PUSH1 0x0 MSTORE PUSH1 0x21 PUSH1 0x4 MSTORE PUSH1 0x24 PUSH1 0x0 REVERT JUMPDEST PUSH32 0x4E487B7100000000000000000000000000000000000000000000000000000000 PUSH1 0x0 MSTORE PUSH1 0x22 PUSH1 0x4 MSTORE PUSH1 0x24 PUSH1 0x0 REVERT JUMPDEST PUSH1 0x0 DUP1 REVERT JUMPDEST PUSH1 0x0 PUSH1 0x1F NOT PUSH1 0x1F DUP4 ADD AND SWAP1 POP SWAP2 SWAP1 POP JUMP JUMPDEST PUSH1 0x2 DUP2 LT PUSH2 0x462 JUMPI PUSH2 0x461 PUSH2 0x3DD JUMP JUMPDEST JUMPDEST POP JUMP JUMPDEST PUSH2 0x46E DUP2 PUSH2 0x317 JUMP JUMPDEST DUP2 EQ PUSH2 0x479 JUMPI PUSH1 0x0 DUP1 REVERT JUMPDEST POP JUMP INVALID LOG2 PUSH5 0x6970667358 0x22 SLT KECCAK256 PUSH5 0xA4C0D3CA37 PUSH30 0x3601CCD9BECEDCF03808A5FEC54379846907E350B170CEC17764736F6C63 NUMBER STOP ADDMOD SMOD STOP CALLER "
				},
				"gasEstimates": {
					"creation": {
						"codeDepositCost": "240400",
						"executionCost": "281",
						"totalCost": "240681"
					},
					"external": {
						"countStudents()": "2407",
						"users(address)": "infinite"
					}
				},
				"methodIdentifiers": {
					"countStudents()": "477f5a69",
					"users(address)": "a87430ba"
				}
			},
			"userdoc": {
				"kind": "user",
				"methods": {},
				"version": 1
			}
		}
	}
}