{
	"Variados/Modificadores.sol": {
		"Modificadores": {
			"abi": [
				{
					"inputs": [],
					"stateMutability": "nonpayable",
					"type": "constructor"
				},
				{
					"inputs": [
						{
							"internalType": "uint256",
							"name": "numero1",
							"type": "uint256"
						},
						{
							"internalType": "uint256",
							"name": "numero2",
							"type": "uint256"
						}
					],
					"name": "Suma",
					"outputs": [
						{
							"internalType": "uint256",
							"name": "",
							"type": "uint256"
						}
					],
					"stateMutability": "view",
					"type": "function"
				}
			],
			"devdoc": {
				"kind": "dev",
				"methods": {},
				"version": 1
			},
			"evm": {
				"assembly": "    /* \"Variados/Modificadores.sol\":69:410  contract Modificadores {... */\n  mstore(0x40, 0x80)\n    /* \"Variados/Modificadores.sol\":228:276  constructor(){... */\n  callvalue\n  dup1\n  iszero\n  tag_1\n  jumpi\n  0x00\n  dup1\n  revert\ntag_1:\n  pop\n    /* \"Variados/Modificadores.sol\":259:269  msg.sender */\n  caller\n    /* \"Variados/Modificadores.sol\":251:256  owner */\n  0x00\n  dup1\n    /* \"Variados/Modificadores.sol\":251:269  owner = msg.sender */\n  0x0100\n  exp\n  dup2\n  sload\n  dup2\n  0xffffffffffffffffffffffffffffffffffffffff\n  mul\n  not\n  and\n  swap1\n  dup4\n  0xffffffffffffffffffffffffffffffffffffffff\n  and\n  mul\n  or\n  swap1\n  sstore\n  pop\n    /* \"Variados/Modificadores.sol\":69:410  contract Modificadores {... */\n  dataSize(sub_0)\n  dup1\n  dataOffset(sub_0)\n  0x00\n  codecopy\n  0x00\n  return\nstop\n\nsub_0: assembly {\n        /* \"Variados/Modificadores.sol\":69:410  contract Modificadores {... */\n      mstore(0x40, 0x80)\n      callvalue\n      dup1\n      iszero\n      tag_1\n      jumpi\n      0x00\n      dup1\n      revert\n    tag_1:\n      pop\n      jumpi(tag_2, lt(calldatasize, 0x04))\n      shr(0xe0, calldataload(0x00))\n      dup1\n      0x05e0019d\n      eq\n      tag_3\n      jumpi\n    tag_2:\n      0x00\n      dup1\n      revert\n        /* \"Variados/Modificadores.sol\":282:407  function Suma(uint numero1 , uint numero2 ) public view onlyOnwer() returns(uint)  {... */\n    tag_3:\n      tag_4\n      0x04\n      dup1\n      calldatasize\n      sub\n      dup2\n      add\n      swap1\n      tag_5\n      swap2\n      swap1\n      tag_6\n      jump\t// in\n    tag_5:\n      tag_7\n      jump\t// in\n    tag_4:\n      mload(0x40)\n      tag_8\n      swap2\n      swap1\n      tag_9\n      jump\t// in\n    tag_8:\n      mload(0x40)\n      dup1\n      swap2\n      sub\n      swap1\n      return\n    tag_7:\n        /* \"Variados/Modificadores.sol\":358:362  uint */\n      0x00\n        /* \"Variados/Modificadores.sol\":186:191  owner */\n      dup1\n      0x00\n      swap1\n      sload\n      swap1\n      0x0100\n      exp\n      swap1\n      div\n      0xffffffffffffffffffffffffffffffffffffffff\n      and\n        /* \"Variados/Modificadores.sol\":171:191  msg.sender ==  owner */\n      0xffffffffffffffffffffffffffffffffffffffff\n      and\n        /* \"Variados/Modificadores.sol\":171:181  msg.sender */\n      caller\n        /* \"Variados/Modificadores.sol\":171:191  msg.sender ==  owner */\n      0xffffffffffffffffffffffffffffffffffffffff\n      and\n      eq\n        /* \"Variados/Modificadores.sol\":162:206  require( msg.sender ==  owner ,\"Only Owner\") */\n      tag_11\n      jumpi\n      mload(0x40)\n      0x08c379a000000000000000000000000000000000000000000000000000000000\n      dup2\n      mstore\n      0x04\n      add\n      tag_12\n      swap1\n      tag_13\n      jump\t// in\n    tag_12:\n      mload(0x40)\n      dup1\n      swap2\n      sub\n      swap1\n      revert\n    tag_11:\n        /* \"Variados/Modificadores.sol\":393:400  numero2 */\n      dup2\n        /* \"Variados/Modificadores.sol\":382:389  numero1 */\n      dup4\n        /* \"Variados/Modificadores.sol\":382:400  numero1  + numero2 */\n      tag_15\n      swap2\n      swap1\n      tag_16\n      jump\t// in\n    tag_15:\n        /* \"Variados/Modificadores.sol\":375:400  return numero1  + numero2 */\n      swap1\n      pop\n        /* \"Variados/Modificadores.sol\":282:407  function Suma(uint numero1 , uint numero2 ) public view onlyOnwer() returns(uint)  {... */\n      swap3\n      swap2\n      pop\n      pop\n      jump\t// out\n        /* \"#utility.yul\":7:146   */\n    tag_18:\n        /* \"#utility.yul\":53:58   */\n      0x00\n        /* \"#utility.yul\":91:97   */\n      dup2\n        /* \"#utility.yul\":78:98   */\n      calldataload\n        /* \"#utility.yul\":69:98   */\n      swap1\n      pop\n        /* \"#utility.yul\":107:140   */\n      tag_20\n        /* \"#utility.yul\":134:139   */\n      dup2\n        /* \"#utility.yul\":107:140   */\n      tag_21\n      jump\t// in\n    tag_20:\n        /* \"#utility.yul\":7:146   */\n      swap3\n      swap2\n      pop\n      pop\n      jump\t// out\n        /* \"#utility.yul\":152:626   */\n    tag_6:\n        /* \"#utility.yul\":220:226   */\n      0x00\n        /* \"#utility.yul\":228:234   */\n      dup1\n        /* \"#utility.yul\":277:279   */\n      0x40\n        /* \"#utility.yul\":265:274   */\n      dup4\n        /* \"#utility.yul\":256:263   */\n      dup6\n        /* \"#utility.yul\":252:275   */\n      sub\n        /* \"#utility.yul\":248:280   */\n      slt\n        /* \"#utility.yul\":245:364   */\n      iszero\n      tag_23\n      jumpi\n        /* \"#utility.yul\":283:362   */\n      tag_24\n      tag_25\n      jump\t// in\n    tag_24:\n        /* \"#utility.yul\":245:364   */\n    tag_23:\n        /* \"#utility.yul\":403:404   */\n      0x00\n        /* \"#utility.yul\":428:481   */\n      tag_26\n        /* \"#utility.yul\":473:480   */\n      dup6\n        /* \"#utility.yul\":464:470   */\n      dup3\n        /* \"#utility.yul\":453:462   */\n      dup7\n        /* \"#utility.yul\":449:471   */\n      add\n        /* \"#utility.yul\":428:481   */\n      tag_18\n      jump\t// in\n    tag_26:\n        /* \"#utility.yul\":418:481   */\n      swap3\n      pop\n        /* \"#utility.yul\":374:491   */\n      pop\n        /* \"#utility.yul\":530:532   */\n      0x20\n        /* \"#utility.yul\":556:609   */\n      tag_27\n        /* \"#utility.yul\":601:608   */\n      dup6\n        /* \"#utility.yul\":592:598   */\n      dup3\n        /* \"#utility.yul\":581:590   */\n      dup7\n        /* \"#utility.yul\":577:599   */\n      add\n        /* \"#utility.yul\":556:609   */\n      tag_18\n      jump\t// in\n    tag_27:\n        /* \"#utility.yul\":546:609   */\n      swap2\n      pop\n        /* \"#utility.yul\":501:619   */\n      pop\n        /* \"#utility.yul\":152:626   */\n      swap3\n      pop\n      swap3\n      swap1\n      pop\n      jump\t// out\n        /* \"#utility.yul\":632:998   */\n    tag_28:\n        /* \"#utility.yul\":774:777   */\n      0x00\n        /* \"#utility.yul\":795:862   */\n      tag_30\n        /* \"#utility.yul\":859:861   */\n      0x0a\n        /* \"#utility.yul\":854:857   */\n      dup4\n        /* \"#utility.yul\":795:862   */\n      tag_31\n      jump\t// in\n    tag_30:\n        /* \"#utility.yul\":788:862   */\n      swap2\n      pop\n        /* \"#utility.yul\":871:964   */\n      tag_32\n        /* \"#utility.yul\":960:963   */\n      dup3\n        /* \"#utility.yul\":871:964   */\n      tag_33\n      jump\t// in\n    tag_32:\n        /* \"#utility.yul\":989:991   */\n      0x20\n        /* \"#utility.yul\":984:987   */\n      dup3\n        /* \"#utility.yul\":980:992   */\n      add\n        /* \"#utility.yul\":973:992   */\n      swap1\n      pop\n        /* \"#utility.yul\":632:998   */\n      swap2\n      swap1\n      pop\n      jump\t// out\n        /* \"#utility.yul\":1004:1122   */\n    tag_34:\n        /* \"#utility.yul\":1091:1115   */\n      tag_36\n        /* \"#utility.yul\":1109:1114   */\n      dup2\n        /* \"#utility.yul\":1091:1115   */\n      tag_37\n      jump\t// in\n    tag_36:\n        /* \"#utility.yul\":1086:1089   */\n      dup3\n        /* \"#utility.yul\":1079:1116   */\n      mstore\n        /* \"#utility.yul\":1004:1122   */\n      pop\n      pop\n      jump\t// out\n        /* \"#utility.yul\":1128:1547   */\n    tag_13:\n        /* \"#utility.yul\":1294:1298   */\n      0x00\n        /* \"#utility.yul\":1332:1334   */\n      0x20\n        /* \"#utility.yul\":1321:1330   */\n      dup3\n        /* \"#utility.yul\":1317:1335   */\n      add\n        /* \"#utility.yul\":1309:1335   */\n      swap1\n      pop\n        /* \"#utility.yul\":1381:1390   */\n      dup2\n        /* \"#utility.yul\":1375:1379   */\n      dup2\n        /* \"#utility.yul\":1371:1391   */\n      sub\n        /* \"#utility.yul\":1367:1368   */\n      0x00\n        /* \"#utility.yul\":1356:1365   */\n      dup4\n        /* \"#utility.yul\":1352:1369   */\n      add\n        /* \"#utility.yul\":1345:1392   */\n      mstore\n        /* \"#utility.yul\":1409:1540   */\n      tag_39\n        /* \"#utility.yul\":1535:1539   */\n      dup2\n        /* \"#utility.yul\":1409:1540   */\n      tag_28\n      jump\t// in\n    tag_39:\n        /* \"#utility.yul\":1401:1540   */\n      swap1\n      pop\n        /* \"#utility.yul\":1128:1547   */\n      swap2\n      swap1\n      pop\n      jump\t// out\n        /* \"#utility.yul\":1553:1775   */\n    tag_9:\n        /* \"#utility.yul\":1646:1650   */\n      0x00\n        /* \"#utility.yul\":1684:1686   */\n      0x20\n        /* \"#utility.yul\":1673:1682   */\n      dup3\n        /* \"#utility.yul\":1669:1687   */\n      add\n        /* \"#utility.yul\":1661:1687   */\n      swap1\n      pop\n        /* \"#utility.yul\":1697:1768   */\n      tag_41\n        /* \"#utility.yul\":1765:1766   */\n      0x00\n        /* \"#utility.yul\":1754:1763   */\n      dup4\n        /* \"#utility.yul\":1750:1767   */\n      add\n        /* \"#utility.yul\":1741:1747   */\n      dup5\n        /* \"#utility.yul\":1697:1768   */\n      tag_34\n      jump\t// in\n    tag_41:\n        /* \"#utility.yul\":1553:1775   */\n      swap3\n      swap2\n      pop\n      pop\n      jump\t// out\n        /* \"#utility.yul\":1862:2031   */\n    tag_31:\n        /* \"#utility.yul\":1946:1957   */\n      0x00\n        /* \"#utility.yul\":1980:1986   */\n      dup3\n        /* \"#utility.yul\":1975:1978   */\n      dup3\n        /* \"#utility.yul\":1968:1987   */\n      mstore\n        /* \"#utility.yul\":2020:2024   */\n      0x20\n        /* \"#utility.yul\":2015:2018   */\n      dup3\n        /* \"#utility.yul\":2011:2025   */\n      add\n        /* \"#utility.yul\":1996:2025   */\n      swap1\n      pop\n        /* \"#utility.yul\":1862:2031   */\n      swap3\n      swap2\n      pop\n      pop\n      jump\t// out\n        /* \"#utility.yul\":2037:2342   */\n    tag_16:\n        /* \"#utility.yul\":2077:2080   */\n      0x00\n        /* \"#utility.yul\":2096:2116   */\n      tag_46\n        /* \"#utility.yul\":2114:2115   */\n      dup3\n        /* \"#utility.yul\":2096:2116   */\n      tag_37\n      jump\t// in\n    tag_46:\n        /* \"#utility.yul\":2091:2116   */\n      swap2\n      pop\n        /* \"#utility.yul\":2130:2150   */\n      tag_47\n        /* \"#utility.yul\":2148:2149   */\n      dup4\n        /* \"#utility.yul\":2130:2150   */\n      tag_37\n      jump\t// in\n    tag_47:\n        /* \"#utility.yul\":2125:2150   */\n      swap3\n      pop\n        /* \"#utility.yul\":2284:2285   */\n      dup3\n        /* \"#utility.yul\":2216:2282   */\n      0xffffffffffffffffffffffffffffffffffffffffffffffffffffffffffffffff\n        /* \"#utility.yul\":2212:2286   */\n      sub\n        /* \"#utility.yul\":2209:2210   */\n      dup3\n        /* \"#utility.yul\":2206:2287   */\n      gt\n        /* \"#utility.yul\":2203:2310   */\n      iszero\n      tag_48\n      jumpi\n        /* \"#utility.yul\":2290:2308   */\n      tag_49\n      tag_50\n      jump\t// in\n    tag_49:\n        /* \"#utility.yul\":2203:2310   */\n    tag_48:\n        /* \"#utility.yul\":2334:2335   */\n      dup3\n        /* \"#utility.yul\":2331:2332   */\n      dup3\n        /* \"#utility.yul\":2327:2336   */\n      add\n        /* \"#utility.yul\":2320:2336   */\n      swap1\n      pop\n        /* \"#utility.yul\":2037:2342   */\n      swap3\n      swap2\n      pop\n      pop\n      jump\t// out\n        /* \"#utility.yul\":2348:2425   */\n    tag_37:\n        /* \"#utility.yul\":2385:2392   */\n      0x00\n        /* \"#utility.yul\":2414:2419   */\n      dup2\n        /* \"#utility.yul\":2403:2419   */\n      swap1\n      pop\n        /* \"#utility.yul\":2348:2425   */\n      swap2\n      swap1\n      pop\n      jump\t// out\n        /* \"#utility.yul\":2431:2611   */\n    tag_50:\n        /* \"#utility.yul\":2479:2556   */\n      0x4e487b7100000000000000000000000000000000000000000000000000000000\n        /* \"#utility.yul\":2476:2477   */\n      0x00\n        /* \"#utility.yul\":2469:2557   */\n      mstore\n        /* \"#utility.yul\":2576:2580   */\n      0x11\n        /* \"#utility.yul\":2573:2574   */\n      0x04\n        /* \"#utility.yul\":2566:2581   */\n      mstore\n        /* \"#utility.yul\":2600:2604   */\n      0x24\n        /* \"#utility.yul\":2597:2598   */\n      0x00\n        /* \"#utility.yul\":2590:2605   */\n      revert\n        /* \"#utility.yul\":2740:2857   */\n    tag_25:\n        /* \"#utility.yul\":2849:2850   */\n      0x00\n        /* \"#utility.yul\":2846:2847   */\n      dup1\n        /* \"#utility.yul\":2839:2851   */\n      revert\n        /* \"#utility.yul\":2863:3023   */\n    tag_33:\n        /* \"#utility.yul\":3003:3015   */\n      0x4f6e6c79204f776e657200000000000000000000000000000000000000000000\n        /* \"#utility.yul\":2999:3000   */\n      0x00\n        /* \"#utility.yul\":2991:2997   */\n      dup3\n        /* \"#utility.yul\":2987:3001   */\n      add\n        /* \"#utility.yul\":2980:3016   */\n      mstore\n        /* \"#utility.yul\":2863:3023   */\n      pop\n      jump\t// out\n        /* \"#utility.yul\":3029:3151   */\n    tag_21:\n        /* \"#utility.yul\":3102:3126   */\n      tag_58\n        /* \"#utility.yul\":3120:3125   */\n      dup2\n        /* \"#utility.yul\":3102:3126   */\n      tag_37\n      jump\t// in\n    tag_58:\n        /* \"#utility.yul\":3095:3100   */\n      dup2\n        /* \"#utility.yul\":3092:3127   */\n      eq\n        /* \"#utility.yul\":3082:3145   */\n      tag_59\n      jumpi\n        /* \"#utility.yul\":3141:3142   */\n      0x00\n        /* \"#utility.yul\":3138:3139   */\n      dup1\n        /* \"#utility.yul\":3131:3143   */\n      revert\n        /* \"#utility.yul\":3082:3145   */\n    tag_59:\n        /* \"#utility.yul\":3029:3151   */\n      pop\n      jump\t// out\n\n    auxdata: 0xa26469706673582212201d70e6468aeb54cc962f3681b3a684295fb44889bff3c5121091a8ecff6af08b64736f6c63430008070033\n}\n",
				"bytecode": {
					"linkReferences": {},
					"object": "608060405234801561001057600080fd5b50336000806101000a81548173ffffffffffffffffffffffffffffffffffffffff021916908373ffffffffffffffffffffffffffffffffffffffff1602179055506102e2806100606000396000f3fe608060405234801561001057600080fd5b506004361061002b5760003560e01c806305e0019d14610030575b600080fd5b61004a6004803603810190610045919061011a565b610060565b60405161005791906101ac565b60405180910390f35b60008060009054906101000a900473ffffffffffffffffffffffffffffffffffffffff1673ffffffffffffffffffffffffffffffffffffffff163373ffffffffffffffffffffffffffffffffffffffff16146100f1576040517f08c379a00000000000000000000000000000000000000000000000000000000081526004016100e89061018c565b60405180910390fd5b81836100fd91906101d8565b905092915050565b60008135905061011481610295565b92915050565b6000806040838503121561013157610130610267565b5b600061013f85828601610105565b925050602061015085828601610105565b9150509250929050565b6000610167600a836101c7565b91506101728261026c565b602082019050919050565b6101868161022e565b82525050565b600060208201905081810360008301526101a58161015a565b9050919050565b60006020820190506101c1600083018461017d565b92915050565b600082825260208201905092915050565b60006101e38261022e565b91506101ee8361022e565b9250827fffffffffffffffffffffffffffffffffffffffffffffffffffffffffffffffff0382111561022357610222610238565b5b828201905092915050565b6000819050919050565b7f4e487b7100000000000000000000000000000000000000000000000000000000600052601160045260246000fd5b600080fd5b7f4f6e6c79204f776e657200000000000000000000000000000000000000000000600082015250565b61029e8161022e565b81146102a957600080fd5b5056fea26469706673582212201d70e6468aeb54cc962f3681b3a684295fb44889bff3c5121091a8ecff6af08b64736f6c63430008070033",
					"opcodes": "PUSH1 0x80 PUSH1 0x40 MSTORE CALLVALUE DUP1 ISZERO PUSH2 0x10 JUMPI PUSH1 0x0 DUP1 REVERT JUMPDEST POP CALLER PUSH1 0x0 DUP1 PUSH2 0x100 EXP DUP2 SLOAD DUP2 PUSH20 0xFFFFFFFFFFFFFFFFFFFFFFFFFFFFFFFFFFFFFFFF MUL NOT AND SWAP1 DUP4 PUSH20 0xFFFFFFFFFFFFFFFFFFFFFFFFFFFFFFFFFFFFFFFF AND MUL OR SWAP1 SSTORE POP PUSH2 0x2E2 DUP1 PUSH2 0x60 PUSH1 0x0 CODECOPY PUSH1 0x0 RETURN INVALID PUSH1 0x80 PUSH1 0x40 MSTORE CALLVALUE DUP1 ISZERO PUSH2 0x10 JUMPI PUSH1 0x0 DUP1 REVERT JUMPDEST POP PUSH1 0x4 CALLDATASIZE LT PUSH2 0x2B JUMPI PUSH1 0x0 CALLDATALOAD PUSH1 0xE0 SHR DUP1 PUSH4 0x5E0019D EQ PUSH2 0x30 JUMPI JUMPDEST PUSH1 0x0 DUP1 REVERT JUMPDEST PUSH2 0x4A PUSH1 0x4 DUP1 CALLDATASIZE SUB DUP2 ADD SWAP1 PUSH2 0x45 SWAP2 SWAP1 PUSH2 0x11A JUMP JUMPDEST PUSH2 0x60 JUMP JUMPDEST PUSH1 0x40 MLOAD PUSH2 0x57 SWAP2 SWAP1 PUSH2 0x1AC JUMP JUMPDEST PUSH1 0x40 MLOAD DUP1 SWAP2 SUB SWAP1 RETURN JUMPDEST PUSH1 0x0 DUP1 PUSH1 0x0 SWAP1 SLOAD SWAP1 PUSH2 0x100 EXP SWAP1 DIV PUSH20 0xFFFFFFFFFFFFFFFFFFFFFFFFFFFFFFFFFFFFFFFF AND PUSH20 0xFFFFFFFFFFFFFFFFFFFFFFFFFFFFFFFFFFFFFFFF AND CALLER PUSH20 0xFFFFFFFFFFFFFFFFFFFFFFFFFFFFFFFFFFFFFFFF AND EQ PUSH2 0xF1 JUMPI PUSH1 0x40 MLOAD PUSH32 0x8C379A000000000000000000000000000000000000000000000000000000000 DUP2 MSTORE PUSH1 0x4 ADD PUSH2 0xE8 SWAP1 PUSH2 0x18C JUMP JUMPDEST PUSH1 0x40 MLOAD DUP1 SWAP2 SUB SWAP1 REVERT JUMPDEST DUP2 DUP4 PUSH2 0xFD SWAP2 SWAP1 PUSH2 0x1D8 JUMP JUMPDEST SWAP1 POP SWAP3 SWAP2 POP POP JUMP JUMPDEST PUSH1 0x0 DUP2 CALLDATALOAD SWAP1 POP PUSH2 0x114 DUP2 PUSH2 0x295 JUMP JUMPDEST SWAP3 SWAP2 POP POP JUMP JUMPDEST PUSH1 0x0 DUP1 PUSH1 0x40 DUP4 DUP6 SUB SLT ISZERO PUSH2 0x131 JUMPI PUSH2 0x130 PUSH2 0x267 JUMP JUMPDEST JUMPDEST PUSH1 0x0 PUSH2 0x13F DUP6 DUP3 DUP7 ADD PUSH2 0x105 JUMP JUMPDEST SWAP3 POP POP PUSH1 0x20 PUSH2 0x150 DUP6 DUP3 DUP7 ADD PUSH2 0x105 JUMP JUMPDEST SWAP2 POP POP SWAP3 POP SWAP3 SWAP1 POP JUMP JUMPDEST PUSH1 0x0 PUSH2 0x167 PUSH1 0xA DUP4 PUSH2 0x1C7 JUMP JUMPDEST SWAP2 POP PUSH2 0x172 DUP3 PUSH2 0x26C JUMP JUMPDEST PUSH1 0x20 DUP3 ADD SWAP1 POP SWAP2 SWAP1 POP JUMP JUMPDEST PUSH2 0x186 DUP2 PUSH2 0x22E JUMP JUMPDEST DUP3 MSTORE POP POP JUMP JUMPDEST PUSH1 0x0 PUSH1 0x20 DUP3 ADD SWAP1 POP DUP2 DUP2 SUB PUSH1 0x0 DUP4 ADD MSTORE PUSH2 0x1A5 DUP2 PUSH2 0x15A JUMP JUMPDEST SWAP1 POP SWAP2 SWAP1 POP JUMP JUMPDEST PUSH1 0x0 PUSH1 0x20 DUP3 ADD SWAP1 POP PUSH2 0x1C1 PUSH1 0x0 DUP4 ADD DUP5 PUSH2 0x17D JUMP JUMPDEST SWAP3 SWAP2 POP POP JUMP JUMPDEST PUSH1 0x0 DUP3 DUP3 MSTORE PUSH1 0x20 DUP3 ADD SWAP1 POP SWAP3 SWAP2 POP POP JUMP JUMPDEST PUSH1 0x0 PUSH2 0x1E3 DUP3 PUSH2 0x22E JUMP JUMPDEST SWAP2 POP PUSH2 0x1EE DUP4 PUSH2 0x22E JUMP JUMPDEST SWAP3 POP DUP3 PUSH32 0xFFFFFFFFFFFFFFFFFFFFFFFFFFFFFFFFFFFFFFFFFFFFFFFFFFFFFFFFFFFFFFFF SUB DUP3 GT ISZERO PUSH2 0x223 JUMPI PUSH2 0x222 PUSH2 0x238 JUMP JUMPDEST JUMPDEST DUP3 DUP3 ADD SWAP1 POP SWAP3 SWAP2 POP POP JUMP JUMPDEST PUSH1 0x0 DUP2 SWAP1 POP SWAP2 SWAP1 POP JUMP JUMPDEST PUSH32 0x4E487B7100000000000000000000000000000000000000000000000000000000 PUSH1 0x0 MSTORE PUSH1 0x11 PUSH1 0x4 MSTORE PUSH1 0x24 PUSH1 0x0 REVERT JUMPDEST PUSH1 0x0 DUP1 REVERT JUMPDEST PUSH32 0x4F6E6C79204F776E657200000000000000000000000000000000000000000000 PUSH1 0x0 DUP3 ADD MSTORE POP JUMP JUMPDEST PUSH2 0x29E DUP2 PUSH2 0x22E JUMP JUMPDEST DUP2 EQ PUSH2 0x2A9 JUMPI PUSH1 0x0 DUP1 REVERT JUMPDEST POP JUMP INVALID LOG2 PUSH5 0x6970667358 0x22 SLT KECCAK256 SAR PUSH17 0xE6468AEB54CC962F3681B3A684295FB448 DUP10 0xBF RETURN 0xC5 SLT LT SWAP2 0xA8 0xEC SELFDESTRUCT PUSH11 0xF08B64736F6C6343000807 STOP CALLER "
				},
				"gasEstimates": {
					"creation": {
						"codeDepositCost": "147600",
						"executionCost": "24462",
						"totalCost": "172062"
					},
					"external": {
						"Suma(uint256,uint256)": "infinite"
					}
				},
				"methodIdentifiers": {
					"Suma(uint256,uint256)": "05e0019d"
				}
			},
			"userdoc": {
				"kind": "user",
				"methods": {},
				"version": 1
			}
		}
	}
}