{
	"Variados/Herencia.sol": {
		"Herencia": {
			"abi": [
				{
					"inputs": [],
					"stateMutability": "nonpayable",
					"type": "constructor"
				},
				{
					"inputs": [
						{
							"internalType": "uint256",
							"name": "numero1",
							"type": "uint256"
						},
						{
							"internalType": "uint256",
							"name": "numero2",
							"type": "uint256"
						}
					],
					"name": "Suma",
					"outputs": [
						{
							"internalType": "uint256",
							"name": "",
							"type": "uint256"
						}
					],
					"stateMutability": "view",
					"type": "function"
				},
				{
					"inputs": [],
					"name": "owner",
					"outputs": [
						{
							"internalType": "address",
							"name": "",
							"type": "address"
						}
					],
					"stateMutability": "view",
					"type": "function"
				},
				{
					"inputs": [
						{
							"internalType": "uint256",
							"name": "numero1",
							"type": "uint256"
						},
						{
							"internalType": "uint256",
							"name": "numero2",
							"type": "uint256"
						}
					],
					"name": "sumar",
					"outputs": [
						{
							"internalType": "uint256",
							"name": "",
							"type": "uint256"
						}
					],
					"stateMutability": "pure",
					"type": "function"
				}
			],
			"devdoc": {
				"kind": "dev",
				"methods": {},
				"version": 1
			},
			"evm": {
				"assembly": "    /* \"Variados/Herencia.sol\":122:340  contract Herencia is Suma , Modificadores{... */\n  mstore(0x40, 0x80)\n    /* \"Variados/Herencia.sol\":198:214  constructor() {} */\n  callvalue\n  dup1\n  iszero\n  tag_1\n  jumpi\n  0x00\n  dup1\n  revert\ntag_1:\n  pop\n    /* \"Variados/Modificadores.sol\":259:269  msg.sender */\n  caller\n    /* \"Variados/Modificadores.sol\":251:256  owner */\n  0x00\n  dup1\n    /* \"Variados/Modificadores.sol\":251:269  owner = msg.sender */\n  0x0100\n  exp\n  dup2\n  sload\n  dup2\n  0xffffffffffffffffffffffffffffffffffffffff\n  mul\n  not\n  and\n  swap1\n  dup4\n  0xffffffffffffffffffffffffffffffffffffffff\n  and\n  mul\n  or\n  swap1\n  sstore\n  pop\n    /* \"Variados/Herencia.sol\":122:340  contract Herencia is Suma , Modificadores{... */\n  dataSize(sub_0)\n  dup1\n  dataOffset(sub_0)\n  0x00\n  codecopy\n  0x00\n  return\nstop\n\nsub_0: assembly {\n        /* \"Variados/Herencia.sol\":122:340  contract Herencia is Suma , Modificadores{... */\n      mstore(0x40, 0x80)\n      callvalue\n      dup1\n      iszero\n      tag_1\n      jumpi\n      0x00\n      dup1\n      revert\n    tag_1:\n      pop\n      jumpi(tag_2, lt(calldatasize, 0x04))\n      shr(0xe0, calldataload(0x00))\n      dup1\n      0x05e0019d\n      eq\n      tag_3\n      jumpi\n      dup1\n      0x8da5cb5b\n      eq\n      tag_4\n      jumpi\n      dup1\n      0xfd61371e\n      eq\n      tag_5\n      jumpi\n    tag_2:\n      0x00\n      dup1\n      revert\n        /* \"Variados/Modificadores.sol\":282:407  function Suma(uint numero1 , uint numero2 ) public view onlyOnwer() returns(uint)  {... */\n    tag_3:\n      tag_6\n      0x04\n      dup1\n      calldatasize\n      sub\n      dup2\n      add\n      swap1\n      tag_7\n      swap2\n      swap1\n      tag_8\n      jump\t// in\n    tag_7:\n      tag_9\n      jump\t// in\n    tag_6:\n      mload(0x40)\n      tag_10\n      swap2\n      swap1\n      tag_11\n      jump\t// in\n    tag_10:\n      mload(0x40)\n      dup1\n      swap2\n      sub\n      swap1\n      return\n        /* \"Variados/Herencia.sol\":172:192  address public owner */\n    tag_4:\n      tag_12\n      tag_13\n      jump\t// in\n    tag_12:\n      mload(0x40)\n      tag_14\n      swap2\n      swap1\n      tag_15\n      jump\t// in\n    tag_14:\n      mload(0x40)\n      dup1\n      swap2\n      sub\n      swap1\n      return\n        /* \"Variados/Herencia.sol\":219:335  function sumar(uint numero1, uint numero2) public pure override returns(uint) {... */\n    tag_5:\n      tag_16\n      0x04\n      dup1\n      calldatasize\n      sub\n      dup2\n      add\n      swap1\n      tag_17\n      swap2\n      swap1\n      tag_8\n      jump\t// in\n    tag_17:\n      tag_18\n      jump\t// in\n    tag_16:\n      mload(0x40)\n      tag_19\n      swap2\n      swap1\n      tag_11\n      jump\t// in\n    tag_19:\n      mload(0x40)\n      dup1\n      swap2\n      sub\n      swap1\n      return\n        /* \"Variados/Modificadores.sol\":282:407  function Suma(uint numero1 , uint numero2 ) public view onlyOnwer() returns(uint)  {... */\n    tag_9:\n        /* \"Variados/Modificadores.sol\":358:362  uint */\n      0x00\n        /* \"Variados/Modificadores.sol\":186:191  owner */\n      dup1\n      0x00\n      swap1\n      sload\n      swap1\n      0x0100\n      exp\n      swap1\n      div\n      0xffffffffffffffffffffffffffffffffffffffff\n      and\n        /* \"Variados/Modificadores.sol\":171:191  msg.sender ==  owner */\n      0xffffffffffffffffffffffffffffffffffffffff\n      and\n        /* \"Variados/Modificadores.sol\":171:181  msg.sender */\n      caller\n        /* \"Variados/Modificadores.sol\":171:191  msg.sender ==  owner */\n      0xffffffffffffffffffffffffffffffffffffffff\n      and\n      eq\n        /* \"Variados/Modificadores.sol\":162:206  require( msg.sender ==  owner ,\"Only Owner\") */\n      tag_21\n      jumpi\n      mload(0x40)\n      0x08c379a000000000000000000000000000000000000000000000000000000000\n      dup2\n      mstore\n      0x04\n      add\n      tag_22\n      swap1\n      tag_23\n      jump\t// in\n    tag_22:\n      mload(0x40)\n      dup1\n      swap2\n      sub\n      swap1\n      revert\n    tag_21:\n        /* \"Variados/Modificadores.sol\":393:400  numero2 */\n      dup2\n        /* \"Variados/Modificadores.sol\":382:389  numero1 */\n      dup4\n        /* \"Variados/Modificadores.sol\":382:400  numero1  + numero2 */\n      tag_25\n      swap2\n      swap1\n      tag_26\n      jump\t// in\n    tag_25:\n        /* \"Variados/Modificadores.sol\":375:400  return numero1  + numero2 */\n      swap1\n      pop\n        /* \"Variados/Modificadores.sol\":282:407  function Suma(uint numero1 , uint numero2 ) public view onlyOnwer() returns(uint)  {... */\n      swap3\n      swap2\n      pop\n      pop\n      jump\t// out\n        /* \"Variados/Herencia.sol\":172:192  address public owner */\n    tag_13:\n      0x01\n      0x00\n      swap1\n      sload\n      swap1\n      0x0100\n      exp\n      swap1\n      div\n      0xffffffffffffffffffffffffffffffffffffffff\n      and\n      dup2\n      jump\t// out\n        /* \"Variados/Herencia.sol\":219:335  function sumar(uint numero1, uint numero2) public pure override returns(uint) {... */\n    tag_18:\n        /* \"Variados/Herencia.sol\":291:295  uint */\n      0x00\n        /* \"Variados/Herencia.sol\":321:328  numero2 */\n      dup2\n        /* \"Variados/Herencia.sol\":313:320  numero1 */\n      dup4\n        /* \"Variados/Herencia.sol\":313:328  numero1+numero2 */\n      tag_28\n      swap2\n      swap1\n      tag_26\n      jump\t// in\n    tag_28:\n        /* \"Variados/Herencia.sol\":306:328  return numero1+numero2 */\n      swap1\n      pop\n        /* \"Variados/Herencia.sol\":219:335  function sumar(uint numero1, uint numero2) public pure override returns(uint) {... */\n      swap3\n      swap2\n      pop\n      pop\n      jump\t// out\n        /* \"#utility.yul\":7:146   */\n    tag_30:\n        /* \"#utility.yul\":53:58   */\n      0x00\n        /* \"#utility.yul\":91:97   */\n      dup2\n        /* \"#utility.yul\":78:98   */\n      calldataload\n        /* \"#utility.yul\":69:98   */\n      swap1\n      pop\n        /* \"#utility.yul\":107:140   */\n      tag_32\n        /* \"#utility.yul\":134:139   */\n      dup2\n        /* \"#utility.yul\":107:140   */\n      tag_33\n      jump\t// in\n    tag_32:\n        /* \"#utility.yul\":7:146   */\n      swap3\n      swap2\n      pop\n      pop\n      jump\t// out\n        /* \"#utility.yul\":152:626   */\n    tag_8:\n        /* \"#utility.yul\":220:226   */\n      0x00\n        /* \"#utility.yul\":228:234   */\n      dup1\n        /* \"#utility.yul\":277:279   */\n      0x40\n        /* \"#utility.yul\":265:274   */\n      dup4\n        /* \"#utility.yul\":256:263   */\n      dup6\n        /* \"#utility.yul\":252:275   */\n      sub\n        /* \"#utility.yul\":248:280   */\n      slt\n        /* \"#utility.yul\":245:364   */\n      iszero\n      tag_35\n      jumpi\n        /* \"#utility.yul\":283:362   */\n      tag_36\n      tag_37\n      jump\t// in\n    tag_36:\n        /* \"#utility.yul\":245:364   */\n    tag_35:\n        /* \"#utility.yul\":403:404   */\n      0x00\n        /* \"#utility.yul\":428:481   */\n      tag_38\n        /* \"#utility.yul\":473:480   */\n      dup6\n        /* \"#utility.yul\":464:470   */\n      dup3\n        /* \"#utility.yul\":453:462   */\n      dup7\n        /* \"#utility.yul\":449:471   */\n      add\n        /* \"#utility.yul\":428:481   */\n      tag_30\n      jump\t// in\n    tag_38:\n        /* \"#utility.yul\":418:481   */\n      swap3\n      pop\n        /* \"#utility.yul\":374:491   */\n      pop\n        /* \"#utility.yul\":530:532   */\n      0x20\n        /* \"#utility.yul\":556:609   */\n      tag_39\n        /* \"#utility.yul\":601:608   */\n      dup6\n        /* \"#utility.yul\":592:598   */\n      dup3\n        /* \"#utility.yul\":581:590   */\n      dup7\n        /* \"#utility.yul\":577:599   */\n      add\n        /* \"#utility.yul\":556:609   */\n      tag_30\n      jump\t// in\n    tag_39:\n        /* \"#utility.yul\":546:609   */\n      swap2\n      pop\n        /* \"#utility.yul\":501:619   */\n      pop\n        /* \"#utility.yul\":152:626   */\n      swap3\n      pop\n      swap3\n      swap1\n      pop\n      jump\t// out\n        /* \"#utility.yul\":632:750   */\n    tag_40:\n        /* \"#utility.yul\":719:743   */\n      tag_42\n        /* \"#utility.yul\":737:742   */\n      dup2\n        /* \"#utility.yul\":719:743   */\n      tag_43\n      jump\t// in\n    tag_42:\n        /* \"#utility.yul\":714:717   */\n      dup3\n        /* \"#utility.yul\":707:744   */\n      mstore\n        /* \"#utility.yul\":632:750   */\n      pop\n      pop\n      jump\t// out\n        /* \"#utility.yul\":756:1122   */\n    tag_44:\n        /* \"#utility.yul\":898:901   */\n      0x00\n        /* \"#utility.yul\":919:986   */\n      tag_46\n        /* \"#utility.yul\":983:985   */\n      0x0a\n        /* \"#utility.yul\":978:981   */\n      dup4\n        /* \"#utility.yul\":919:986   */\n      tag_47\n      jump\t// in\n    tag_46:\n        /* \"#utility.yul\":912:986   */\n      swap2\n      pop\n        /* \"#utility.yul\":995:1088   */\n      tag_48\n        /* \"#utility.yul\":1084:1087   */\n      dup3\n        /* \"#utility.yul\":995:1088   */\n      tag_49\n      jump\t// in\n    tag_48:\n        /* \"#utility.yul\":1113:1115   */\n      0x20\n        /* \"#utility.yul\":1108:1111   */\n      dup3\n        /* \"#utility.yul\":1104:1116   */\n      add\n        /* \"#utility.yul\":1097:1116   */\n      swap1\n      pop\n        /* \"#utility.yul\":756:1122   */\n      swap2\n      swap1\n      pop\n      jump\t// out\n        /* \"#utility.yul\":1128:1246   */\n    tag_50:\n        /* \"#utility.yul\":1215:1239   */\n      tag_52\n        /* \"#utility.yul\":1233:1238   */\n      dup2\n        /* \"#utility.yul\":1215:1239   */\n      tag_53\n      jump\t// in\n    tag_52:\n        /* \"#utility.yul\":1210:1213   */\n      dup3\n        /* \"#utility.yul\":1203:1240   */\n      mstore\n        /* \"#utility.yul\":1128:1246   */\n      pop\n      pop\n      jump\t// out\n        /* \"#utility.yul\":1252:1474   */\n    tag_15:\n        /* \"#utility.yul\":1345:1349   */\n      0x00\n        /* \"#utility.yul\":1383:1385   */\n      0x20\n        /* \"#utility.yul\":1372:1381   */\n      dup3\n        /* \"#utility.yul\":1368:1386   */\n      add\n        /* \"#utility.yul\":1360:1386   */\n      swap1\n      pop\n        /* \"#utility.yul\":1396:1467   */\n      tag_55\n        /* \"#utility.yul\":1464:1465   */\n      0x00\n        /* \"#utility.yul\":1453:1462   */\n      dup4\n        /* \"#utility.yul\":1449:1466   */\n      add\n        /* \"#utility.yul\":1440:1446   */\n      dup5\n        /* \"#utility.yul\":1396:1467   */\n      tag_40\n      jump\t// in\n    tag_55:\n        /* \"#utility.yul\":1252:1474   */\n      swap3\n      swap2\n      pop\n      pop\n      jump\t// out\n        /* \"#utility.yul\":1480:1899   */\n    tag_23:\n        /* \"#utility.yul\":1646:1650   */\n      0x00\n        /* \"#utility.yul\":1684:1686   */\n      0x20\n        /* \"#utility.yul\":1673:1682   */\n      dup3\n        /* \"#utility.yul\":1669:1687   */\n      add\n        /* \"#utility.yul\":1661:1687   */\n      swap1\n      pop\n        /* \"#utility.yul\":1733:1742   */\n      dup2\n        /* \"#utility.yul\":1727:1731   */\n      dup2\n        /* \"#utility.yul\":1723:1743   */\n      sub\n        /* \"#utility.yul\":1719:1720   */\n      0x00\n        /* \"#utility.yul\":1708:1717   */\n      dup4\n        /* \"#utility.yul\":1704:1721   */\n      add\n        /* \"#utility.yul\":1697:1744   */\n      mstore\n        /* \"#utility.yul\":1761:1892   */\n      tag_57\n        /* \"#utility.yul\":1887:1891   */\n      dup2\n        /* \"#utility.yul\":1761:1892   */\n      tag_44\n      jump\t// in\n    tag_57:\n        /* \"#utility.yul\":1753:1892   */\n      swap1\n      pop\n        /* \"#utility.yul\":1480:1899   */\n      swap2\n      swap1\n      pop\n      jump\t// out\n        /* \"#utility.yul\":1905:2127   */\n    tag_11:\n        /* \"#utility.yul\":1998:2002   */\n      0x00\n        /* \"#utility.yul\":2036:2038   */\n      0x20\n        /* \"#utility.yul\":2025:2034   */\n      dup3\n        /* \"#utility.yul\":2021:2039   */\n      add\n        /* \"#utility.yul\":2013:2039   */\n      swap1\n      pop\n        /* \"#utility.yul\":2049:2120   */\n      tag_59\n        /* \"#utility.yul\":2117:2118   */\n      0x00\n        /* \"#utility.yul\":2106:2115   */\n      dup4\n        /* \"#utility.yul\":2102:2119   */\n      add\n        /* \"#utility.yul\":2093:2099   */\n      dup5\n        /* \"#utility.yul\":2049:2120   */\n      tag_50\n      jump\t// in\n    tag_59:\n        /* \"#utility.yul\":1905:2127   */\n      swap3\n      swap2\n      pop\n      pop\n      jump\t// out\n        /* \"#utility.yul\":2214:2383   */\n    tag_47:\n        /* \"#utility.yul\":2298:2309   */\n      0x00\n        /* \"#utility.yul\":2332:2338   */\n      dup3\n        /* \"#utility.yul\":2327:2330   */\n      dup3\n        /* \"#utility.yul\":2320:2339   */\n      mstore\n        /* \"#utility.yul\":2372:2376   */\n      0x20\n        /* \"#utility.yul\":2367:2370   */\n      dup3\n        /* \"#utility.yul\":2363:2377   */\n      add\n        /* \"#utility.yul\":2348:2377   */\n      swap1\n      pop\n        /* \"#utility.yul\":2214:2383   */\n      swap3\n      swap2\n      pop\n      pop\n      jump\t// out\n        /* \"#utility.yul\":2389:2694   */\n    tag_26:\n        /* \"#utility.yul\":2429:2432   */\n      0x00\n        /* \"#utility.yul\":2448:2468   */\n      tag_64\n        /* \"#utility.yul\":2466:2467   */\n      dup3\n        /* \"#utility.yul\":2448:2468   */\n      tag_53\n      jump\t// in\n    tag_64:\n        /* \"#utility.yul\":2443:2468   */\n      swap2\n      pop\n        /* \"#utility.yul\":2482:2502   */\n      tag_65\n        /* \"#utility.yul\":2500:2501   */\n      dup4\n        /* \"#utility.yul\":2482:2502   */\n      tag_53\n      jump\t// in\n    tag_65:\n        /* \"#utility.yul\":2477:2502   */\n      swap3\n      pop\n        /* \"#utility.yul\":2636:2637   */\n      dup3\n        /* \"#utility.yul\":2568:2634   */\n      0xffffffffffffffffffffffffffffffffffffffffffffffffffffffffffffffff\n        /* \"#utility.yul\":2564:2638   */\n      sub\n        /* \"#utility.yul\":2561:2562   */\n      dup3\n        /* \"#utility.yul\":2558:2639   */\n      gt\n        /* \"#utility.yul\":2555:2662   */\n      iszero\n      tag_66\n      jumpi\n        /* \"#utility.yul\":2642:2660   */\n      tag_67\n      tag_68\n      jump\t// in\n    tag_67:\n        /* \"#utility.yul\":2555:2662   */\n    tag_66:\n        /* \"#utility.yul\":2686:2687   */\n      dup3\n        /* \"#utility.yul\":2683:2684   */\n      dup3\n        /* \"#utility.yul\":2679:2688   */\n      add\n        /* \"#utility.yul\":2672:2688   */\n      swap1\n      pop\n        /* \"#utility.yul\":2389:2694   */\n      swap3\n      swap2\n      pop\n      pop\n      jump\t// out\n        /* \"#utility.yul\":2700:2796   */\n    tag_43:\n        /* \"#utility.yul\":2737:2744   */\n      0x00\n        /* \"#utility.yul\":2766:2790   */\n      tag_70\n        /* \"#utility.yul\":2784:2789   */\n      dup3\n        /* \"#utility.yul\":2766:2790   */\n      tag_71\n      jump\t// in\n    tag_70:\n        /* \"#utility.yul\":2755:2790   */\n      swap1\n      pop\n        /* \"#utility.yul\":2700:2796   */\n      swap2\n      swap1\n      pop\n      jump\t// out\n        /* \"#utility.yul\":2802:2928   */\n    tag_71:\n        /* \"#utility.yul\":2839:2846   */\n      0x00\n        /* \"#utility.yul\":2879:2921   */\n      0xffffffffffffffffffffffffffffffffffffffff\n        /* \"#utility.yul\":2872:2877   */\n      dup3\n        /* \"#utility.yul\":2868:2922   */\n      and\n        /* \"#utility.yul\":2857:2922   */\n      swap1\n      pop\n        /* \"#utility.yul\":2802:2928   */\n      swap2\n      swap1\n      pop\n      jump\t// out\n        /* \"#utility.yul\":2934:3011   */\n    tag_53:\n        /* \"#utility.yul\":2971:2978   */\n      0x00\n        /* \"#utility.yul\":3000:3005   */\n      dup2\n        /* \"#utility.yul\":2989:3005   */\n      swap1\n      pop\n        /* \"#utility.yul\":2934:3011   */\n      swap2\n      swap1\n      pop\n      jump\t// out\n        /* \"#utility.yul\":3017:3197   */\n    tag_68:\n        /* \"#utility.yul\":3065:3142   */\n      0x4e487b7100000000000000000000000000000000000000000000000000000000\n        /* \"#utility.yul\":3062:3063   */\n      0x00\n        /* \"#utility.yul\":3055:3143   */\n      mstore\n        /* \"#utility.yul\":3162:3166   */\n      0x11\n        /* \"#utility.yul\":3159:3160   */\n      0x04\n        /* \"#utility.yul\":3152:3167   */\n      mstore\n        /* \"#utility.yul\":3186:3190   */\n      0x24\n        /* \"#utility.yul\":3183:3184   */\n      0x00\n        /* \"#utility.yul\":3176:3191   */\n      revert\n        /* \"#utility.yul\":3326:3443   */\n    tag_37:\n        /* \"#utility.yul\":3435:3436   */\n      0x00\n        /* \"#utility.yul\":3432:3433   */\n      dup1\n        /* \"#utility.yul\":3425:3437   */\n      revert\n        /* \"#utility.yul\":3449:3609   */\n    tag_49:\n        /* \"#utility.yul\":3589:3601   */\n      0x4f6e6c79204f776e657200000000000000000000000000000000000000000000\n        /* \"#utility.yul\":3585:3586   */\n      0x00\n        /* \"#utility.yul\":3577:3583   */\n      dup3\n        /* \"#utility.yul\":3573:3587   */\n      add\n        /* \"#utility.yul\":3566:3602   */\n      mstore\n        /* \"#utility.yul\":3449:3609   */\n      pop\n      jump\t// out\n        /* \"#utility.yul\":3615:3737   */\n    tag_33:\n        /* \"#utility.yul\":3688:3712   */\n      tag_80\n        /* \"#utility.yul\":3706:3711   */\n      dup2\n        /* \"#utility.yul\":3688:3712   */\n      tag_53\n      jump\t// in\n    tag_80:\n        /* \"#utility.yul\":3681:3686   */\n      dup2\n        /* \"#utility.yul\":3678:3713   */\n      eq\n        /* \"#utility.yul\":3668:3731   */\n      tag_81\n      jumpi\n        /* \"#utility.yul\":3727:3728   */\n      0x00\n        /* \"#utility.yul\":3724:3725   */\n      dup1\n        /* \"#utility.yul\":3717:3729   */\n      revert\n        /* \"#utility.yul\":3668:3731   */\n    tag_81:\n        /* \"#utility.yul\":3615:3737   */\n      pop\n      jump\t// out\n\n    auxdata: 0xa26469706673582212209867b6524da4b824965a47de372f96f399823f0efa0cbc19f11884fa83e3491264736f6c63430008070033\n}\n",
				"bytecode": {
					"linkReferences": {},
					"object": "608060405234801561001057600080fd5b50336000806101000a81548173ffffffffffffffffffffffffffffffffffffffff021916908373ffffffffffffffffffffffffffffffffffffffff1602179055506103de806100606000396000f3fe608060405234801561001057600080fd5b50600436106100415760003560e01c806305e0019d146100465780638da5cb5b14610076578063fd61371e14610094575b600080fd5b610060600480360381019061005b91906101ba565b6100c4565b60405161006d9190610276565b60405180910390f35b61007e610169565b60405161008b919061023b565b60405180910390f35b6100ae60048036038101906100a991906101ba565b61018f565b6040516100bb9190610276565b60405180910390f35b60008060009054906101000a900473ffffffffffffffffffffffffffffffffffffffff1673ffffffffffffffffffffffffffffffffffffffff163373ffffffffffffffffffffffffffffffffffffffff1614610155576040517f08c379a000000000000000000000000000000000000000000000000000000000815260040161014c90610256565b60405180910390fd5b818361016191906102a2565b905092915050565b600160009054906101000a900473ffffffffffffffffffffffffffffffffffffffff1681565b6000818361019d91906102a2565b905092915050565b6000813590506101b481610391565b92915050565b600080604083850312156101d1576101d0610363565b5b60006101df858286016101a5565b92505060206101f0858286016101a5565b9150509250929050565b610203816102f8565b82525050565b6000610216600a83610291565b915061022182610368565b602082019050919050565b6102358161032a565b82525050565b600060208201905061025060008301846101fa565b92915050565b6000602082019050818103600083015261026f81610209565b9050919050565b600060208201905061028b600083018461022c565b92915050565b600082825260208201905092915050565b60006102ad8261032a565b91506102b88361032a565b9250827fffffffffffffffffffffffffffffffffffffffffffffffffffffffffffffffff038211156102ed576102ec610334565b5b828201905092915050565b60006103038261030a565b9050919050565b600073ffffffffffffffffffffffffffffffffffffffff82169050919050565b6000819050919050565b7f4e487b7100000000000000000000000000000000000000000000000000000000600052601160045260246000fd5b600080fd5b7f4f6e6c79204f776e657200000000000000000000000000000000000000000000600082015250565b61039a8161032a565b81146103a557600080fd5b5056fea26469706673582212209867b6524da4b824965a47de372f96f399823f0efa0cbc19f11884fa83e3491264736f6c63430008070033",
					"opcodes": "PUSH1 0x80 PUSH1 0x40 MSTORE CALLVALUE DUP1 ISZERO PUSH2 0x10 JUMPI PUSH1 0x0 DUP1 REVERT JUMPDEST POP CALLER PUSH1 0x0 DUP1 PUSH2 0x100 EXP DUP2 SLOAD DUP2 PUSH20 0xFFFFFFFFFFFFFFFFFFFFFFFFFFFFFFFFFFFFFFFF MUL NOT AND SWAP1 DUP4 PUSH20 0xFFFFFFFFFFFFFFFFFFFFFFFFFFFFFFFFFFFFFFFF AND MUL OR SWAP1 SSTORE POP PUSH2 0x3DE DUP1 PUSH2 0x60 PUSH1 0x0 CODECOPY PUSH1 0x0 RETURN INVALID PUSH1 0x80 PUSH1 0x40 MSTORE CALLVALUE DUP1 ISZERO PUSH2 0x10 JUMPI PUSH1 0x0 DUP1 REVERT JUMPDEST POP PUSH1 0x4 CALLDATASIZE LT PUSH2 0x41 JUMPI PUSH1 0x0 CALLDATALOAD PUSH1 0xE0 SHR DUP1 PUSH4 0x5E0019D EQ PUSH2 0x46 JUMPI DUP1 PUSH4 0x8DA5CB5B EQ PUSH2 0x76 JUMPI DUP1 PUSH4 0xFD61371E EQ PUSH2 0x94 JUMPI JUMPDEST PUSH1 0x0 DUP1 REVERT JUMPDEST PUSH2 0x60 PUSH1 0x4 DUP1 CALLDATASIZE SUB DUP2 ADD SWAP1 PUSH2 0x5B SWAP2 SWAP1 PUSH2 0x1BA JUMP JUMPDEST PUSH2 0xC4 JUMP JUMPDEST PUSH1 0x40 MLOAD PUSH2 0x6D SWAP2 SWAP1 PUSH2 0x276 JUMP JUMPDEST PUSH1 0x40 MLOAD DUP1 SWAP2 SUB SWAP1 RETURN JUMPDEST PUSH2 0x7E PUSH2 0x169 JUMP JUMPDEST PUSH1 0x40 MLOAD PUSH2 0x8B SWAP2 SWAP1 PUSH2 0x23B JUMP JUMPDEST PUSH1 0x40 MLOAD DUP1 SWAP2 SUB SWAP1 RETURN JUMPDEST PUSH2 0xAE PUSH1 0x4 DUP1 CALLDATASIZE SUB DUP2 ADD SWAP1 PUSH2 0xA9 SWAP2 SWAP1 PUSH2 0x1BA JUMP JUMPDEST PUSH2 0x18F JUMP JUMPDEST PUSH1 0x40 MLOAD PUSH2 0xBB SWAP2 SWAP1 PUSH2 0x276 JUMP JUMPDEST PUSH1 0x40 MLOAD DUP1 SWAP2 SUB SWAP1 RETURN JUMPDEST PUSH1 0x0 DUP1 PUSH1 0x0 SWAP1 SLOAD SWAP1 PUSH2 0x100 EXP SWAP1 DIV PUSH20 0xFFFFFFFFFFFFFFFFFFFFFFFFFFFFFFFFFFFFFFFF AND PUSH20 0xFFFFFFFFFFFFFFFFFFFFFFFFFFFFFFFFFFFFFFFF AND CALLER PUSH20 0xFFFFFFFFFFFFFFFFFFFFFFFFFFFFFFFFFFFFFFFF AND EQ PUSH2 0x155 JUMPI PUSH1 0x40 MLOAD PUSH32 0x8C379A000000000000000000000000000000000000000000000000000000000 DUP2 MSTORE PUSH1 0x4 ADD PUSH2 0x14C SWAP1 PUSH2 0x256 JUMP JUMPDEST PUSH1 0x40 MLOAD DUP1 SWAP2 SUB SWAP1 REVERT JUMPDEST DUP2 DUP4 PUSH2 0x161 SWAP2 SWAP1 PUSH2 0x2A2 JUMP JUMPDEST SWAP1 POP SWAP3 SWAP2 POP POP JUMP JUMPDEST PUSH1 0x1 PUSH1 0x0 SWAP1 SLOAD SWAP1 PUSH2 0x100 EXP SWAP1 DIV PUSH20 0xFFFFFFFFFFFFFFFFFFFFFFFFFFFFFFFFFFFFFFFF AND DUP2 JUMP JUMPDEST PUSH1 0x0 DUP2 DUP4 PUSH2 0x19D SWAP2 SWAP1 PUSH2 0x2A2 JUMP JUMPDEST SWAP1 POP SWAP3 SWAP2 POP POP JUMP JUMPDEST PUSH1 0x0 DUP2 CALLDATALOAD SWAP1 POP PUSH2 0x1B4 DUP2 PUSH2 0x391 JUMP JUMPDEST SWAP3 SWAP2 POP POP JUMP JUMPDEST PUSH1 0x0 DUP1 PUSH1 0x40 DUP4 DUP6 SUB SLT ISZERO PUSH2 0x1D1 JUMPI PUSH2 0x1D0 PUSH2 0x363 JUMP JUMPDEST JUMPDEST PUSH1 0x0 PUSH2 0x1DF DUP6 DUP3 DUP7 ADD PUSH2 0x1A5 JUMP JUMPDEST SWAP3 POP POP PUSH1 0x20 PUSH2 0x1F0 DUP6 DUP3 DUP7 ADD PUSH2 0x1A5 JUMP JUMPDEST SWAP2 POP POP SWAP3 POP SWAP3 SWAP1 POP JUMP JUMPDEST PUSH2 0x203 DUP2 PUSH2 0x2F8 JUMP JUMPDEST DUP3 MSTORE POP POP JUMP JUMPDEST PUSH1 0x0 PUSH2 0x216 PUSH1 0xA DUP4 PUSH2 0x291 JUMP JUMPDEST SWAP2 POP PUSH2 0x221 DUP3 PUSH2 0x368 JUMP JUMPDEST PUSH1 0x20 DUP3 ADD SWAP1 POP SWAP2 SWAP1 POP JUMP JUMPDEST PUSH2 0x235 DUP2 PUSH2 0x32A JUMP JUMPDEST DUP3 MSTORE POP POP JUMP JUMPDEST PUSH1 0x0 PUSH1 0x20 DUP3 ADD SWAP1 POP PUSH2 0x250 PUSH1 0x0 DUP4 ADD DUP5 PUSH2 0x1FA JUMP JUMPDEST SWAP3 SWAP2 POP POP JUMP JUMPDEST PUSH1 0x0 PUSH1 0x20 DUP3 ADD SWAP1 POP DUP2 DUP2 SUB PUSH1 0x0 DUP4 ADD MSTORE PUSH2 0x26F DUP2 PUSH2 0x209 JUMP JUMPDEST SWAP1 POP SWAP2 SWAP1 POP JUMP JUMPDEST PUSH1 0x0 PUSH1 0x20 DUP3 ADD SWAP1 POP PUSH2 0x28B PUSH1 0x0 DUP4 ADD DUP5 PUSH2 0x22C JUMP JUMPDEST SWAP3 SWAP2 POP POP JUMP JUMPDEST PUSH1 0x0 DUP3 DUP3 MSTORE PUSH1 0x20 DUP3 ADD SWAP1 POP SWAP3 SWAP2 POP POP JUMP JUMPDEST PUSH1 0x0 PUSH2 0x2AD DUP3 PUSH2 0x32A JUMP JUMPDEST SWAP2 POP PUSH2 0x2B8 DUP4 PUSH2 0x32A JUMP JUMPDEST SWAP3 POP DUP3 PUSH32 0xFFFFFFFFFFFFFFFFFFFFFFFFFFFFFFFFFFFFFFFFFFFFFFFFFFFFFFFFFFFFFFFF SUB DUP3 GT ISZERO PUSH2 0x2ED JUMPI PUSH2 0x2EC PUSH2 0x334 JUMP JUMPDEST JUMPDEST DUP3 DUP3 ADD SWAP1 POP SWAP3 SWAP2 POP POP JUMP JUMPDEST PUSH1 0x0 PUSH2 0x303 DUP3 PUSH2 0x30A JUMP JUMPDEST SWAP1 POP SWAP2 SWAP1 POP JUMP JUMPDEST PUSH1 0x0 PUSH20 0xFFFFFFFFFFFFFFFFFFFFFFFFFFFFFFFFFFFFFFFF DUP3 AND SWAP1 POP SWAP2 SWAP1 POP JUMP JUMPDEST PUSH1 0x0 DUP2 SWAP1 POP SWAP2 SWAP1 POP JUMP JUMPDEST PUSH32 0x4E487B7100000000000000000000000000000000000000000000000000000000 PUSH1 0x0 MSTORE PUSH1 0x11 PUSH1 0x4 MSTORE PUSH1 0x24 PUSH1 0x0 REVERT JUMPDEST PUSH1 0x0 DUP1 REVERT JUMPDEST PUSH32 0x4F6E6C79204F776E657200000000000000000000000000000000000000000000 PUSH1 0x0 DUP3 ADD MSTORE POP JUMP JUMPDEST PUSH2 0x39A DUP2 PUSH2 0x32A JUMP JUMPDEST DUP2 EQ PUSH2 0x3A5 JUMPI PUSH1 0x0 DUP1 REVERT JUMPDEST POP JUMP INVALID LOG2 PUSH5 0x6970667358 0x22 SLT KECCAK256 SWAP9 PUSH8 0xB6524DA4B824965A SELFBALANCE 0xDE CALLDATACOPY 0x2F SWAP7 RETURN SWAP10 DUP3 EXTCODEHASH 0xE STATICCALL 0xC 0xBC NOT CALL XOR DUP5 STATICCALL DUP4 0xE3 0x49 SLT PUSH5 0x736F6C6343 STOP ADDMOD SMOD STOP CALLER "
				},
				"gasEstimates": {
					"creation": {
						"codeDepositCost": "198000",
						"executionCost": "24504",
						"totalCost": "222504"
					},
					"external": {
						"Suma(uint256,uint256)": "infinite",
						"owner()": "2514",
						"sumar(uint256,uint256)": "infinite"
					}
				},
				"methodIdentifiers": {
					"Suma(uint256,uint256)": "05e0019d",
					"owner()": "8da5cb5b",
					"sumar(uint256,uint256)": "fd61371e"
				}
			},
			"userdoc": {
				"kind": "user",
				"methods": {},
				"version": 1
			}
		}
	}
}