{
	"Variados/Modificaciones.sol": {
		"Modificadores": {
			"abi": [
				{
					"inputs": [],
					"stateMutability": "nonpayable",
					"type": "constructor"
				},
				{
					"inputs": [
						{
							"internalType": "uint256",
							"name": "numero1",
							"type": "uint256"
						},
						{
							"internalType": "uint256",
							"name": "numero2",
							"type": "uint256"
						}
					],
					"name": "Suma",
					"outputs": [
						{
							"internalType": "uint256",
							"name": "",
							"type": "uint256"
						}
					],
					"stateMutability": "pure",
					"type": "function"
				},
				{
					"inputs": [
						{
							"internalType": "address",
							"name": "",
							"type": "address"
						}
					],
					"name": "balance",
					"outputs": [
						{
							"internalType": "uint256",
							"name": "",
							"type": "uint256"
						}
					],
					"stateMutability": "view",
					"type": "function"
				},
				{
					"inputs": [],
					"name": "estadoDelContrato",
					"outputs": [
						{
							"internalType": "enum Modificadores.Estado",
							"name": "",
							"type": "uint8"
						}
					],
					"stateMutability": "view",
					"type": "function"
				}
			],
			"devdoc": {
				"kind": "dev",
				"methods": {},
				"version": 1
			},
			"evm": {
				"assembly": "    /* \"Variados/Modificaciones.sol\":69:345  contract Modificadores {... */\n  mstore(0x40, 0x80)\n    /* \"Variados/Modificaciones.sol\":230:250  constructor(){... */\n  callvalue\n  dup1\n  iszero\n  tag_1\n  jumpi\n  0x00\n  dup1\n  revert\ntag_1:\n  pop\n    /* \"Variados/Modificaciones.sol\":69:345  contract Modificadores {... */\n  dataSize(sub_0)\n  dup1\n  dataOffset(sub_0)\n  0x00\n  codecopy\n  0x00\n  return\nstop\n\nsub_0: assembly {\n        /* \"Variados/Modificaciones.sol\":69:345  contract Modificadores {... */\n      mstore(0x40, 0x80)\n      callvalue\n      dup1\n      iszero\n      tag_1\n      jumpi\n      0x00\n      dup1\n      revert\n    tag_1:\n      pop\n      jumpi(tag_2, lt(calldatasize, 0x04))\n      shr(0xe0, calldataload(0x00))\n      dup1\n      0x0594cc69\n      eq\n      tag_3\n      jumpi\n      dup1\n      0x05e0019d\n      eq\n      tag_4\n      jumpi\n      dup1\n      0xe3d670d7\n      eq\n      tag_5\n      jumpi\n    tag_2:\n      0x00\n      dup1\n      revert\n        /* \"Variados/Modificaciones.sol\":192:223  Estado public estadoDelContrato */\n    tag_3:\n      tag_6\n      tag_7\n      jump\t// in\n    tag_6:\n      mload(0x40)\n      tag_8\n      swap2\n      swap1\n      tag_9\n      jump\t// in\n    tag_8:\n      mload(0x40)\n      dup1\n      swap2\n      sub\n      swap1\n      return\n        /* \"Variados/Modificaciones.sol\":256:342  function Suma(uint numero1 , uint numero2 ) public pure returns(uint) {... */\n    tag_4:\n      tag_10\n      0x04\n      dup1\n      calldatasize\n      sub\n      dup2\n      add\n      swap1\n      tag_11\n      swap2\n      swap1\n      tag_12\n      jump\t// in\n    tag_11:\n      tag_13\n      jump\t// in\n    tag_10:\n      mload(0x40)\n      tag_14\n      swap2\n      swap1\n      tag_15\n      jump\t// in\n    tag_14:\n      mload(0x40)\n      dup1\n      swap2\n      sub\n      swap1\n      return\n        /* \"Variados/Modificaciones.sol\":99:139  mapping(address => uint ) public balance */\n    tag_5:\n      tag_16\n      0x04\n      dup1\n      calldatasize\n      sub\n      dup2\n      add\n      swap1\n      tag_17\n      swap2\n      swap1\n      tag_18\n      jump\t// in\n    tag_17:\n      tag_19\n      jump\t// in\n    tag_16:\n      mload(0x40)\n      tag_20\n      swap2\n      swap1\n      tag_15\n      jump\t// in\n    tag_20:\n      mload(0x40)\n      dup1\n      swap2\n      sub\n      swap1\n      return\n        /* \"Variados/Modificaciones.sol\":192:223  Estado public estadoDelContrato */\n    tag_7:\n      0x01\n      0x00\n      swap1\n      sload\n      swap1\n      0x0100\n      exp\n      swap1\n      div\n      0xff\n      and\n      dup2\n      jump\t// out\n        /* \"Variados/Modificaciones.sol\":256:342  function Suma(uint numero1 , uint numero2 ) public pure returns(uint) {... */\n    tag_13:\n        /* \"Variados/Modificaciones.sol\":320:324  uint */\n      0x00\n        /* \"Variados/Modificaciones.sol\":256:342  function Suma(uint numero1 , uint numero2 ) public pure returns(uint) {... */\n      swap3\n      swap2\n      pop\n      pop\n      jump\t// out\n        /* \"Variados/Modificaciones.sol\":99:139  mapping(address => uint ) public balance */\n    tag_19:\n      mstore(0x20, 0x00)\n      dup1\n      0x00\n      mstore\n      keccak256(0x00, 0x40)\n      0x00\n      swap2\n      pop\n      swap1\n      pop\n      sload\n      dup2\n      jump\t// out\n        /* \"#utility.yul\":7:146   */\n    tag_23:\n        /* \"#utility.yul\":53:58   */\n      0x00\n        /* \"#utility.yul\":91:97   */\n      dup2\n        /* \"#utility.yul\":78:98   */\n      calldataload\n        /* \"#utility.yul\":69:98   */\n      swap1\n      pop\n        /* \"#utility.yul\":107:140   */\n      tag_25\n        /* \"#utility.yul\":134:139   */\n      dup2\n        /* \"#utility.yul\":107:140   */\n      tag_26\n      jump\t// in\n    tag_25:\n        /* \"#utility.yul\":7:146   */\n      swap3\n      swap2\n      pop\n      pop\n      jump\t// out\n        /* \"#utility.yul\":152:291   */\n    tag_27:\n        /* \"#utility.yul\":198:203   */\n      0x00\n        /* \"#utility.yul\":236:242   */\n      dup2\n        /* \"#utility.yul\":223:243   */\n      calldataload\n        /* \"#utility.yul\":214:243   */\n      swap1\n      pop\n        /* \"#utility.yul\":252:285   */\n      tag_29\n        /* \"#utility.yul\":279:284   */\n      dup2\n        /* \"#utility.yul\":252:285   */\n      tag_30\n      jump\t// in\n    tag_29:\n        /* \"#utility.yul\":152:291   */\n      swap3\n      swap2\n      pop\n      pop\n      jump\t// out\n        /* \"#utility.yul\":297:626   */\n    tag_18:\n        /* \"#utility.yul\":356:362   */\n      0x00\n        /* \"#utility.yul\":405:407   */\n      0x20\n        /* \"#utility.yul\":393:402   */\n      dup3\n        /* \"#utility.yul\":384:391   */\n      dup5\n        /* \"#utility.yul\":380:403   */\n      sub\n        /* \"#utility.yul\":376:408   */\n      slt\n        /* \"#utility.yul\":373:492   */\n      iszero\n      tag_32\n      jumpi\n        /* \"#utility.yul\":411:490   */\n      tag_33\n      tag_34\n      jump\t// in\n    tag_33:\n        /* \"#utility.yul\":373:492   */\n    tag_32:\n        /* \"#utility.yul\":531:532   */\n      0x00\n        /* \"#utility.yul\":556:609   */\n      tag_35\n        /* \"#utility.yul\":601:608   */\n      dup5\n        /* \"#utility.yul\":592:598   */\n      dup3\n        /* \"#utility.yul\":581:590   */\n      dup6\n        /* \"#utility.yul\":577:599   */\n      add\n        /* \"#utility.yul\":556:609   */\n      tag_23\n      jump\t// in\n    tag_35:\n        /* \"#utility.yul\":546:609   */\n      swap2\n      pop\n        /* \"#utility.yul\":502:619   */\n      pop\n        /* \"#utility.yul\":297:626   */\n      swap3\n      swap2\n      pop\n      pop\n      jump\t// out\n        /* \"#utility.yul\":632:1106   */\n    tag_12:\n        /* \"#utility.yul\":700:706   */\n      0x00\n        /* \"#utility.yul\":708:714   */\n      dup1\n        /* \"#utility.yul\":757:759   */\n      0x40\n        /* \"#utility.yul\":745:754   */\n      dup4\n        /* \"#utility.yul\":736:743   */\n      dup6\n        /* \"#utility.yul\":732:755   */\n      sub\n        /* \"#utility.yul\":728:760   */\n      slt\n        /* \"#utility.yul\":725:844   */\n      iszero\n      tag_37\n      jumpi\n        /* \"#utility.yul\":763:842   */\n      tag_38\n      tag_34\n      jump\t// in\n    tag_38:\n        /* \"#utility.yul\":725:844   */\n    tag_37:\n        /* \"#utility.yul\":883:884   */\n      0x00\n        /* \"#utility.yul\":908:961   */\n      tag_39\n        /* \"#utility.yul\":953:960   */\n      dup6\n        /* \"#utility.yul\":944:950   */\n      dup3\n        /* \"#utility.yul\":933:942   */\n      dup7\n        /* \"#utility.yul\":929:951   */\n      add\n        /* \"#utility.yul\":908:961   */\n      tag_27\n      jump\t// in\n    tag_39:\n        /* \"#utility.yul\":898:961   */\n      swap3\n      pop\n        /* \"#utility.yul\":854:971   */\n      pop\n        /* \"#utility.yul\":1010:1012   */\n      0x20\n        /* \"#utility.yul\":1036:1089   */\n      tag_40\n        /* \"#utility.yul\":1081:1088   */\n      dup6\n        /* \"#utility.yul\":1072:1078   */\n      dup3\n        /* \"#utility.yul\":1061:1070   */\n      dup7\n        /* \"#utility.yul\":1057:1079   */\n      add\n        /* \"#utility.yul\":1036:1089   */\n      tag_27\n      jump\t// in\n    tag_40:\n        /* \"#utility.yul\":1026:1089   */\n      swap2\n      pop\n        /* \"#utility.yul\":981:1099   */\n      pop\n        /* \"#utility.yul\":632:1106   */\n      swap3\n      pop\n      swap3\n      swap1\n      pop\n      jump\t// out\n        /* \"#utility.yul\":1112:1255   */\n    tag_41:\n        /* \"#utility.yul\":1205:1248   */\n      tag_43\n        /* \"#utility.yul\":1242:1247   */\n      dup2\n        /* \"#utility.yul\":1205:1248   */\n      tag_44\n      jump\t// in\n    tag_43:\n        /* \"#utility.yul\":1200:1203   */\n      dup3\n        /* \"#utility.yul\":1193:1249   */\n      mstore\n        /* \"#utility.yul\":1112:1255   */\n      pop\n      pop\n      jump\t// out\n        /* \"#utility.yul\":1261:1379   */\n    tag_45:\n        /* \"#utility.yul\":1348:1372   */\n      tag_47\n        /* \"#utility.yul\":1366:1371   */\n      dup2\n        /* \"#utility.yul\":1348:1372   */\n      tag_48\n      jump\t// in\n    tag_47:\n        /* \"#utility.yul\":1343:1346   */\n      dup3\n        /* \"#utility.yul\":1336:1373   */\n      mstore\n        /* \"#utility.yul\":1261:1379   */\n      pop\n      pop\n      jump\t// out\n        /* \"#utility.yul\":1385:1619   */\n    tag_9:\n        /* \"#utility.yul\":1484:1488   */\n      0x00\n        /* \"#utility.yul\":1522:1524   */\n      0x20\n        /* \"#utility.yul\":1511:1520   */\n      dup3\n        /* \"#utility.yul\":1507:1525   */\n      add\n        /* \"#utility.yul\":1499:1525   */\n      swap1\n      pop\n        /* \"#utility.yul\":1535:1612   */\n      tag_50\n        /* \"#utility.yul\":1609:1610   */\n      0x00\n        /* \"#utility.yul\":1598:1607   */\n      dup4\n        /* \"#utility.yul\":1594:1611   */\n      add\n        /* \"#utility.yul\":1585:1591   */\n      dup5\n        /* \"#utility.yul\":1535:1612   */\n      tag_41\n      jump\t// in\n    tag_50:\n        /* \"#utility.yul\":1385:1619   */\n      swap3\n      swap2\n      pop\n      pop\n      jump\t// out\n        /* \"#utility.yul\":1625:1847   */\n    tag_15:\n        /* \"#utility.yul\":1718:1722   */\n      0x00\n        /* \"#utility.yul\":1756:1758   */\n      0x20\n        /* \"#utility.yul\":1745:1754   */\n      dup3\n        /* \"#utility.yul\":1741:1759   */\n      add\n        /* \"#utility.yul\":1733:1759   */\n      swap1\n      pop\n        /* \"#utility.yul\":1769:1840   */\n      tag_52\n        /* \"#utility.yul\":1837:1838   */\n      0x00\n        /* \"#utility.yul\":1826:1835   */\n      dup4\n        /* \"#utility.yul\":1822:1839   */\n      add\n        /* \"#utility.yul\":1813:1819   */\n      dup5\n        /* \"#utility.yul\":1769:1840   */\n      tag_45\n      jump\t// in\n    tag_52:\n        /* \"#utility.yul\":1625:1847   */\n      swap3\n      swap2\n      pop\n      pop\n      jump\t// out\n        /* \"#utility.yul\":1934:2030   */\n    tag_55:\n        /* \"#utility.yul\":1971:1978   */\n      0x00\n        /* \"#utility.yul\":2000:2024   */\n      tag_57\n        /* \"#utility.yul\":2018:2023   */\n      dup3\n        /* \"#utility.yul\":2000:2024   */\n      tag_58\n      jump\t// in\n    tag_57:\n        /* \"#utility.yul\":1989:2024   */\n      swap1\n      pop\n        /* \"#utility.yul\":1934:2030   */\n      swap2\n      swap1\n      pop\n      jump\t// out\n        /* \"#utility.yul\":2036:2163   */\n    tag_59:\n        /* \"#utility.yul\":2081:2088   */\n      0x00\n        /* \"#utility.yul\":2110:2115   */\n      dup2\n        /* \"#utility.yul\":2099:2115   */\n      swap1\n      pop\n        /* \"#utility.yul\":2116:2157   */\n      tag_61\n        /* \"#utility.yul\":2151:2156   */\n      dup3\n        /* \"#utility.yul\":2116:2157   */\n      tag_62\n      jump\t// in\n    tag_61:\n        /* \"#utility.yul\":2036:2163   */\n      swap2\n      swap1\n      pop\n      jump\t// out\n        /* \"#utility.yul\":2169:2295   */\n    tag_58:\n        /* \"#utility.yul\":2206:2213   */\n      0x00\n        /* \"#utility.yul\":2246:2288   */\n      0xffffffffffffffffffffffffffffffffffffffff\n        /* \"#utility.yul\":2239:2244   */\n      dup3\n        /* \"#utility.yul\":2235:2289   */\n      and\n        /* \"#utility.yul\":2224:2289   */\n      swap1\n      pop\n        /* \"#utility.yul\":2169:2295   */\n      swap2\n      swap1\n      pop\n      jump\t// out\n        /* \"#utility.yul\":2301:2378   */\n    tag_48:\n        /* \"#utility.yul\":2338:2345   */\n      0x00\n        /* \"#utility.yul\":2367:2372   */\n      dup2\n        /* \"#utility.yul\":2356:2372   */\n      swap1\n      pop\n        /* \"#utility.yul\":2301:2378   */\n      swap2\n      swap1\n      pop\n      jump\t// out\n        /* \"#utility.yul\":2384:2511   */\n    tag_44:\n        /* \"#utility.yul\":2440:2449   */\n      0x00\n        /* \"#utility.yul\":2473:2505   */\n      tag_66\n        /* \"#utility.yul\":2499:2504   */\n      dup3\n        /* \"#utility.yul\":2473:2505   */\n      tag_59\n      jump\t// in\n    tag_66:\n        /* \"#utility.yul\":2460:2505   */\n      swap1\n      pop\n        /* \"#utility.yul\":2384:2511   */\n      swap2\n      swap1\n      pop\n      jump\t// out\n        /* \"#utility.yul\":2517:2697   */\n    tag_67:\n        /* \"#utility.yul\":2565:2642   */\n      0x4e487b7100000000000000000000000000000000000000000000000000000000\n        /* \"#utility.yul\":2562:2563   */\n      0x00\n        /* \"#utility.yul\":2555:2643   */\n      mstore\n        /* \"#utility.yul\":2662:2666   */\n      0x21\n        /* \"#utility.yul\":2659:2660   */\n      0x04\n        /* \"#utility.yul\":2652:2667   */\n      mstore\n        /* \"#utility.yul\":2686:2690   */\n      0x24\n        /* \"#utility.yul\":2683:2684   */\n      0x00\n        /* \"#utility.yul\":2676:2691   */\n      revert\n        /* \"#utility.yul\":2826:2943   */\n    tag_34:\n        /* \"#utility.yul\":2935:2936   */\n      0x00\n        /* \"#utility.yul\":2932:2933   */\n      dup1\n        /* \"#utility.yul\":2925:2937   */\n      revert\n        /* \"#utility.yul\":2949:3062   */\n    tag_62:\n        /* \"#utility.yul\":3030:3031   */\n      0x02\n        /* \"#utility.yul\":3023:3028   */\n      dup2\n        /* \"#utility.yul\":3020:3032   */\n      lt\n        /* \"#utility.yul\":3010:3056   */\n      tag_73\n      jumpi\n        /* \"#utility.yul\":3036:3054   */\n      tag_74\n      tag_67\n      jump\t// in\n    tag_74:\n        /* \"#utility.yul\":3010:3056   */\n    tag_73:\n        /* \"#utility.yul\":2949:3062   */\n      pop\n      jump\t// out\n        /* \"#utility.yul\":3068:3190   */\n    tag_26:\n        /* \"#utility.yul\":3141:3165   */\n      tag_76\n        /* \"#utility.yul\":3159:3164   */\n      dup2\n        /* \"#utility.yul\":3141:3165   */\n      tag_55\n      jump\t// in\n    tag_76:\n        /* \"#utility.yul\":3134:3139   */\n      dup2\n        /* \"#utility.yul\":3131:3166   */\n      eq\n        /* \"#utility.yul\":3121:3184   */\n      tag_77\n      jumpi\n        /* \"#utility.yul\":3180:3181   */\n      0x00\n        /* \"#utility.yul\":3177:3178   */\n      dup1\n        /* \"#utility.yul\":3170:3182   */\n      revert\n        /* \"#utility.yul\":3121:3184   */\n    tag_77:\n        /* \"#utility.yul\":3068:3190   */\n      pop\n      jump\t// out\n        /* \"#utility.yul\":3196:3318   */\n    tag_30:\n        /* \"#utility.yul\":3269:3293   */\n      tag_79\n        /* \"#utility.yul\":3287:3292   */\n      dup2\n        /* \"#utility.yul\":3269:3293   */\n      tag_48\n      jump\t// in\n    tag_79:\n        /* \"#utility.yul\":3262:3267   */\n      dup2\n        /* \"#utility.yul\":3259:3294   */\n      eq\n        /* \"#utility.yul\":3249:3312   */\n      tag_80\n      jumpi\n        /* \"#utility.yul\":3308:3309   */\n      0x00\n        /* \"#utility.yul\":3305:3306   */\n      dup1\n        /* \"#utility.yul\":3298:3310   */\n      revert\n        /* \"#utility.yul\":3249:3312   */\n    tag_80:\n        /* \"#utility.yul\":3196:3318   */\n      pop\n      jump\t// out\n\n    auxdata: 0xa26469706673582212205da24a56c72cc2916f4a8a9ddc8ff1c913231aec08a657e504b7b4434a88d11064736f6c63430008070033\n}\n",
				"bytecode": {
					"linkReferences": {},
					"object": "608060405234801561001057600080fd5b506102ef806100206000396000f3fe608060405234801561001057600080fd5b50600436106100415760003560e01c80630594cc691461004657806305e0019d14610064578063e3d670d714610094575b600080fd5b61004e6100c4565b60405161005b91906101ac565b60405180910390f35b61007e6004803603810190610079919061014e565b6100d7565b60405161008b91906101c7565b60405180910390f35b6100ae60048036038101906100a99190610121565b6100df565b6040516100bb91906101c7565b60405180910390f35b600160009054906101000a900460ff1681565b600092915050565b60006020528060005260406000206000915090505481565b6000813590506101068161028b565b92915050565b60008135905061011b816102a2565b92915050565b60006020828403121561013757610136610272565b5b6000610145848285016100f7565b91505092915050565b6000806040838503121561016557610164610272565b5b60006101738582860161010c565b92505060206101848582860161010c565b9150509250929050565b61019781610231565b82525050565b6101a681610227565b82525050565b60006020820190506101c1600083018461018e565b92915050565b60006020820190506101dc600083018461019d565b92915050565b60006101ed82610207565b9050919050565b600081905061020282610277565b919050565b600073ffffffffffffffffffffffffffffffffffffffff82169050919050565b6000819050919050565b600061023c826101f4565b9050919050565b7f4e487b7100000000000000000000000000000000000000000000000000000000600052602160045260246000fd5b600080fd5b6002811061028857610287610243565b5b50565b610294816101e2565b811461029f57600080fd5b50565b6102ab81610227565b81146102b657600080fd5b5056fea26469706673582212205da24a56c72cc2916f4a8a9ddc8ff1c913231aec08a657e504b7b4434a88d11064736f6c63430008070033",
					"opcodes": "PUSH1 0x80 PUSH1 0x40 MSTORE CALLVALUE DUP1 ISZERO PUSH2 0x10 JUMPI PUSH1 0x0 DUP1 REVERT JUMPDEST POP PUSH2 0x2EF DUP1 PUSH2 0x20 PUSH1 0x0 CODECOPY PUSH1 0x0 RETURN INVALID PUSH1 0x80 PUSH1 0x40 MSTORE CALLVALUE DUP1 ISZERO PUSH2 0x10 JUMPI PUSH1 0x0 DUP1 REVERT JUMPDEST POP PUSH1 0x4 CALLDATASIZE LT PUSH2 0x41 JUMPI PUSH1 0x0 CALLDATALOAD PUSH1 0xE0 SHR DUP1 PUSH4 0x594CC69 EQ PUSH2 0x46 JUMPI DUP1 PUSH4 0x5E0019D EQ PUSH2 0x64 JUMPI DUP1 PUSH4 0xE3D670D7 EQ PUSH2 0x94 JUMPI JUMPDEST PUSH1 0x0 DUP1 REVERT JUMPDEST PUSH2 0x4E PUSH2 0xC4 JUMP JUMPDEST PUSH1 0x40 MLOAD PUSH2 0x5B SWAP2 SWAP1 PUSH2 0x1AC JUMP JUMPDEST PUSH1 0x40 MLOAD DUP1 SWAP2 SUB SWAP1 RETURN JUMPDEST PUSH2 0x7E PUSH1 0x4 DUP1 CALLDATASIZE SUB DUP2 ADD SWAP1 PUSH2 0x79 SWAP2 SWAP1 PUSH2 0x14E JUMP JUMPDEST PUSH2 0xD7 JUMP JUMPDEST PUSH1 0x40 MLOAD PUSH2 0x8B SWAP2 SWAP1 PUSH2 0x1C7 JUMP JUMPDEST PUSH1 0x40 MLOAD DUP1 SWAP2 SUB SWAP1 RETURN JUMPDEST PUSH2 0xAE PUSH1 0x4 DUP1 CALLDATASIZE SUB DUP2 ADD SWAP1 PUSH2 0xA9 SWAP2 SWAP1 PUSH2 0x121 JUMP JUMPDEST PUSH2 0xDF JUMP JUMPDEST PUSH1 0x40 MLOAD PUSH2 0xBB SWAP2 SWAP1 PUSH2 0x1C7 JUMP JUMPDEST PUSH1 0x40 MLOAD DUP1 SWAP2 SUB SWAP1 RETURN JUMPDEST PUSH1 0x1 PUSH1 0x0 SWAP1 SLOAD SWAP1 PUSH2 0x100 EXP SWAP1 DIV PUSH1 0xFF AND DUP2 JUMP JUMPDEST PUSH1 0x0 SWAP3 SWAP2 POP POP JUMP JUMPDEST PUSH1 0x0 PUSH1 0x20 MSTORE DUP1 PUSH1 0x0 MSTORE PUSH1 0x40 PUSH1 0x0 KECCAK256 PUSH1 0x0 SWAP2 POP SWAP1 POP SLOAD DUP2 JUMP JUMPDEST PUSH1 0x0 DUP2 CALLDATALOAD SWAP1 POP PUSH2 0x106 DUP2 PUSH2 0x28B JUMP JUMPDEST SWAP3 SWAP2 POP POP JUMP JUMPDEST PUSH1 0x0 DUP2 CALLDATALOAD SWAP1 POP PUSH2 0x11B DUP2 PUSH2 0x2A2 JUMP JUMPDEST SWAP3 SWAP2 POP POP JUMP JUMPDEST PUSH1 0x0 PUSH1 0x20 DUP3 DUP5 SUB SLT ISZERO PUSH2 0x137 JUMPI PUSH2 0x136 PUSH2 0x272 JUMP JUMPDEST JUMPDEST PUSH1 0x0 PUSH2 0x145 DUP5 DUP3 DUP6 ADD PUSH2 0xF7 JUMP JUMPDEST SWAP2 POP POP SWAP3 SWAP2 POP POP JUMP JUMPDEST PUSH1 0x0 DUP1 PUSH1 0x40 DUP4 DUP6 SUB SLT ISZERO PUSH2 0x165 JUMPI PUSH2 0x164 PUSH2 0x272 JUMP JUMPDEST JUMPDEST PUSH1 0x0 PUSH2 0x173 DUP6 DUP3 DUP7 ADD PUSH2 0x10C JUMP JUMPDEST SWAP3 POP POP PUSH1 0x20 PUSH2 0x184 DUP6 DUP3 DUP7 ADD PUSH2 0x10C JUMP JUMPDEST SWAP2 POP POP SWAP3 POP SWAP3 SWAP1 POP JUMP JUMPDEST PUSH2 0x197 DUP2 PUSH2 0x231 JUMP JUMPDEST DUP3 MSTORE POP POP JUMP JUMPDEST PUSH2 0x1A6 DUP2 PUSH2 0x227 JUMP JUMPDEST DUP3 MSTORE POP POP JUMP JUMPDEST PUSH1 0x0 PUSH1 0x20 DUP3 ADD SWAP1 POP PUSH2 0x1C1 PUSH1 0x0 DUP4 ADD DUP5 PUSH2 0x18E JUMP JUMPDEST SWAP3 SWAP2 POP POP JUMP JUMPDEST PUSH1 0x0 PUSH1 0x20 DUP3 ADD SWAP1 POP PUSH2 0x1DC PUSH1 0x0 DUP4 ADD DUP5 PUSH2 0x19D JUMP JUMPDEST SWAP3 SWAP2 POP POP JUMP JUMPDEST PUSH1 0x0 PUSH2 0x1ED DUP3 PUSH2 0x207 JUMP JUMPDEST SWAP1 POP SWAP2 SWAP1 POP JUMP JUMPDEST PUSH1 0x0 DUP2 SWAP1 POP PUSH2 0x202 DUP3 PUSH2 0x277 JUMP JUMPDEST SWAP2 SWAP1 POP JUMP JUMPDEST PUSH1 0x0 PUSH20 0xFFFFFFFFFFFFFFFFFFFFFFFFFFFFFFFFFFFFFFFF DUP3 AND SWAP1 POP SWAP2 SWAP1 POP JUMP JUMPDEST PUSH1 0x0 DUP2 SWAP1 POP SWAP2 SWAP1 POP JUMP JUMPDEST PUSH1 0x0 PUSH2 0x23C DUP3 PUSH2 0x1F4 JUMP JUMPDEST SWAP1 POP SWAP2 SWAP1 POP JUMP JUMPDEST PUSH32 0x4E487B7100000000000000000000000000000000000000000000000000000000 PUSH1 0x0 MSTORE PUSH1 0x21 PUSH1 0x4 MSTORE PUSH1 0x24 PUSH1 0x0 REVERT JUMPDEST PUSH1 0x0 DUP1 REVERT JUMPDEST PUSH1 0x2 DUP2 LT PUSH2 0x288 JUMPI PUSH2 0x287 PUSH2 0x243 JUMP JUMPDEST JUMPDEST POP JUMP JUMPDEST PUSH2 0x294 DUP2 PUSH2 0x1E2 JUMP JUMPDEST DUP2 EQ PUSH2 0x29F JUMPI PUSH1 0x0 DUP1 REVERT JUMPDEST POP JUMP JUMPDEST PUSH2 0x2AB DUP2 PUSH2 0x227 JUMP JUMPDEST DUP2 EQ PUSH2 0x2B6 JUMPI PUSH1 0x0 DUP1 REVERT JUMPDEST POP JUMP INVALID LOG2 PUSH5 0x6970667358 0x22 SLT KECCAK256 0x5D LOG2 0x4A JUMP 0xC7 0x2C 0xC2 SWAP2 PUSH16 0x4A8A9DDC8FF1C913231AEC08A657E504 0xB7 0xB4 NUMBER 0x4A DUP9 0xD1 LT PUSH5 0x736F6C6343 STOP ADDMOD SMOD STOP CALLER "
				},
				"gasEstimates": {
					"creation": {
						"codeDepositCost": "150200",
						"executionCost": "196",
						"totalCost": "150396"
					},
					"external": {
						"Suma(uint256,uint256)": "infinite",
						"balance(address)": "2836",
						"estadoDelContrato()": "2538"
					}
				},
				"methodIdentifiers": {
					"Suma(uint256,uint256)": "05e0019d",
					"balance(address)": "e3d670d7",
					"estadoDelContrato()": "0594cc69"
				}
			},
			"userdoc": {
				"kind": "user",
				"methods": {},
				"version": 1
			}
		}
	}
}