{
	"Variados/Academia.sol": {
		"Academia": {
			"abi": [
				{
					"inputs": [],
					"stateMutability": "nonpayable",
					"type": "constructor"
				},
				{
					"anonymous": false,
					"inputs": [
						{
							"indexed": false,
							"internalType": "address",
							"name": "_user",
							"type": "address"
						},
						{
							"indexed": false,
							"internalType": "enum IEscuela.Rol",
							"name": "_rol",
							"type": "uint8"
						}
					],
					"name": "newUser",
					"type": "event"
				},
				{
					"inputs": [
						{
							"internalType": "address",
							"name": "_user",
							"type": "address"
						},
						{
							"components": [
								{
									"internalType": "uint256",
									"name": "id",
									"type": "uint256"
								},
								{
									"internalType": "uint256",
									"name": "dni",
									"type": "uint256"
								},
								{
									"internalType": "string",
									"name": "nombre",
									"type": "string"
								},
								{
									"internalType": "string",
									"name": "apellido",
									"type": "string"
								},
								{
									"internalType": "enum IEscuela.Rol",
									"name": "rol",
									"type": "uint8"
								}
							],
							"internalType": "struct IEscuela.Alumno",
							"name": "alumno",
							"type": "tuple"
						},
						{
							"internalType": "enum IEscuela.Rol",
							"name": "_rol",
							"type": "uint8"
						}
					],
					"name": "addUser",
					"outputs": [
						{
							"internalType": "bool",
							"name": "",
							"type": "bool"
						}
					],
					"stateMutability": "nonpayable",
					"type": "function"
				},
				{
					"inputs": [],
					"name": "countStudents",
					"outputs": [
						{
							"internalType": "uint256",
							"name": "",
							"type": "uint256"
						}
					],
					"stateMutability": "view",
					"type": "function"
				},
				{
					"inputs": [
						{
							"internalType": "address",
							"name": "",
							"type": "address"
						}
					],
					"name": "users",
					"outputs": [
						{
							"internalType": "uint256",
							"name": "id",
							"type": "uint256"
						},
						{
							"internalType": "uint256",
							"name": "dni",
							"type": "uint256"
						},
						{
							"internalType": "string",
							"name": "nombre",
							"type": "string"
						},
						{
							"internalType": "string",
							"name": "apellido",
							"type": "string"
						},
						{
							"internalType": "enum IEscuela.Rol",
							"name": "rol",
							"type": "uint8"
						}
					],
					"stateMutability": "view",
					"type": "function"
				}
			],
			"devdoc": {
				"kind": "dev",
				"methods": {},
				"version": 1
			},
			"evm": {
				"assembly": "    /* \"Variados/Academia.sol\":389:647  contract Academia is IEscuela {... */\n  mstore(0x40, 0x80)\n    /* \"Variados/Academia.sol\":511:532  constructor(){... */\n  callvalue\n  dup1\n  iszero\n  tag_1\n  jumpi\n  0x00\n  dup1\n  revert\ntag_1:\n  pop\n    /* \"Variados/Academia.sol\":389:647  contract Academia is IEscuela {... */\n  dataSize(sub_0)\n  dup1\n  dataOffset(sub_0)\n  0x00\n  codecopy\n  0x00\n  return\nstop\n\nsub_0: assembly {\n        /* \"Variados/Academia.sol\":389:647  contract Academia is IEscuela {... */\n      mstore(0x40, 0x80)\n      callvalue\n      dup1\n      iszero\n      tag_1\n      jumpi\n      0x00\n      dup1\n      revert\n    tag_1:\n      pop\n      jumpi(tag_2, lt(calldatasize, 0x04))\n      shr(0xe0, calldataload(0x00))\n      dup1\n      0x477f5a69\n      eq\n      tag_3\n      jumpi\n      dup1\n      0x79062fc8\n      eq\n      tag_4\n      jumpi\n      dup1\n      0xa87430ba\n      eq\n      tag_5\n      jumpi\n    tag_2:\n      0x00\n      dup1\n      revert\n        /* \"Variados/Academia.sol\":425:453  uint256 public countStudents */\n    tag_3:\n      tag_6\n      tag_7\n      jump\t// in\n    tag_6:\n      mload(0x40)\n      tag_8\n      swap2\n      swap1\n      tag_9\n      jump\t// in\n    tag_8:\n      mload(0x40)\n      dup1\n      swap2\n      sub\n      swap1\n      return\n        /* \"Variados/Academia.sol\":538:642  function addUser(address _user, Alumno memory alumno, Rol _rol) external override returns(bool) {... */\n    tag_4:\n      tag_10\n      0x04\n      dup1\n      calldatasize\n      sub\n      dup2\n      add\n      swap1\n      tag_11\n      swap2\n      swap1\n      tag_12\n      jump\t// in\n    tag_11:\n      tag_13\n      jump\t// in\n    tag_10:\n      mload(0x40)\n      tag_14\n      swap2\n      swap1\n      tag_15\n      jump\t// in\n    tag_14:\n      mload(0x40)\n      dup1\n      swap2\n      sub\n      swap1\n      return\n        /* \"Variados/Academia.sol\":459:498  mapping(address => Alumno) public users */\n    tag_5:\n      tag_16\n      0x04\n      dup1\n      calldatasize\n      sub\n      dup2\n      add\n      swap1\n      tag_17\n      swap2\n      swap1\n      tag_18\n      jump\t// in\n    tag_17:\n      tag_19\n      jump\t// in\n    tag_16:\n      mload(0x40)\n      tag_20\n      swap6\n      swap5\n      swap4\n      swap3\n      swap2\n      swap1\n      tag_21\n      jump\t// in\n    tag_20:\n      mload(0x40)\n      dup1\n      swap2\n      sub\n      swap1\n      return\n        /* \"Variados/Academia.sol\":425:453  uint256 public countStudents */\n    tag_7:\n      sload(0x00)\n      dup2\n      jump\t// out\n        /* \"Variados/Academia.sol\":538:642  function addUser(address _user, Alumno memory alumno, Rol _rol) external override returns(bool) {... */\n    tag_13:\n        /* \"Variados/Academia.sol\":628:632  bool */\n      0x00\n        /* \"Variados/Academia.sol\":538:642  function addUser(address _user, Alumno memory alumno, Rol _rol) external override returns(bool) {... */\n      swap4\n      swap3\n      pop\n      pop\n      pop\n      jump\t// out\n        /* \"Variados/Academia.sol\":459:498  mapping(address => Alumno) public users */\n    tag_19:\n      mstore(0x20, 0x01)\n      dup1\n      0x00\n      mstore\n      keccak256(0x00, 0x40)\n      0x00\n      swap2\n      pop\n      swap1\n      pop\n      dup1\n      0x00\n      add\n      sload\n      swap1\n      dup1\n      0x01\n      add\n      sload\n      swap1\n      dup1\n      0x02\n      add\n      dup1\n      sload\n      tag_23\n      swap1\n      tag_24\n      jump\t// in\n    tag_23:\n      dup1\n      0x1f\n      add\n      0x20\n      dup1\n      swap2\n      div\n      mul\n      0x20\n      add\n      mload(0x40)\n      swap1\n      dup2\n      add\n      0x40\n      mstore\n      dup1\n      swap3\n      swap2\n      swap1\n      dup2\n      dup2\n      mstore\n      0x20\n      add\n      dup3\n      dup1\n      sload\n      tag_25\n      swap1\n      tag_24\n      jump\t// in\n    tag_25:\n      dup1\n      iszero\n      tag_26\n      jumpi\n      dup1\n      0x1f\n      lt\n      tag_27\n      jumpi\n      0x0100\n      dup1\n      dup4\n      sload\n      div\n      mul\n      dup4\n      mstore\n      swap2\n      0x20\n      add\n      swap2\n      jump(tag_26)\n    tag_27:\n      dup3\n      add\n      swap2\n      swap1\n      0x00\n      mstore\n      keccak256(0x00, 0x20)\n      swap1\n    tag_28:\n      dup2\n      sload\n      dup2\n      mstore\n      swap1\n      0x01\n      add\n      swap1\n      0x20\n      add\n      dup1\n      dup4\n      gt\n      tag_28\n      jumpi\n      dup3\n      swap1\n      sub\n      0x1f\n      and\n      dup3\n      add\n      swap2\n    tag_26:\n      pop\n      pop\n      pop\n      pop\n      pop\n      swap1\n      dup1\n      0x03\n      add\n      dup1\n      sload\n      tag_29\n      swap1\n      tag_24\n      jump\t// in\n    tag_29:\n      dup1\n      0x1f\n      add\n      0x20\n      dup1\n      swap2\n      div\n      mul\n      0x20\n      add\n      mload(0x40)\n      swap1\n      dup2\n      add\n      0x40\n      mstore\n      dup1\n      swap3\n      swap2\n      swap1\n      dup2\n      dup2\n      mstore\n      0x20\n      add\n      dup3\n      dup1\n      sload\n      tag_30\n      swap1\n      tag_24\n      jump\t// in\n    tag_30:\n      dup1\n      iszero\n      tag_31\n      jumpi\n      dup1\n      0x1f\n      lt\n      tag_32\n      jumpi\n      0x0100\n      dup1\n      dup4\n      sload\n      div\n      mul\n      dup4\n      mstore\n      swap2\n      0x20\n      add\n      swap2\n      jump(tag_31)\n    tag_32:\n      dup3\n      add\n      swap2\n      swap1\n      0x00\n      mstore\n      keccak256(0x00, 0x20)\n      swap1\n    tag_33:\n      dup2\n      sload\n      dup2\n      mstore\n      swap1\n      0x01\n      add\n      swap1\n      0x20\n      add\n      dup1\n      dup4\n      gt\n      tag_33\n      jumpi\n      dup3\n      swap1\n      sub\n      0x1f\n      and\n      dup3\n      add\n      swap2\n    tag_31:\n      pop\n      pop\n      pop\n      pop\n      pop\n      swap1\n      dup1\n      0x04\n      add\n      0x00\n      swap1\n      sload\n      swap1\n      0x0100\n      exp\n      swap1\n      div\n      0xff\n      and\n      swap1\n      pop\n      dup6\n      jump\t// out\n        /* \"#utility.yul\":7:419   */\n    tag_35:\n        /* \"#utility.yul\":85:90   */\n      0x00\n        /* \"#utility.yul\":110:176   */\n      tag_37\n        /* \"#utility.yul\":126:175   */\n      tag_38\n        /* \"#utility.yul\":168:174   */\n      dup5\n        /* \"#utility.yul\":126:175   */\n      tag_39\n      jump\t// in\n    tag_38:\n        /* \"#utility.yul\":110:176   */\n      tag_40\n      jump\t// in\n    tag_37:\n        /* \"#utility.yul\":101:176   */\n      swap1\n      pop\n        /* \"#utility.yul\":199:205   */\n      dup3\n        /* \"#utility.yul\":192:197   */\n      dup2\n        /* \"#utility.yul\":185:206   */\n      mstore\n        /* \"#utility.yul\":237:241   */\n      0x20\n        /* \"#utility.yul\":230:235   */\n      dup2\n        /* \"#utility.yul\":226:242   */\n      add\n        /* \"#utility.yul\":275:278   */\n      dup5\n        /* \"#utility.yul\":266:272   */\n      dup5\n        /* \"#utility.yul\":261:264   */\n      dup5\n        /* \"#utility.yul\":257:273   */\n      add\n        /* \"#utility.yul\":254:279   */\n      gt\n        /* \"#utility.yul\":251:363   */\n      iszero\n      tag_41\n      jumpi\n        /* \"#utility.yul\":282:361   */\n      tag_42\n      tag_43\n      jump\t// in\n    tag_42:\n        /* \"#utility.yul\":251:363   */\n    tag_41:\n        /* \"#utility.yul\":372:413   */\n      tag_44\n        /* \"#utility.yul\":406:412   */\n      dup5\n        /* \"#utility.yul\":401:404   */\n      dup3\n        /* \"#utility.yul\":396:399   */\n      dup6\n        /* \"#utility.yul\":372:413   */\n      tag_45\n      jump\t// in\n    tag_44:\n        /* \"#utility.yul\":91:419   */\n      pop\n        /* \"#utility.yul\":7:419   */\n      swap4\n      swap3\n      pop\n      pop\n      pop\n      jump\t// out\n        /* \"#utility.yul\":425:564   */\n    tag_46:\n        /* \"#utility.yul\":471:476   */\n      0x00\n        /* \"#utility.yul\":509:515   */\n      dup2\n        /* \"#utility.yul\":496:516   */\n      calldataload\n        /* \"#utility.yul\":487:516   */\n      swap1\n      pop\n        /* \"#utility.yul\":525:558   */\n      tag_48\n        /* \"#utility.yul\":552:557   */\n      dup2\n        /* \"#utility.yul\":525:558   */\n      tag_49\n      jump\t// in\n    tag_48:\n        /* \"#utility.yul\":425:564   */\n      swap3\n      swap2\n      pop\n      pop\n      jump\t// out\n        /* \"#utility.yul\":570:721   */\n    tag_50:\n        /* \"#utility.yul\":622:627   */\n      0x00\n        /* \"#utility.yul\":660:666   */\n      dup2\n        /* \"#utility.yul\":647:667   */\n      calldataload\n        /* \"#utility.yul\":638:667   */\n      swap1\n      pop\n        /* \"#utility.yul\":676:715   */\n      tag_52\n        /* \"#utility.yul\":709:714   */\n      dup2\n        /* \"#utility.yul\":676:715   */\n      tag_53\n      jump\t// in\n    tag_52:\n        /* \"#utility.yul\":570:721   */\n      swap3\n      swap2\n      pop\n      pop\n      jump\t// out\n        /* \"#utility.yul\":741:1081   */\n    tag_54:\n        /* \"#utility.yul\":797:802   */\n      0x00\n        /* \"#utility.yul\":846:849   */\n      dup3\n        /* \"#utility.yul\":839:843   */\n      0x1f\n        /* \"#utility.yul\":831:837   */\n      dup4\n        /* \"#utility.yul\":827:844   */\n      add\n        /* \"#utility.yul\":823:850   */\n      slt\n        /* \"#utility.yul\":813:935   */\n      tag_56\n      jumpi\n        /* \"#utility.yul\":854:933   */\n      tag_57\n      tag_58\n      jump\t// in\n    tag_57:\n        /* \"#utility.yul\":813:935   */\n    tag_56:\n        /* \"#utility.yul\":971:977   */\n      dup2\n        /* \"#utility.yul\":958:978   */\n      calldataload\n        /* \"#utility.yul\":996:1075   */\n      tag_59\n        /* \"#utility.yul\":1071:1074   */\n      dup5\n        /* \"#utility.yul\":1063:1069   */\n      dup3\n        /* \"#utility.yul\":1056:1060   */\n      0x20\n        /* \"#utility.yul\":1048:1054   */\n      dup7\n        /* \"#utility.yul\":1044:1061   */\n      add\n        /* \"#utility.yul\":996:1075   */\n      tag_35\n      jump\t// in\n    tag_59:\n        /* \"#utility.yul\":987:1075   */\n      swap2\n      pop\n        /* \"#utility.yul\":803:1081   */\n      pop\n        /* \"#utility.yul\":741:1081   */\n      swap3\n      swap2\n      pop\n      pop\n      jump\t// out\n        /* \"#utility.yul\":1117:2520   */\n    tag_60:\n        /* \"#utility.yul\":1188:1193   */\n      0x00\n        /* \"#utility.yul\":1232:1236   */\n      0xa0\n        /* \"#utility.yul\":1220:1229   */\n      dup3\n        /* \"#utility.yul\":1215:1218   */\n      dup5\n        /* \"#utility.yul\":1211:1230   */\n      sub\n        /* \"#utility.yul\":1207:1237   */\n      slt\n        /* \"#utility.yul\":1204:1321   */\n      iszero\n      tag_62\n      jumpi\n        /* \"#utility.yul\":1240:1319   */\n      tag_63\n      tag_64\n      jump\t// in\n    tag_63:\n        /* \"#utility.yul\":1204:1321   */\n    tag_62:\n        /* \"#utility.yul\":1339:1360   */\n      tag_65\n        /* \"#utility.yul\":1355:1359   */\n      0xa0\n        /* \"#utility.yul\":1339:1360   */\n      tag_40\n      jump\t// in\n    tag_65:\n        /* \"#utility.yul\":1330:1360   */\n      swap1\n      pop\n        /* \"#utility.yul\":1417:1418   */\n      0x00\n        /* \"#utility.yul\":1457:1506   */\n      tag_66\n        /* \"#utility.yul\":1502:1505   */\n      dup5\n        /* \"#utility.yul\":1493:1499   */\n      dup3\n        /* \"#utility.yul\":1482:1491   */\n      dup6\n        /* \"#utility.yul\":1478:1500   */\n      add\n        /* \"#utility.yul\":1457:1506   */\n      tag_67\n      jump\t// in\n    tag_66:\n        /* \"#utility.yul\":1450:1454   */\n      0x00\n        /* \"#utility.yul\":1443:1448   */\n      dup4\n        /* \"#utility.yul\":1439:1455   */\n      add\n        /* \"#utility.yul\":1432:1507   */\n      mstore\n        /* \"#utility.yul\":1370:1518   */\n      pop\n        /* \"#utility.yul\":1576:1578   */\n      0x20\n        /* \"#utility.yul\":1617:1666   */\n      tag_68\n        /* \"#utility.yul\":1662:1665   */\n      dup5\n        /* \"#utility.yul\":1653:1659   */\n      dup3\n        /* \"#utility.yul\":1642:1651   */\n      dup6\n        /* \"#utility.yul\":1638:1660   */\n      add\n        /* \"#utility.yul\":1617:1666   */\n      tag_67\n      jump\t// in\n    tag_68:\n        /* \"#utility.yul\":1610:1614   */\n      0x20\n        /* \"#utility.yul\":1603:1608   */\n      dup4\n        /* \"#utility.yul\":1599:1615   */\n      add\n        /* \"#utility.yul\":1592:1667   */\n      mstore\n        /* \"#utility.yul\":1528:1678   */\n      pop\n        /* \"#utility.yul\":1767:1769   */\n      0x40\n        /* \"#utility.yul\":1756:1765   */\n      dup3\n        /* \"#utility.yul\":1752:1770   */\n      add\n        /* \"#utility.yul\":1739:1771   */\n      calldataload\n        /* \"#utility.yul\":1798:1816   */\n      0xffffffffffffffff\n        /* \"#utility.yul\":1790:1796   */\n      dup2\n        /* \"#utility.yul\":1787:1817   */\n      gt\n        /* \"#utility.yul\":1784:1901   */\n      iszero\n      tag_69\n      jumpi\n        /* \"#utility.yul\":1820:1899   */\n      tag_70\n      tag_71\n      jump\t// in\n    tag_70:\n        /* \"#utility.yul\":1784:1901   */\n    tag_69:\n        /* \"#utility.yul\":1940:1999   */\n      tag_72\n        /* \"#utility.yul\":1995:1998   */\n      dup5\n        /* \"#utility.yul\":1986:1992   */\n      dup3\n        /* \"#utility.yul\":1975:1984   */\n      dup6\n        /* \"#utility.yul\":1971:1993   */\n      add\n        /* \"#utility.yul\":1940:1999   */\n      tag_54\n      jump\t// in\n    tag_72:\n        /* \"#utility.yul\":1933:1937   */\n      0x40\n        /* \"#utility.yul\":1926:1931   */\n      dup4\n        /* \"#utility.yul\":1922:1938   */\n      add\n        /* \"#utility.yul\":1915:2000   */\n      mstore\n        /* \"#utility.yul\":1688:2011   */\n      pop\n        /* \"#utility.yul\":2102:2104   */\n      0x60\n        /* \"#utility.yul\":2091:2100   */\n      dup3\n        /* \"#utility.yul\":2087:2105   */\n      add\n        /* \"#utility.yul\":2074:2106   */\n      calldataload\n        /* \"#utility.yul\":2133:2151   */\n      0xffffffffffffffff\n        /* \"#utility.yul\":2125:2131   */\n      dup2\n        /* \"#utility.yul\":2122:2152   */\n      gt\n        /* \"#utility.yul\":2119:2236   */\n      iszero\n      tag_73\n      jumpi\n        /* \"#utility.yul\":2155:2234   */\n      tag_74\n      tag_71\n      jump\t// in\n    tag_74:\n        /* \"#utility.yul\":2119:2236   */\n    tag_73:\n        /* \"#utility.yul\":2275:2334   */\n      tag_75\n        /* \"#utility.yul\":2330:2333   */\n      dup5\n        /* \"#utility.yul\":2321:2327   */\n      dup3\n        /* \"#utility.yul\":2310:2319   */\n      dup6\n        /* \"#utility.yul\":2306:2328   */\n      add\n        /* \"#utility.yul\":2275:2334   */\n      tag_54\n      jump\t// in\n    tag_75:\n        /* \"#utility.yul\":2268:2272   */\n      0x60\n        /* \"#utility.yul\":2261:2266   */\n      dup4\n        /* \"#utility.yul\":2257:2273   */\n      add\n        /* \"#utility.yul\":2250:2335   */\n      mstore\n        /* \"#utility.yul\":2021:2346   */\n      pop\n        /* \"#utility.yul\":2404:2407   */\n      0x80\n        /* \"#utility.yul\":2446:2501   */\n      tag_76\n        /* \"#utility.yul\":2497:2500   */\n      dup5\n        /* \"#utility.yul\":2488:2494   */\n      dup3\n        /* \"#utility.yul\":2477:2486   */\n      dup6\n        /* \"#utility.yul\":2473:2495   */\n      add\n        /* \"#utility.yul\":2446:2501   */\n      tag_50\n      jump\t// in\n    tag_76:\n        /* \"#utility.yul\":2439:2443   */\n      0x80\n        /* \"#utility.yul\":2432:2437   */\n      dup4\n        /* \"#utility.yul\":2428:2444   */\n      add\n        /* \"#utility.yul\":2421:2502   */\n      mstore\n        /* \"#utility.yul\":2356:2513   */\n      pop\n        /* \"#utility.yul\":1117:2520   */\n      swap3\n      swap2\n      pop\n      pop\n      jump\t// out\n        /* \"#utility.yul\":2526:2665   */\n    tag_67:\n        /* \"#utility.yul\":2572:2577   */\n      0x00\n        /* \"#utility.yul\":2610:2616   */\n      dup2\n        /* \"#utility.yul\":2597:2617   */\n      calldataload\n        /* \"#utility.yul\":2588:2617   */\n      swap1\n      pop\n        /* \"#utility.yul\":2626:2659   */\n      tag_78\n        /* \"#utility.yul\":2653:2658   */\n      dup2\n        /* \"#utility.yul\":2626:2659   */\n      tag_79\n      jump\t// in\n    tag_78:\n        /* \"#utility.yul\":2526:2665   */\n      swap3\n      swap2\n      pop\n      pop\n      jump\t// out\n        /* \"#utility.yul\":2671:3000   */\n    tag_18:\n        /* \"#utility.yul\":2730:2736   */\n      0x00\n        /* \"#utility.yul\":2779:2781   */\n      0x20\n        /* \"#utility.yul\":2767:2776   */\n      dup3\n        /* \"#utility.yul\":2758:2765   */\n      dup5\n        /* \"#utility.yul\":2754:2777   */\n      sub\n        /* \"#utility.yul\":2750:2782   */\n      slt\n        /* \"#utility.yul\":2747:2866   */\n      iszero\n      tag_81\n      jumpi\n        /* \"#utility.yul\":2785:2864   */\n      tag_82\n      tag_83\n      jump\t// in\n    tag_82:\n        /* \"#utility.yul\":2747:2866   */\n    tag_81:\n        /* \"#utility.yul\":2905:2906   */\n      0x00\n        /* \"#utility.yul\":2930:2983   */\n      tag_84\n        /* \"#utility.yul\":2975:2982   */\n      dup5\n        /* \"#utility.yul\":2966:2972   */\n      dup3\n        /* \"#utility.yul\":2955:2964   */\n      dup6\n        /* \"#utility.yul\":2951:2973   */\n      add\n        /* \"#utility.yul\":2930:2983   */\n      tag_46\n      jump\t// in\n    tag_84:\n        /* \"#utility.yul\":2920:2983   */\n      swap2\n      pop\n        /* \"#utility.yul\":2876:2993   */\n      pop\n        /* \"#utility.yul\":2671:3000   */\n      swap3\n      swap2\n      pop\n      pop\n      jump\t// out\n        /* \"#utility.yul\":3006:3841   */\n    tag_12:\n        /* \"#utility.yul\":3111:3117   */\n      0x00\n        /* \"#utility.yul\":3119:3125   */\n      dup1\n        /* \"#utility.yul\":3127:3133   */\n      0x00\n        /* \"#utility.yul\":3176:3178   */\n      0x60\n        /* \"#utility.yul\":3164:3173   */\n      dup5\n        /* \"#utility.yul\":3155:3162   */\n      dup7\n        /* \"#utility.yul\":3151:3174   */\n      sub\n        /* \"#utility.yul\":3147:3179   */\n      slt\n        /* \"#utility.yul\":3144:3263   */\n      iszero\n      tag_86\n      jumpi\n        /* \"#utility.yul\":3182:3261   */\n      tag_87\n      tag_83\n      jump\t// in\n    tag_87:\n        /* \"#utility.yul\":3144:3263   */\n    tag_86:\n        /* \"#utility.yul\":3302:3303   */\n      0x00\n        /* \"#utility.yul\":3327:3380   */\n      tag_88\n        /* \"#utility.yul\":3372:3379   */\n      dup7\n        /* \"#utility.yul\":3363:3369   */\n      dup3\n        /* \"#utility.yul\":3352:3361   */\n      dup8\n        /* \"#utility.yul\":3348:3370   */\n      add\n        /* \"#utility.yul\":3327:3380   */\n      tag_46\n      jump\t// in\n    tag_88:\n        /* \"#utility.yul\":3317:3380   */\n      swap4\n      pop\n        /* \"#utility.yul\":3273:3390   */\n      pop\n        /* \"#utility.yul\":3457:3459   */\n      0x20\n        /* \"#utility.yul\":3446:3455   */\n      dup5\n        /* \"#utility.yul\":3442:3460   */\n      add\n        /* \"#utility.yul\":3429:3461   */\n      calldataload\n        /* \"#utility.yul\":3488:3506   */\n      0xffffffffffffffff\n        /* \"#utility.yul\":3480:3486   */\n      dup2\n        /* \"#utility.yul\":3477:3507   */\n      gt\n        /* \"#utility.yul\":3474:3591   */\n      iszero\n      tag_89\n      jumpi\n        /* \"#utility.yul\":3510:3589   */\n      tag_90\n      tag_91\n      jump\t// in\n    tag_90:\n        /* \"#utility.yul\":3474:3591   */\n    tag_89:\n        /* \"#utility.yul\":3615:3690   */\n      tag_92\n        /* \"#utility.yul\":3682:3689   */\n      dup7\n        /* \"#utility.yul\":3673:3679   */\n      dup3\n        /* \"#utility.yul\":3662:3671   */\n      dup8\n        /* \"#utility.yul\":3658:3680   */\n      add\n        /* \"#utility.yul\":3615:3690   */\n      tag_60\n      jump\t// in\n    tag_92:\n        /* \"#utility.yul\":3605:3690   */\n      swap3\n      pop\n        /* \"#utility.yul\":3400:3700   */\n      pop\n        /* \"#utility.yul\":3739:3741   */\n      0x40\n        /* \"#utility.yul\":3765:3824   */\n      tag_93\n        /* \"#utility.yul\":3816:3823   */\n      dup7\n        /* \"#utility.yul\":3807:3813   */\n      dup3\n        /* \"#utility.yul\":3796:3805   */\n      dup8\n        /* \"#utility.yul\":3792:3814   */\n      add\n        /* \"#utility.yul\":3765:3824   */\n      tag_50\n      jump\t// in\n    tag_93:\n        /* \"#utility.yul\":3755:3824   */\n      swap2\n      pop\n        /* \"#utility.yul\":3710:3834   */\n      pop\n        /* \"#utility.yul\":3006:3841   */\n      swap3\n      pop\n      swap3\n      pop\n      swap3\n      jump\t// out\n        /* \"#utility.yul\":3847:3956   */\n    tag_94:\n        /* \"#utility.yul\":3928:3949   */\n      tag_96\n        /* \"#utility.yul\":3943:3948   */\n      dup2\n        /* \"#utility.yul\":3928:3949   */\n      tag_97\n      jump\t// in\n    tag_96:\n        /* \"#utility.yul\":3923:3926   */\n      dup3\n        /* \"#utility.yul\":3916:3950   */\n      mstore\n        /* \"#utility.yul\":3847:3956   */\n      pop\n      pop\n      jump\t// out\n        /* \"#utility.yul\":3962:4101   */\n    tag_98:\n        /* \"#utility.yul\":4053:4094   */\n      tag_100\n        /* \"#utility.yul\":4088:4093   */\n      dup2\n        /* \"#utility.yul\":4053:4094   */\n      tag_101\n      jump\t// in\n    tag_100:\n        /* \"#utility.yul\":4048:4051   */\n      dup3\n        /* \"#utility.yul\":4041:4095   */\n      mstore\n        /* \"#utility.yul\":3962:4101   */\n      pop\n      pop\n      jump\t// out\n        /* \"#utility.yul\":4107:4471   */\n    tag_102:\n        /* \"#utility.yul\":4195:4198   */\n      0x00\n        /* \"#utility.yul\":4223:4262   */\n      tag_104\n        /* \"#utility.yul\":4256:4261   */\n      dup3\n        /* \"#utility.yul\":4223:4262   */\n      tag_105\n      jump\t// in\n    tag_104:\n        /* \"#utility.yul\":4278:4349   */\n      tag_106\n        /* \"#utility.yul\":4342:4348   */\n      dup2\n        /* \"#utility.yul\":4337:4340   */\n      dup6\n        /* \"#utility.yul\":4278:4349   */\n      tag_107\n      jump\t// in\n    tag_106:\n        /* \"#utility.yul\":4271:4349   */\n      swap4\n      pop\n        /* \"#utility.yul\":4358:4410   */\n      tag_108\n        /* \"#utility.yul\":4403:4409   */\n      dup2\n        /* \"#utility.yul\":4398:4401   */\n      dup6\n        /* \"#utility.yul\":4391:4395   */\n      0x20\n        /* \"#utility.yul\":4384:4389   */\n      dup7\n        /* \"#utility.yul\":4380:4396   */\n      add\n        /* \"#utility.yul\":4358:4410   */\n      tag_109\n      jump\t// in\n    tag_108:\n        /* \"#utility.yul\":4435:4464   */\n      tag_110\n        /* \"#utility.yul\":4457:4463   */\n      dup2\n        /* \"#utility.yul\":4435:4464   */\n      tag_111\n      jump\t// in\n    tag_110:\n        /* \"#utility.yul\":4430:4433   */\n      dup5\n        /* \"#utility.yul\":4426:4465   */\n      add\n        /* \"#utility.yul\":4419:4465   */\n      swap2\n      pop\n        /* \"#utility.yul\":4199:4471   */\n      pop\n        /* \"#utility.yul\":4107:4471   */\n      swap3\n      swap2\n      pop\n      pop\n      jump\t// out\n        /* \"#utility.yul\":4477:4595   */\n    tag_112:\n        /* \"#utility.yul\":4564:4588   */\n      tag_114\n        /* \"#utility.yul\":4582:4587   */\n      dup2\n        /* \"#utility.yul\":4564:4588   */\n      tag_115\n      jump\t// in\n    tag_114:\n        /* \"#utility.yul\":4559:4562   */\n      dup3\n        /* \"#utility.yul\":4552:4589   */\n      mstore\n        /* \"#utility.yul\":4477:4595   */\n      pop\n      pop\n      jump\t// out\n        /* \"#utility.yul\":4601:4811   */\n    tag_15:\n        /* \"#utility.yul\":4688:4692   */\n      0x00\n        /* \"#utility.yul\":4726:4728   */\n      0x20\n        /* \"#utility.yul\":4715:4724   */\n      dup3\n        /* \"#utility.yul\":4711:4729   */\n      add\n        /* \"#utility.yul\":4703:4729   */\n      swap1\n      pop\n        /* \"#utility.yul\":4739:4804   */\n      tag_117\n        /* \"#utility.yul\":4801:4802   */\n      0x00\n        /* \"#utility.yul\":4790:4799   */\n      dup4\n        /* \"#utility.yul\":4786:4803   */\n      add\n        /* \"#utility.yul\":4777:4783   */\n      dup5\n        /* \"#utility.yul\":4739:4804   */\n      tag_94\n      jump\t// in\n    tag_117:\n        /* \"#utility.yul\":4601:4811   */\n      swap3\n      swap2\n      pop\n      pop\n      jump\t// out\n        /* \"#utility.yul\":4817:5039   */\n    tag_9:\n        /* \"#utility.yul\":4910:4914   */\n      0x00\n        /* \"#utility.yul\":4948:4950   */\n      0x20\n        /* \"#utility.yul\":4937:4946   */\n      dup3\n        /* \"#utility.yul\":4933:4951   */\n      add\n        /* \"#utility.yul\":4925:4951   */\n      swap1\n      pop\n        /* \"#utility.yul\":4961:5032   */\n      tag_119\n        /* \"#utility.yul\":5029:5030   */\n      0x00\n        /* \"#utility.yul\":5018:5027   */\n      dup4\n        /* \"#utility.yul\":5014:5031   */\n      add\n        /* \"#utility.yul\":5005:5011   */\n      dup5\n        /* \"#utility.yul\":4961:5032   */\n      tag_112\n      jump\t// in\n    tag_119:\n        /* \"#utility.yul\":4817:5039   */\n      swap3\n      swap2\n      pop\n      pop\n      jump\t// out\n        /* \"#utility.yul\":5045:5899   */\n    tag_21:\n        /* \"#utility.yul\":5294:5298   */\n      0x00\n        /* \"#utility.yul\":5332:5335   */\n      0xa0\n        /* \"#utility.yul\":5321:5330   */\n      dup3\n        /* \"#utility.yul\":5317:5336   */\n      add\n        /* \"#utility.yul\":5309:5336   */\n      swap1\n      pop\n        /* \"#utility.yul\":5346:5417   */\n      tag_121\n        /* \"#utility.yul\":5414:5415   */\n      0x00\n        /* \"#utility.yul\":5403:5412   */\n      dup4\n        /* \"#utility.yul\":5399:5416   */\n      add\n        /* \"#utility.yul\":5390:5396   */\n      dup9\n        /* \"#utility.yul\":5346:5417   */\n      tag_112\n      jump\t// in\n    tag_121:\n        /* \"#utility.yul\":5427:5499   */\n      tag_122\n        /* \"#utility.yul\":5495:5497   */\n      0x20\n        /* \"#utility.yul\":5484:5493   */\n      dup4\n        /* \"#utility.yul\":5480:5498   */\n      add\n        /* \"#utility.yul\":5471:5477   */\n      dup8\n        /* \"#utility.yul\":5427:5499   */\n      tag_112\n      jump\t// in\n    tag_122:\n        /* \"#utility.yul\":5546:5555   */\n      dup2\n        /* \"#utility.yul\":5540:5544   */\n      dup2\n        /* \"#utility.yul\":5536:5556   */\n      sub\n        /* \"#utility.yul\":5531:5533   */\n      0x40\n        /* \"#utility.yul\":5520:5529   */\n      dup4\n        /* \"#utility.yul\":5516:5534   */\n      add\n        /* \"#utility.yul\":5509:5557   */\n      mstore\n        /* \"#utility.yul\":5574:5652   */\n      tag_123\n        /* \"#utility.yul\":5647:5651   */\n      dup2\n        /* \"#utility.yul\":5638:5644   */\n      dup7\n        /* \"#utility.yul\":5574:5652   */\n      tag_102\n      jump\t// in\n    tag_123:\n        /* \"#utility.yul\":5566:5652   */\n      swap1\n      pop\n        /* \"#utility.yul\":5699:5708   */\n      dup2\n        /* \"#utility.yul\":5693:5697   */\n      dup2\n        /* \"#utility.yul\":5689:5709   */\n      sub\n        /* \"#utility.yul\":5684:5686   */\n      0x60\n        /* \"#utility.yul\":5673:5682   */\n      dup4\n        /* \"#utility.yul\":5669:5687   */\n      add\n        /* \"#utility.yul\":5662:5710   */\n      mstore\n        /* \"#utility.yul\":5727:5805   */\n      tag_124\n        /* \"#utility.yul\":5800:5804   */\n      dup2\n        /* \"#utility.yul\":5791:5797   */\n      dup6\n        /* \"#utility.yul\":5727:5805   */\n      tag_102\n      jump\t// in\n    tag_124:\n        /* \"#utility.yul\":5719:5805   */\n      swap1\n      pop\n        /* \"#utility.yul\":5815:5892   */\n      tag_125\n        /* \"#utility.yul\":5887:5890   */\n      0x80\n        /* \"#utility.yul\":5876:5885   */\n      dup4\n        /* \"#utility.yul\":5872:5891   */\n      add\n        /* \"#utility.yul\":5863:5869   */\n      dup5\n        /* \"#utility.yul\":5815:5892   */\n      tag_98\n      jump\t// in\n    tag_125:\n        /* \"#utility.yul\":5045:5899   */\n      swap7\n      swap6\n      pop\n      pop\n      pop\n      pop\n      pop\n      pop\n      jump\t// out\n        /* \"#utility.yul\":5905:6034   */\n    tag_40:\n        /* \"#utility.yul\":5939:5945   */\n      0x00\n        /* \"#utility.yul\":5966:5986   */\n      tag_127\n      tag_128\n      jump\t// in\n    tag_127:\n        /* \"#utility.yul\":5956:5986   */\n      swap1\n      pop\n        /* \"#utility.yul\":5995:6028   */\n      tag_129\n        /* \"#utility.yul\":6023:6027   */\n      dup3\n        /* \"#utility.yul\":6015:6021   */\n      dup3\n        /* \"#utility.yul\":5995:6028   */\n      tag_130\n      jump\t// in\n    tag_129:\n        /* \"#utility.yul\":5905:6034   */\n      swap2\n      swap1\n      pop\n      jump\t// out\n        /* \"#utility.yul\":6040:6115   */\n    tag_128:\n        /* \"#utility.yul\":6073:6079   */\n      0x00\n        /* \"#utility.yul\":6106:6108   */\n      0x40\n        /* \"#utility.yul\":6100:6109   */\n      mload\n        /* \"#utility.yul\":6090:6109   */\n      swap1\n      pop\n        /* \"#utility.yul\":6040:6115   */\n      swap1\n      jump\t// out\n        /* \"#utility.yul\":6121:6429   */\n    tag_39:\n        /* \"#utility.yul\":6183:6187   */\n      0x00\n        /* \"#utility.yul\":6273:6291   */\n      0xffffffffffffffff\n        /* \"#utility.yul\":6265:6271   */\n      dup3\n        /* \"#utility.yul\":6262:6292   */\n      gt\n        /* \"#utility.yul\":6259:6315   */\n      iszero\n      tag_133\n      jumpi\n        /* \"#utility.yul\":6295:6313   */\n      tag_134\n      tag_135\n      jump\t// in\n    tag_134:\n        /* \"#utility.yul\":6259:6315   */\n    tag_133:\n        /* \"#utility.yul\":6333:6362   */\n      tag_136\n        /* \"#utility.yul\":6355:6361   */\n      dup3\n        /* \"#utility.yul\":6333:6362   */\n      tag_111\n      jump\t// in\n    tag_136:\n        /* \"#utility.yul\":6325:6362   */\n      swap1\n      pop\n        /* \"#utility.yul\":6417:6421   */\n      0x20\n        /* \"#utility.yul\":6411:6415   */\n      dup2\n        /* \"#utility.yul\":6407:6422   */\n      add\n        /* \"#utility.yul\":6399:6422   */\n      swap1\n      pop\n        /* \"#utility.yul\":6121:6429   */\n      swap2\n      swap1\n      pop\n      jump\t// out\n        /* \"#utility.yul\":6435:6534   */\n    tag_105:\n        /* \"#utility.yul\":6487:6493   */\n      0x00\n        /* \"#utility.yul\":6521:6526   */\n      dup2\n        /* \"#utility.yul\":6515:6527   */\n      mload\n        /* \"#utility.yul\":6505:6527   */\n      swap1\n      pop\n        /* \"#utility.yul\":6435:6534   */\n      swap2\n      swap1\n      pop\n      jump\t// out\n        /* \"#utility.yul\":6540:6709   */\n    tag_107:\n        /* \"#utility.yul\":6624:6635   */\n      0x00\n        /* \"#utility.yul\":6658:6664   */\n      dup3\n        /* \"#utility.yul\":6653:6656   */\n      dup3\n        /* \"#utility.yul\":6646:6665   */\n      mstore\n        /* \"#utility.yul\":6698:6702   */\n      0x20\n        /* \"#utility.yul\":6693:6696   */\n      dup3\n        /* \"#utility.yul\":6689:6703   */\n      add\n        /* \"#utility.yul\":6674:6703   */\n      swap1\n      pop\n        /* \"#utility.yul\":6540:6709   */\n      swap3\n      swap2\n      pop\n      pop\n      jump\t// out\n        /* \"#utility.yul\":6715:6811   */\n    tag_139:\n        /* \"#utility.yul\":6752:6759   */\n      0x00\n        /* \"#utility.yul\":6781:6805   */\n      tag_141\n        /* \"#utility.yul\":6799:6804   */\n      dup3\n        /* \"#utility.yul\":6781:6805   */\n      tag_142\n      jump\t// in\n    tag_141:\n        /* \"#utility.yul\":6770:6805   */\n      swap1\n      pop\n        /* \"#utility.yul\":6715:6811   */\n      swap2\n      swap1\n      pop\n      jump\t// out\n        /* \"#utility.yul\":6817:6907   */\n    tag_97:\n        /* \"#utility.yul\":6851:6858   */\n      0x00\n        /* \"#utility.yul\":6894:6899   */\n      dup2\n        /* \"#utility.yul\":6887:6900   */\n      iszero\n        /* \"#utility.yul\":6880:6901   */\n      iszero\n        /* \"#utility.yul\":6869:6901   */\n      swap1\n      pop\n        /* \"#utility.yul\":6817:6907   */\n      swap2\n      swap1\n      pop\n      jump\t// out\n        /* \"#utility.yul\":6913:7036   */\n    tag_144:\n        /* \"#utility.yul\":6956:6963   */\n      0x00\n        /* \"#utility.yul\":6985:6990   */\n      dup2\n        /* \"#utility.yul\":6974:6990   */\n      swap1\n      pop\n        /* \"#utility.yul\":6991:7030   */\n      tag_146\n        /* \"#utility.yul\":7024:7029   */\n      dup3\n        /* \"#utility.yul\":6991:7030   */\n      tag_147\n      jump\t// in\n    tag_146:\n        /* \"#utility.yul\":6913:7036   */\n      swap2\n      swap1\n      pop\n      jump\t// out\n        /* \"#utility.yul\":7042:7168   */\n    tag_142:\n        /* \"#utility.yul\":7079:7086   */\n      0x00\n        /* \"#utility.yul\":7119:7161   */\n      0xffffffffffffffffffffffffffffffffffffffff\n        /* \"#utility.yul\":7112:7117   */\n      dup3\n        /* \"#utility.yul\":7108:7162   */\n      and\n        /* \"#utility.yul\":7097:7162   */\n      swap1\n      pop\n        /* \"#utility.yul\":7042:7168   */\n      swap2\n      swap1\n      pop\n      jump\t// out\n        /* \"#utility.yul\":7174:7251   */\n    tag_115:\n        /* \"#utility.yul\":7211:7218   */\n      0x00\n        /* \"#utility.yul\":7240:7245   */\n      dup2\n        /* \"#utility.yul\":7229:7245   */\n      swap1\n      pop\n        /* \"#utility.yul\":7174:7251   */\n      swap2\n      swap1\n      pop\n      jump\t// out\n        /* \"#utility.yul\":7257:7380   */\n    tag_101:\n        /* \"#utility.yul\":7311:7320   */\n      0x00\n        /* \"#utility.yul\":7344:7374   */\n      tag_151\n        /* \"#utility.yul\":7368:7373   */\n      dup3\n        /* \"#utility.yul\":7344:7374   */\n      tag_144\n      jump\t// in\n    tag_151:\n        /* \"#utility.yul\":7331:7374   */\n      swap1\n      pop\n        /* \"#utility.yul\":7257:7380   */\n      swap2\n      swap1\n      pop\n      jump\t// out\n        /* \"#utility.yul\":7386:7540   */\n    tag_45:\n        /* \"#utility.yul\":7470:7476   */\n      dup3\n        /* \"#utility.yul\":7465:7468   */\n      dup2\n        /* \"#utility.yul\":7460:7463   */\n      dup4\n        /* \"#utility.yul\":7447:7477   */\n      calldatacopy\n        /* \"#utility.yul\":7532:7533   */\n      0x00\n        /* \"#utility.yul\":7523:7529   */\n      dup4\n        /* \"#utility.yul\":7518:7521   */\n      dup4\n        /* \"#utility.yul\":7514:7530   */\n      add\n        /* \"#utility.yul\":7507:7534   */\n      mstore\n        /* \"#utility.yul\":7386:7540   */\n      pop\n      pop\n      pop\n      jump\t// out\n        /* \"#utility.yul\":7546:7853   */\n    tag_109:\n        /* \"#utility.yul\":7614:7615   */\n      0x00\n        /* \"#utility.yul\":7624:7737   */\n    tag_154:\n        /* \"#utility.yul\":7638:7644   */\n      dup4\n        /* \"#utility.yul\":7635:7636   */\n      dup2\n        /* \"#utility.yul\":7632:7645   */\n      lt\n        /* \"#utility.yul\":7624:7737   */\n      iszero\n      tag_156\n      jumpi\n        /* \"#utility.yul\":7723:7724   */\n      dup1\n        /* \"#utility.yul\":7718:7721   */\n      dup3\n        /* \"#utility.yul\":7714:7725   */\n      add\n        /* \"#utility.yul\":7708:7726   */\n      mload\n        /* \"#utility.yul\":7704:7705   */\n      dup2\n        /* \"#utility.yul\":7699:7702   */\n      dup5\n        /* \"#utility.yul\":7695:7706   */\n      add\n        /* \"#utility.yul\":7688:7727   */\n      mstore\n        /* \"#utility.yul\":7660:7662   */\n      0x20\n        /* \"#utility.yul\":7657:7658   */\n      dup2\n        /* \"#utility.yul\":7653:7663   */\n      add\n        /* \"#utility.yul\":7648:7663   */\n      swap1\n      pop\n        /* \"#utility.yul\":7624:7737   */\n      jump(tag_154)\n    tag_156:\n        /* \"#utility.yul\":7755:7761   */\n      dup4\n        /* \"#utility.yul\":7752:7753   */\n      dup2\n        /* \"#utility.yul\":7749:7762   */\n      gt\n        /* \"#utility.yul\":7746:7847   */\n      iszero\n      tag_157\n      jumpi\n        /* \"#utility.yul\":7835:7836   */\n      0x00\n        /* \"#utility.yul\":7826:7832   */\n      dup5\n        /* \"#utility.yul\":7821:7824   */\n      dup5\n        /* \"#utility.yul\":7817:7833   */\n      add\n        /* \"#utility.yul\":7810:7837   */\n      mstore\n        /* \"#utility.yul\":7746:7847   */\n    tag_157:\n        /* \"#utility.yul\":7595:7853   */\n      pop\n        /* \"#utility.yul\":7546:7853   */\n      pop\n      pop\n      pop\n      jump\t// out\n        /* \"#utility.yul\":7859:8179   */\n    tag_24:\n        /* \"#utility.yul\":7903:7909   */\n      0x00\n        /* \"#utility.yul\":7940:7941   */\n      0x02\n        /* \"#utility.yul\":7934:7938   */\n      dup3\n        /* \"#utility.yul\":7930:7942   */\n      div\n        /* \"#utility.yul\":7920:7942   */\n      swap1\n      pop\n        /* \"#utility.yul\":7987:7988   */\n      0x01\n        /* \"#utility.yul\":7981:7985   */\n      dup3\n        /* \"#utility.yul\":7977:7989   */\n      and\n        /* \"#utility.yul\":8008:8026   */\n      dup1\n        /* \"#utility.yul\":7998:8079   */\n      tag_159\n      jumpi\n        /* \"#utility.yul\":8064:8068   */\n      0x7f\n        /* \"#utility.yul\":8056:8062   */\n      dup3\n        /* \"#utility.yul\":8052:8069   */\n      and\n        /* \"#utility.yul\":8042:8069   */\n      swap2\n      pop\n        /* \"#utility.yul\":7998:8079   */\n    tag_159:\n        /* \"#utility.yul\":8126:8128   */\n      0x20\n        /* \"#utility.yul\":8118:8124   */\n      dup3\n        /* \"#utility.yul\":8115:8129   */\n      lt\n        /* \"#utility.yul\":8095:8113   */\n      dup2\n        /* \"#utility.yul\":8092:8130   */\n      eq\n        /* \"#utility.yul\":8089:8173   */\n      iszero\n      tag_160\n      jumpi\n        /* \"#utility.yul\":8145:8163   */\n      tag_161\n      tag_162\n      jump\t// in\n    tag_161:\n        /* \"#utility.yul\":8089:8173   */\n    tag_160:\n        /* \"#utility.yul\":7910:8179   */\n      pop\n        /* \"#utility.yul\":7859:8179   */\n      swap2\n      swap1\n      pop\n      jump\t// out\n        /* \"#utility.yul\":8185:8466   */\n    tag_130:\n        /* \"#utility.yul\":8268:8295   */\n      tag_164\n        /* \"#utility.yul\":8290:8294   */\n      dup3\n        /* \"#utility.yul\":8268:8295   */\n      tag_111\n      jump\t// in\n    tag_164:\n        /* \"#utility.yul\":8260:8266   */\n      dup2\n        /* \"#utility.yul\":8256:8296   */\n      add\n        /* \"#utility.yul\":8398:8404   */\n      dup2\n        /* \"#utility.yul\":8386:8396   */\n      dup2\n        /* \"#utility.yul\":8383:8405   */\n      lt\n        /* \"#utility.yul\":8362:8380   */\n      0xffffffffffffffff\n        /* \"#utility.yul\":8350:8360   */\n      dup3\n        /* \"#utility.yul\":8347:8381   */\n      gt\n        /* \"#utility.yul\":8344:8406   */\n      or\n        /* \"#utility.yul\":8341:8429   */\n      iszero\n      tag_165\n      jumpi\n        /* \"#utility.yul\":8409:8427   */\n      tag_166\n      tag_135\n      jump\t// in\n    tag_166:\n        /* \"#utility.yul\":8341:8429   */\n    tag_165:\n        /* \"#utility.yul\":8449:8459   */\n      dup1\n        /* \"#utility.yul\":8445:8447   */\n      0x40\n        /* \"#utility.yul\":8438:8460   */\n      mstore\n        /* \"#utility.yul\":8228:8466   */\n      pop\n        /* \"#utility.yul\":8185:8466   */\n      pop\n      pop\n      jump\t// out\n        /* \"#utility.yul\":8472:8652   */\n    tag_167:\n        /* \"#utility.yul\":8520:8597   */\n      0x4e487b7100000000000000000000000000000000000000000000000000000000\n        /* \"#utility.yul\":8517:8518   */\n      0x00\n        /* \"#utility.yul\":8510:8598   */\n      mstore\n        /* \"#utility.yul\":8617:8621   */\n      0x21\n        /* \"#utility.yul\":8614:8615   */\n      0x04\n        /* \"#utility.yul\":8607:8622   */\n      mstore\n        /* \"#utility.yul\":8641:8645   */\n      0x24\n        /* \"#utility.yul\":8638:8639   */\n      0x00\n        /* \"#utility.yul\":8631:8646   */\n      revert\n        /* \"#utility.yul\":8658:8838   */\n    tag_162:\n        /* \"#utility.yul\":8706:8783   */\n      0x4e487b7100000000000000000000000000000000000000000000000000000000\n        /* \"#utility.yul\":8703:8704   */\n      0x00\n        /* \"#utility.yul\":8696:8784   */\n      mstore\n        /* \"#utility.yul\":8803:8807   */\n      0x22\n        /* \"#utility.yul\":8800:8801   */\n      0x04\n        /* \"#utility.yul\":8793:8808   */\n      mstore\n        /* \"#utility.yul\":8827:8831   */\n      0x24\n        /* \"#utility.yul\":8824:8825   */\n      0x00\n        /* \"#utility.yul\":8817:8832   */\n      revert\n        /* \"#utility.yul\":8844:9024   */\n    tag_135:\n        /* \"#utility.yul\":8892:8969   */\n      0x4e487b7100000000000000000000000000000000000000000000000000000000\n        /* \"#utility.yul\":8889:8890   */\n      0x00\n        /* \"#utility.yul\":8882:8970   */\n      mstore\n        /* \"#utility.yul\":8989:8993   */\n      0x41\n        /* \"#utility.yul\":8986:8987   */\n      0x04\n        /* \"#utility.yul\":8979:8994   */\n      mstore\n        /* \"#utility.yul\":9013:9017   */\n      0x24\n        /* \"#utility.yul\":9010:9011   */\n      0x00\n        /* \"#utility.yul\":9003:9018   */\n      revert\n        /* \"#utility.yul\":9030:9147   */\n    tag_58:\n        /* \"#utility.yul\":9139:9140   */\n      0x00\n        /* \"#utility.yul\":9136:9137   */\n      dup1\n        /* \"#utility.yul\":9129:9141   */\n      revert\n        /* \"#utility.yul\":9153:9270   */\n    tag_64:\n        /* \"#utility.yul\":9262:9263   */\n      0x00\n        /* \"#utility.yul\":9259:9260   */\n      dup1\n        /* \"#utility.yul\":9252:9264   */\n      revert\n        /* \"#utility.yul\":9276:9393   */\n    tag_71:\n        /* \"#utility.yul\":9385:9386   */\n      0x00\n        /* \"#utility.yul\":9382:9383   */\n      dup1\n        /* \"#utility.yul\":9375:9387   */\n      revert\n        /* \"#utility.yul\":9399:9516   */\n    tag_43:\n        /* \"#utility.yul\":9508:9509   */\n      0x00\n        /* \"#utility.yul\":9505:9506   */\n      dup1\n        /* \"#utility.yul\":9498:9510   */\n      revert\n        /* \"#utility.yul\":9522:9639   */\n    tag_91:\n        /* \"#utility.yul\":9631:9632   */\n      0x00\n        /* \"#utility.yul\":9628:9629   */\n      dup1\n        /* \"#utility.yul\":9621:9633   */\n      revert\n        /* \"#utility.yul\":9645:9762   */\n    tag_83:\n        /* \"#utility.yul\":9754:9755   */\n      0x00\n        /* \"#utility.yul\":9751:9752   */\n      dup1\n        /* \"#utility.yul\":9744:9756   */\n      revert\n        /* \"#utility.yul\":9768:9870   */\n    tag_111:\n        /* \"#utility.yul\":9809:9815   */\n      0x00\n        /* \"#utility.yul\":9860:9862   */\n      0x1f\n        /* \"#utility.yul\":9856:9863   */\n      not\n        /* \"#utility.yul\":9851:9853   */\n      0x1f\n        /* \"#utility.yul\":9844:9849   */\n      dup4\n        /* \"#utility.yul\":9840:9854   */\n      add\n        /* \"#utility.yul\":9836:9864   */\n      and\n        /* \"#utility.yul\":9826:9864   */\n      swap1\n      pop\n        /* \"#utility.yul\":9768:9870   */\n      swap2\n      swap1\n      pop\n      jump\t// out\n        /* \"#utility.yul\":9876:9987   */\n    tag_147:\n        /* \"#utility.yul\":9955:9956   */\n      0x02\n        /* \"#utility.yul\":9948:9953   */\n      dup2\n        /* \"#utility.yul\":9945:9957   */\n      lt\n        /* \"#utility.yul\":9935:9981   */\n      tag_179\n      jumpi\n        /* \"#utility.yul\":9961:9979   */\n      tag_180\n      tag_167\n      jump\t// in\n    tag_180:\n        /* \"#utility.yul\":9935:9981   */\n    tag_179:\n        /* \"#utility.yul\":9876:9987   */\n      pop\n      jump\t// out\n        /* \"#utility.yul\":9993:10115   */\n    tag_49:\n        /* \"#utility.yul\":10066:10090   */\n      tag_182\n        /* \"#utility.yul\":10084:10089   */\n      dup2\n        /* \"#utility.yul\":10066:10090   */\n      tag_139\n      jump\t// in\n    tag_182:\n        /* \"#utility.yul\":10059:10064   */\n      dup2\n        /* \"#utility.yul\":10056:10091   */\n      eq\n        /* \"#utility.yul\":10046:10109   */\n      tag_183\n      jumpi\n        /* \"#utility.yul\":10105:10106   */\n      0x00\n        /* \"#utility.yul\":10102:10103   */\n      dup1\n        /* \"#utility.yul\":10095:10107   */\n      revert\n        /* \"#utility.yul\":10046:10109   */\n    tag_183:\n        /* \"#utility.yul\":9993:10115   */\n      pop\n      jump\t// out\n        /* \"#utility.yul\":10121:10226   */\n    tag_53:\n        /* \"#utility.yul\":10200:10201   */\n      0x02\n        /* \"#utility.yul\":10193:10198   */\n      dup2\n        /* \"#utility.yul\":10190:10202   */\n      lt\n        /* \"#utility.yul\":10180:10220   */\n      tag_185\n      jumpi\n        /* \"#utility.yul\":10216:10217   */\n      0x00\n        /* \"#utility.yul\":10213:10214   */\n      dup1\n        /* \"#utility.yul\":10206:10218   */\n      revert\n        /* \"#utility.yul\":10180:10220   */\n    tag_185:\n        /* \"#utility.yul\":10121:10226   */\n      pop\n      jump\t// out\n        /* \"#utility.yul\":10232:10354   */\n    tag_79:\n        /* \"#utility.yul\":10305:10329   */\n      tag_187\n        /* \"#utility.yul\":10323:10328   */\n      dup2\n        /* \"#utility.yul\":10305:10329   */\n      tag_115\n      jump\t// in\n    tag_187:\n        /* \"#utility.yul\":10298:10303   */\n      dup2\n        /* \"#utility.yul\":10295:10330   */\n      eq\n        /* \"#utility.yul\":10285:10348   */\n      tag_188\n      jumpi\n        /* \"#utility.yul\":10344:10345   */\n      0x00\n        /* \"#utility.yul\":10341:10342   */\n      dup1\n        /* \"#utility.yul\":10334:10346   */\n      revert\n        /* \"#utility.yul\":10285:10348   */\n    tag_188:\n        /* \"#utility.yul\":10232:10354   */\n      pop\n      jump\t// out\n\n    auxdata: 0xa26469706673582212202d512943c87ba9440b47cd2ab429cf14f7c3ed9e9aa93f571261aae084c3e3d964736f6c63430008070033\n}\n",
				"bytecode": {
					"linkReferences": {},
					"object": "608060405234801561001057600080fd5b506107fe806100206000396000f3fe608060405234801561001057600080fd5b50600436106100415760003560e01c8063477f5a691461004657806379062fc814610064578063a87430ba14610094575b600080fd5b61004e6100c8565b60405161005b91906104ba565b60405180910390f35b61007e600480360381019061007991906103ca565b6100ce565b60405161008b919061049f565b60405180910390f35b6100ae60048036038101906100a9919061039d565b6100d7565b6040516100bf9594939291906104d5565b60405180910390f35b60005481565b60009392505050565b600160205280600052604060002060009150905080600001549080600101549080600201805461010690610657565b80601f016020809104026020016040519081016040528092919081815260200182805461013290610657565b801561017f5780601f106101545761010080835404028352916020019161017f565b820191906000526020600020905b81548152906001019060200180831161016257829003601f168201915b50505050509080600301805461019490610657565b80601f01602080910402602001604051908101604052809291908181526020018280546101c090610657565b801561020d5780601f106101e25761010080835404028352916020019161020d565b820191906000526020600020905b8154815290600101906020018083116101f057829003601f168201915b5050505050908060040160009054906101000a900460ff16905085565b600061023d6102388461055b565b610536565b90508281526020810184848401111561025957610258610756565b5b610264848285610615565b509392505050565b60008135905061027b8161078a565b92915050565b600081359050610290816107a1565b92915050565b600082601f8301126102ab576102aa610747565b5b81356102bb84826020860161022a565b91505092915050565b600060a082840312156102da576102d961074c565b5b6102e460a0610536565b905060006102f484828501610388565b600083015250602061030884828501610388565b602083015250604082013567ffffffffffffffff81111561032c5761032b610751565b5b61033884828501610296565b604083015250606082013567ffffffffffffffff81111561035c5761035b610751565b5b61036884828501610296565b606083015250608061037c84828501610281565b60808301525092915050565b600081359050610397816107b1565b92915050565b6000602082840312156103b3576103b2610760565b5b60006103c18482850161026c565b91505092915050565b6000806000606084860312156103e3576103e2610760565b5b60006103f18682870161026c565b935050602084013567ffffffffffffffff8111156104125761041161075b565b5b61041e868287016102c4565b925050604061042f86828701610281565b9150509250925092565b610442816105ba565b82525050565b61045181610603565b82525050565b60006104628261058c565b61046c8185610597565b935061047c818560208601610624565b61048581610765565b840191505092915050565b610499816105f9565b82525050565b60006020820190506104b46000830184610439565b92915050565b60006020820190506104cf6000830184610490565b92915050565b600060a0820190506104ea6000830188610490565b6104f76020830187610490565b81810360408301526105098186610457565b9050818103606083015261051d8185610457565b905061052c6080830184610448565b9695505050505050565b6000610540610551565b905061054c8282610689565b919050565b6000604051905090565b600067ffffffffffffffff82111561057657610575610718565b5b61057f82610765565b9050602081019050919050565b600081519050919050565b600082825260208201905092915050565b60006105b3826105d9565b9050919050565b60008115159050919050565b60008190506105d482610776565b919050565b600073ffffffffffffffffffffffffffffffffffffffff82169050919050565b6000819050919050565b600061060e826105c6565b9050919050565b82818337600083830152505050565b60005b83811015610642578082015181840152602081019050610627565b83811115610651576000848401525b50505050565b6000600282049050600182168061066f57607f821691505b60208210811415610683576106826106e9565b5b50919050565b61069282610765565b810181811067ffffffffffffffff821117156106b1576106b0610718565b5b80604052505050565b7f4e487b7100000000000000000000000000000000000000000000000000000000600052602160045260246000fd5b7f4e487b7100000000000000000000000000000000000000000000000000000000600052602260045260246000fd5b7f4e487b7100000000000000000000000000000000000000000000000000000000600052604160045260246000fd5b600080fd5b600080fd5b600080fd5b600080fd5b600080fd5b600080fd5b6000601f19601f8301169050919050565b60028110610787576107866106ba565b5b50565b610793816105a8565b811461079e57600080fd5b50565b600281106107ae57600080fd5b50565b6107ba816105f9565b81146107c557600080fd5b5056fea26469706673582212202d512943c87ba9440b47cd2ab429cf14f7c3ed9e9aa93f571261aae084c3e3d964736f6c63430008070033",
					"opcodes": "PUSH1 0x80 PUSH1 0x40 MSTORE CALLVALUE DUP1 ISZERO PUSH2 0x10 JUMPI PUSH1 0x0 DUP1 REVERT JUMPDEST POP PUSH2 0x7FE DUP1 PUSH2 0x20 PUSH1 0x0 CODECOPY PUSH1 0x0 RETURN INVALID PUSH1 0x80 PUSH1 0x40 MSTORE CALLVALUE DUP1 ISZERO PUSH2 0x10 JUMPI PUSH1 0x0 DUP1 REVERT JUMPDEST POP PUSH1 0x4 CALLDATASIZE LT PUSH2 0x41 JUMPI PUSH1 0x0 CALLDATALOAD PUSH1 0xE0 SHR DUP1 PUSH4 0x477F5A69 EQ PUSH2 0x46 JUMPI DUP1 PUSH4 0x79062FC8 EQ PUSH2 0x64 JUMPI DUP1 PUSH4 0xA87430BA EQ PUSH2 0x94 JUMPI JUMPDEST PUSH1 0x0 DUP1 REVERT JUMPDEST PUSH2 0x4E PUSH2 0xC8 JUMP JUMPDEST PUSH1 0x40 MLOAD PUSH2 0x5B SWAP2 SWAP1 PUSH2 0x4BA JUMP JUMPDEST PUSH1 0x40 MLOAD DUP1 SWAP2 SUB SWAP1 RETURN JUMPDEST PUSH2 0x7E PUSH1 0x4 DUP1 CALLDATASIZE SUB DUP2 ADD SWAP1 PUSH2 0x79 SWAP2 SWAP1 PUSH2 0x3CA JUMP JUMPDEST PUSH2 0xCE JUMP JUMPDEST PUSH1 0x40 MLOAD PUSH2 0x8B SWAP2 SWAP1 PUSH2 0x49F JUMP JUMPDEST PUSH1 0x40 MLOAD DUP1 SWAP2 SUB SWAP1 RETURN JUMPDEST PUSH2 0xAE PUSH1 0x4 DUP1 CALLDATASIZE SUB DUP2 ADD SWAP1 PUSH2 0xA9 SWAP2 SWAP1 PUSH2 0x39D JUMP JUMPDEST PUSH2 0xD7 JUMP JUMPDEST PUSH1 0x40 MLOAD PUSH2 0xBF SWAP6 SWAP5 SWAP4 SWAP3 SWAP2 SWAP1 PUSH2 0x4D5 JUMP JUMPDEST PUSH1 0x40 MLOAD DUP1 SWAP2 SUB SWAP1 RETURN JUMPDEST PUSH1 0x0 SLOAD DUP2 JUMP JUMPDEST PUSH1 0x0 SWAP4 SWAP3 POP POP POP JUMP JUMPDEST PUSH1 0x1 PUSH1 0x20 MSTORE DUP1 PUSH1 0x0 MSTORE PUSH1 0x40 PUSH1 0x0 KECCAK256 PUSH1 0x0 SWAP2 POP SWAP1 POP DUP1 PUSH1 0x0 ADD SLOAD SWAP1 DUP1 PUSH1 0x1 ADD SLOAD SWAP1 DUP1 PUSH1 0x2 ADD DUP1 SLOAD PUSH2 0x106 SWAP1 PUSH2 0x657 JUMP JUMPDEST DUP1 PUSH1 0x1F ADD PUSH1 0x20 DUP1 SWAP2 DIV MUL PUSH1 0x20 ADD PUSH1 0x40 MLOAD SWAP1 DUP2 ADD PUSH1 0x40 MSTORE DUP1 SWAP3 SWAP2 SWAP1 DUP2 DUP2 MSTORE PUSH1 0x20 ADD DUP3 DUP1 SLOAD PUSH2 0x132 SWAP1 PUSH2 0x657 JUMP JUMPDEST DUP1 ISZERO PUSH2 0x17F JUMPI DUP1 PUSH1 0x1F LT PUSH2 0x154 JUMPI PUSH2 0x100 DUP1 DUP4 SLOAD DIV MUL DUP4 MSTORE SWAP2 PUSH1 0x20 ADD SWAP2 PUSH2 0x17F JUMP JUMPDEST DUP3 ADD SWAP2 SWAP1 PUSH1 0x0 MSTORE PUSH1 0x20 PUSH1 0x0 KECCAK256 SWAP1 JUMPDEST DUP2 SLOAD DUP2 MSTORE SWAP1 PUSH1 0x1 ADD SWAP1 PUSH1 0x20 ADD DUP1 DUP4 GT PUSH2 0x162 JUMPI DUP3 SWAP1 SUB PUSH1 0x1F AND DUP3 ADD SWAP2 JUMPDEST POP POP POP POP POP SWAP1 DUP1 PUSH1 0x3 ADD DUP1 SLOAD PUSH2 0x194 SWAP1 PUSH2 0x657 JUMP JUMPDEST DUP1 PUSH1 0x1F ADD PUSH1 0x20 DUP1 SWAP2 DIV MUL PUSH1 0x20 ADD PUSH1 0x40 MLOAD SWAP1 DUP2 ADD PUSH1 0x40 MSTORE DUP1 SWAP3 SWAP2 SWAP1 DUP2 DUP2 MSTORE PUSH1 0x20 ADD DUP3 DUP1 SLOAD PUSH2 0x1C0 SWAP1 PUSH2 0x657 JUMP JUMPDEST DUP1 ISZERO PUSH2 0x20D JUMPI DUP1 PUSH1 0x1F LT PUSH2 0x1E2 JUMPI PUSH2 0x100 DUP1 DUP4 SLOAD DIV MUL DUP4 MSTORE SWAP2 PUSH1 0x20 ADD SWAP2 PUSH2 0x20D JUMP JUMPDEST DUP3 ADD SWAP2 SWAP1 PUSH1 0x0 MSTORE PUSH1 0x20 PUSH1 0x0 KECCAK256 SWAP1 JUMPDEST DUP2 SLOAD DUP2 MSTORE SWAP1 PUSH1 0x1 ADD SWAP1 PUSH1 0x20 ADD DUP1 DUP4 GT PUSH2 0x1F0 JUMPI DUP3 SWAP1 SUB PUSH1 0x1F AND DUP3 ADD SWAP2 JUMPDEST POP POP POP POP POP SWAP1 DUP1 PUSH1 0x4 ADD PUSH1 0x0 SWAP1 SLOAD SWAP1 PUSH2 0x100 EXP SWAP1 DIV PUSH1 0xFF AND SWAP1 POP DUP6 JUMP JUMPDEST PUSH1 0x0 PUSH2 0x23D PUSH2 0x238 DUP5 PUSH2 0x55B JUMP JUMPDEST PUSH2 0x536 JUMP JUMPDEST SWAP1 POP DUP3 DUP2 MSTORE PUSH1 0x20 DUP2 ADD DUP5 DUP5 DUP5 ADD GT ISZERO PUSH2 0x259 JUMPI PUSH2 0x258 PUSH2 0x756 JUMP JUMPDEST JUMPDEST PUSH2 0x264 DUP5 DUP3 DUP6 PUSH2 0x615 JUMP JUMPDEST POP SWAP4 SWAP3 POP POP POP JUMP JUMPDEST PUSH1 0x0 DUP2 CALLDATALOAD SWAP1 POP PUSH2 0x27B DUP2 PUSH2 0x78A JUMP JUMPDEST SWAP3 SWAP2 POP POP JUMP JUMPDEST PUSH1 0x0 DUP2 CALLDATALOAD SWAP1 POP PUSH2 0x290 DUP2 PUSH2 0x7A1 JUMP JUMPDEST SWAP3 SWAP2 POP POP JUMP JUMPDEST PUSH1 0x0 DUP3 PUSH1 0x1F DUP4 ADD SLT PUSH2 0x2AB JUMPI PUSH2 0x2AA PUSH2 0x747 JUMP JUMPDEST JUMPDEST DUP2 CALLDATALOAD PUSH2 0x2BB DUP5 DUP3 PUSH1 0x20 DUP7 ADD PUSH2 0x22A JUMP JUMPDEST SWAP2 POP POP SWAP3 SWAP2 POP POP JUMP JUMPDEST PUSH1 0x0 PUSH1 0xA0 DUP3 DUP5 SUB SLT ISZERO PUSH2 0x2DA JUMPI PUSH2 0x2D9 PUSH2 0x74C JUMP JUMPDEST JUMPDEST PUSH2 0x2E4 PUSH1 0xA0 PUSH2 0x536 JUMP JUMPDEST SWAP1 POP PUSH1 0x0 PUSH2 0x2F4 DUP5 DUP3 DUP6 ADD PUSH2 0x388 JUMP JUMPDEST PUSH1 0x0 DUP4 ADD MSTORE POP PUSH1 0x20 PUSH2 0x308 DUP5 DUP3 DUP6 ADD PUSH2 0x388 JUMP JUMPDEST PUSH1 0x20 DUP4 ADD MSTORE POP PUSH1 0x40 DUP3 ADD CALLDATALOAD PUSH8 0xFFFFFFFFFFFFFFFF DUP2 GT ISZERO PUSH2 0x32C JUMPI PUSH2 0x32B PUSH2 0x751 JUMP JUMPDEST JUMPDEST PUSH2 0x338 DUP5 DUP3 DUP6 ADD PUSH2 0x296 JUMP JUMPDEST PUSH1 0x40 DUP4 ADD MSTORE POP PUSH1 0x60 DUP3 ADD CALLDATALOAD PUSH8 0xFFFFFFFFFFFFFFFF DUP2 GT ISZERO PUSH2 0x35C JUMPI PUSH2 0x35B PUSH2 0x751 JUMP JUMPDEST JUMPDEST PUSH2 0x368 DUP5 DUP3 DUP6 ADD PUSH2 0x296 JUMP JUMPDEST PUSH1 0x60 DUP4 ADD MSTORE POP PUSH1 0x80 PUSH2 0x37C DUP5 DUP3 DUP6 ADD PUSH2 0x281 JUMP JUMPDEST PUSH1 0x80 DUP4 ADD MSTORE POP SWAP3 SWAP2 POP POP JUMP JUMPDEST PUSH1 0x0 DUP2 CALLDATALOAD SWAP1 POP PUSH2 0x397 DUP2 PUSH2 0x7B1 JUMP JUMPDEST SWAP3 SWAP2 POP POP JUMP JUMPDEST PUSH1 0x0 PUSH1 0x20 DUP3 DUP5 SUB SLT ISZERO PUSH2 0x3B3 JUMPI PUSH2 0x3B2 PUSH2 0x760 JUMP JUMPDEST JUMPDEST PUSH1 0x0 PUSH2 0x3C1 DUP5 DUP3 DUP6 ADD PUSH2 0x26C JUMP JUMPDEST SWAP2 POP POP SWAP3 SWAP2 POP POP JUMP JUMPDEST PUSH1 0x0 DUP1 PUSH1 0x0 PUSH1 0x60 DUP5 DUP7 SUB SLT ISZERO PUSH2 0x3E3 JUMPI PUSH2 0x3E2 PUSH2 0x760 JUMP JUMPDEST JUMPDEST PUSH1 0x0 PUSH2 0x3F1 DUP7 DUP3 DUP8 ADD PUSH2 0x26C JUMP JUMPDEST SWAP4 POP POP PUSH1 0x20 DUP5 ADD CALLDATALOAD PUSH8 0xFFFFFFFFFFFFFFFF DUP2 GT ISZERO PUSH2 0x412 JUMPI PUSH2 0x411 PUSH2 0x75B JUMP JUMPDEST JUMPDEST PUSH2 0x41E DUP7 DUP3 DUP8 ADD PUSH2 0x2C4 JUMP JUMPDEST SWAP3 POP POP PUSH1 0x40 PUSH2 0x42F DUP7 DUP3 DUP8 ADD PUSH2 0x281 JUMP JUMPDEST SWAP2 POP POP SWAP3 POP SWAP3 POP SWAP3 JUMP JUMPDEST PUSH2 0x442 DUP2 PUSH2 0x5BA JUMP JUMPDEST DUP3 MSTORE POP POP JUMP JUMPDEST PUSH2 0x451 DUP2 PUSH2 0x603 JUMP JUMPDEST DUP3 MSTORE POP POP JUMP JUMPDEST PUSH1 0x0 PUSH2 0x462 DUP3 PUSH2 0x58C JUMP JUMPDEST PUSH2 0x46C DUP2 DUP6 PUSH2 0x597 JUMP JUMPDEST SWAP4 POP PUSH2 0x47C DUP2 DUP6 PUSH1 0x20 DUP7 ADD PUSH2 0x624 JUMP JUMPDEST PUSH2 0x485 DUP2 PUSH2 0x765 JUMP JUMPDEST DUP5 ADD SWAP2 POP POP SWAP3 SWAP2 POP POP JUMP JUMPDEST PUSH2 0x499 DUP2 PUSH2 0x5F9 JUMP JUMPDEST DUP3 MSTORE POP POP JUMP JUMPDEST PUSH1 0x0 PUSH1 0x20 DUP3 ADD SWAP1 POP PUSH2 0x4B4 PUSH1 0x0 DUP4 ADD DUP5 PUSH2 0x439 JUMP JUMPDEST SWAP3 SWAP2 POP POP JUMP JUMPDEST PUSH1 0x0 PUSH1 0x20 DUP3 ADD SWAP1 POP PUSH2 0x4CF PUSH1 0x0 DUP4 ADD DUP5 PUSH2 0x490 JUMP JUMPDEST SWAP3 SWAP2 POP POP JUMP JUMPDEST PUSH1 0x0 PUSH1 0xA0 DUP3 ADD SWAP1 POP PUSH2 0x4EA PUSH1 0x0 DUP4 ADD DUP9 PUSH2 0x490 JUMP JUMPDEST PUSH2 0x4F7 PUSH1 0x20 DUP4 ADD DUP8 PUSH2 0x490 JUMP JUMPDEST DUP2 DUP2 SUB PUSH1 0x40 DUP4 ADD MSTORE PUSH2 0x509 DUP2 DUP7 PUSH2 0x457 JUMP JUMPDEST SWAP1 POP DUP2 DUP2 SUB PUSH1 0x60 DUP4 ADD MSTORE PUSH2 0x51D DUP2 DUP6 PUSH2 0x457 JUMP JUMPDEST SWAP1 POP PUSH2 0x52C PUSH1 0x80 DUP4 ADD DUP5 PUSH2 0x448 JUMP JUMPDEST SWAP7 SWAP6 POP POP POP POP POP POP JUMP JUMPDEST PUSH1 0x0 PUSH2 0x540 PUSH2 0x551 JUMP JUMPDEST SWAP1 POP PUSH2 0x54C DUP3 DUP3 PUSH2 0x689 JUMP JUMPDEST SWAP2 SWAP1 POP JUMP JUMPDEST PUSH1 0x0 PUSH1 0x40 MLOAD SWAP1 POP SWAP1 JUMP JUMPDEST PUSH1 0x0 PUSH8 0xFFFFFFFFFFFFFFFF DUP3 GT ISZERO PUSH2 0x576 JUMPI PUSH2 0x575 PUSH2 0x718 JUMP JUMPDEST JUMPDEST PUSH2 0x57F DUP3 PUSH2 0x765 JUMP JUMPDEST SWAP1 POP PUSH1 0x20 DUP2 ADD SWAP1 POP SWAP2 SWAP1 POP JUMP JUMPDEST PUSH1 0x0 DUP2 MLOAD SWAP1 POP SWAP2 SWAP1 POP JUMP JUMPDEST PUSH1 0x0 DUP3 DUP3 MSTORE PUSH1 0x20 DUP3 ADD SWAP1 POP SWAP3 SWAP2 POP POP JUMP JUMPDEST PUSH1 0x0 PUSH2 0x5B3 DUP3 PUSH2 0x5D9 JUMP JUMPDEST SWAP1 POP SWAP2 SWAP1 POP JUMP JUMPDEST PUSH1 0x0 DUP2 ISZERO ISZERO SWAP1 POP SWAP2 SWAP1 POP JUMP JUMPDEST PUSH1 0x0 DUP2 SWAP1 POP PUSH2 0x5D4 DUP3 PUSH2 0x776 JUMP JUMPDEST SWAP2 SWAP1 POP JUMP JUMPDEST PUSH1 0x0 PUSH20 0xFFFFFFFFFFFFFFFFFFFFFFFFFFFFFFFFFFFFFFFF DUP3 AND SWAP1 POP SWAP2 SWAP1 POP JUMP JUMPDEST PUSH1 0x0 DUP2 SWAP1 POP SWAP2 SWAP1 POP JUMP JUMPDEST PUSH1 0x0 PUSH2 0x60E DUP3 PUSH2 0x5C6 JUMP JUMPDEST SWAP1 POP SWAP2 SWAP1 POP JUMP JUMPDEST DUP3 DUP2 DUP4 CALLDATACOPY PUSH1 0x0 DUP4 DUP4 ADD MSTORE POP POP POP JUMP JUMPDEST PUSH1 0x0 JUMPDEST DUP4 DUP2 LT ISZERO PUSH2 0x642 JUMPI DUP1 DUP3 ADD MLOAD DUP2 DUP5 ADD MSTORE PUSH1 0x20 DUP2 ADD SWAP1 POP PUSH2 0x627 JUMP JUMPDEST DUP4 DUP2 GT ISZERO PUSH2 0x651 JUMPI PUSH1 0x0 DUP5 DUP5 ADD MSTORE JUMPDEST POP POP POP POP JUMP JUMPDEST PUSH1 0x0 PUSH1 0x2 DUP3 DIV SWAP1 POP PUSH1 0x1 DUP3 AND DUP1 PUSH2 0x66F JUMPI PUSH1 0x7F DUP3 AND SWAP2 POP JUMPDEST PUSH1 0x20 DUP3 LT DUP2 EQ ISZERO PUSH2 0x683 JUMPI PUSH2 0x682 PUSH2 0x6E9 JUMP JUMPDEST JUMPDEST POP SWAP2 SWAP1 POP JUMP JUMPDEST PUSH2 0x692 DUP3 PUSH2 0x765 JUMP JUMPDEST DUP2 ADD DUP2 DUP2 LT PUSH8 0xFFFFFFFFFFFFFFFF DUP3 GT OR ISZERO PUSH2 0x6B1 JUMPI PUSH2 0x6B0 PUSH2 0x718 JUMP JUMPDEST JUMPDEST DUP1 PUSH1 0x40 MSTORE POP POP POP JUMP JUMPDEST PUSH32 0x4E487B7100000000000000000000000000000000000000000000000000000000 PUSH1 0x0 MSTORE PUSH1 0x21 PUSH1 0x4 MSTORE PUSH1 0x24 PUSH1 0x0 REVERT JUMPDEST PUSH32 0x4E487B7100000000000000000000000000000000000000000000000000000000 PUSH1 0x0 MSTORE PUSH1 0x22 PUSH1 0x4 MSTORE PUSH1 0x24 PUSH1 0x0 REVERT JUMPDEST PUSH32 0x4E487B7100000000000000000000000000000000000000000000000000000000 PUSH1 0x0 MSTORE PUSH1 0x41 PUSH1 0x4 MSTORE PUSH1 0x24 PUSH1 0x0 REVERT JUMPDEST PUSH1 0x0 DUP1 REVERT JUMPDEST PUSH1 0x0 DUP1 REVERT JUMPDEST PUSH1 0x0 DUP1 REVERT JUMPDEST PUSH1 0x0 DUP1 REVERT JUMPDEST PUSH1 0x0 DUP1 REVERT JUMPDEST PUSH1 0x0 DUP1 REVERT JUMPDEST PUSH1 0x0 PUSH1 0x1F NOT PUSH1 0x1F DUP4 ADD AND SWAP1 POP SWAP2 SWAP1 POP JUMP JUMPDEST PUSH1 0x2 DUP2 LT PUSH2 0x787 JUMPI PUSH2 0x786 PUSH2 0x6BA JUMP JUMPDEST JUMPDEST POP JUMP JUMPDEST PUSH2 0x793 DUP2 PUSH2 0x5A8 JUMP JUMPDEST DUP2 EQ PUSH2 0x79E JUMPI PUSH1 0x0 DUP1 REVERT JUMPDEST POP JUMP JUMPDEST PUSH1 0x2 DUP2 LT PUSH2 0x7AE JUMPI PUSH1 0x0 DUP1 REVERT JUMPDEST POP JUMP JUMPDEST PUSH2 0x7BA DUP2 PUSH2 0x5F9 JUMP JUMPDEST DUP2 EQ PUSH2 0x7C5 JUMPI PUSH1 0x0 DUP1 REVERT JUMPDEST POP JUMP INVALID LOG2 PUSH5 0x6970667358 0x22 SLT KECCAK256 0x2D MLOAD 0x29 NUMBER 0xC8 PUSH28 0xA9440B47CD2AB429CF14F7C3ED9E9AA93F571261AAE084C3E3D96473 PUSH16 0x6C634300080700330000000000000000 "
				},
				"gasEstimates": {
					"creation": {
						"codeDepositCost": "409200",
						"executionCost": "443",
						"totalCost": "409643"
					},
					"external": {
						"addUser(address,(uint256,uint256,string,string,uint8),uint8)": "infinite",
						"countStudents()": "2407",
						"users(address)": "infinite"
					}
				},
				"methodIdentifiers": {
					"addUser(address,(uint256,uint256,string,string,uint8),uint8)": "79062fc8",
					"countStudents()": "477f5a69",
					"users(address)": "a87430ba"
				}
			},
			"userdoc": {
				"kind": "user",
				"methods": {},
				"version": 1
			}
		}
	}
}