{
	"Variados/Polimorfismo.sol": {
		"Polimorfismo": {
			"abi": [
				{
					"inputs": [],
					"name": "resultado",
					"outputs": [
						{
							"internalType": "uint256",
							"name": "",
							"type": "uint256"
						}
					],
					"stateMutability": "view",
					"type": "function"
				},
				{
					"inputs": [
						{
							"internalType": "uint256",
							"name": "numero1",
							"type": "uint256"
						},
						{
							"internalType": "uint256",
							"name": "numero2",
							"type": "uint256"
						},
						{
							"internalType": "address",
							"name": "direccionContrato",
							"type": "address"
						}
					],
					"name": "sumarDesdeContrato",
					"outputs": [
						{
							"internalType": "uint256",
							"name": "",
							"type": "uint256"
						}
					],
					"stateMutability": "nonpayable",
					"type": "function"
				}
			],
			"devdoc": {
				"kind": "dev",
				"methods": {},
				"version": 1
			},
			"evm": {
				"assembly": "    /* \"Variados/Polimorfismo.sol\":92:364  contract Polimorfismo {... */\n  mstore(0x40, 0x80)\n  callvalue\n  dup1\n  iszero\n  tag_1\n  jumpi\n  0x00\n  dup1\n  revert\ntag_1:\n  pop\n  dataSize(sub_0)\n  dup1\n  dataOffset(sub_0)\n  0x00\n  codecopy\n  0x00\n  return\nstop\n\nsub_0: assembly {\n        /* \"Variados/Polimorfismo.sol\":92:364  contract Polimorfismo {... */\n      mstore(0x40, 0x80)\n      callvalue\n      dup1\n      iszero\n      tag_1\n      jumpi\n      0x00\n      dup1\n      revert\n    tag_1:\n      pop\n      jumpi(tag_2, lt(calldatasize, 0x04))\n      shr(0xe0, calldataload(0x00))\n      dup1\n      0x3d78a1d0\n      eq\n      tag_3\n      jumpi\n      dup1\n      0x5206f100\n      eq\n      tag_4\n      jumpi\n    tag_2:\n      0x00\n      dup1\n      revert\n        /* \"Variados/Polimorfismo.sol\":149:361  function sumarDesdeContrato(uint numero1 , uint numero2, address direccionContrato) public returns(uint) {... */\n    tag_3:\n      tag_5\n      0x04\n      dup1\n      calldatasize\n      sub\n      dup2\n      add\n      swap1\n      tag_6\n      swap2\n      swap1\n      tag_7\n      jump\t// in\n    tag_6:\n      tag_8\n      jump\t// in\n    tag_5:\n      mload(0x40)\n      tag_9\n      swap2\n      swap1\n      tag_10\n      jump\t// in\n    tag_9:\n      mload(0x40)\n      dup1\n      swap2\n      sub\n      swap1\n      return\n        /* \"Variados/Polimorfismo.sol\":121:142  uint public resultado */\n    tag_4:\n      tag_11\n      tag_12\n      jump\t// in\n    tag_11:\n      mload(0x40)\n      tag_13\n      swap2\n      swap1\n      tag_10\n      jump\t// in\n    tag_13:\n      mload(0x40)\n      dup1\n      swap2\n      sub\n      swap1\n      return\n        /* \"Variados/Polimorfismo.sol\":149:361  function sumarDesdeContrato(uint numero1 , uint numero2, address direccionContrato) public returns(uint) {... */\n    tag_8:\n        /* \"Variados/Polimorfismo.sol\":248:252  uint */\n      0x00\n        /* \"Variados/Polimorfismo.sol\":264:275  ISuma iSuma */\n      dup1\n        /* \"Variados/Polimorfismo.sol\":285:302  direccionContrato */\n      dup3\n        /* \"Variados/Polimorfismo.sol\":264:303  ISuma iSuma =  ISuma(direccionContrato) */\n      swap1\n      pop\n        /* \"Variados/Polimorfismo.sol\":325:330  iSuma */\n      dup1\n        /* \"Variados/Polimorfismo.sol\":325:336  iSuma.sumar */\n      0xffffffffffffffffffffffffffffffffffffffff\n      and\n      0xfd61371e\n        /* \"Variados/Polimorfismo.sol\":337:344  numero1 */\n      dup7\n        /* \"Variados/Polimorfismo.sol\":346:353  numero2 */\n      dup7\n        /* \"Variados/Polimorfismo.sol\":325:354  iSuma.sumar(numero1, numero2) */\n      mload(0x40)\n      dup4\n      0xffffffff\n      and\n      0xe0\n      shl\n      dup2\n      mstore\n      0x04\n      add\n      tag_15\n      swap3\n      swap2\n      swap1\n      tag_16\n      jump\t// in\n    tag_15:\n      0x20\n      mload(0x40)\n      dup1\n      dup4\n      sub\n      dup2\n      0x00\n      dup8\n      dup1\n      extcodesize\n      iszero\n      dup1\n      iszero\n      tag_17\n      jumpi\n      0x00\n      dup1\n      revert\n    tag_17:\n      pop\n      gas\n      call\n      iszero\n      dup1\n      iszero\n      tag_19\n      jumpi\n      returndatasize\n      0x00\n      dup1\n      returndatacopy\n      revert(0x00, returndatasize)\n    tag_19:\n      pop\n      pop\n      pop\n      pop\n      mload(0x40)\n      returndatasize\n      not(0x1f)\n      0x1f\n      dup3\n      add\n      and\n      dup3\n      add\n      dup1\n      0x40\n      mstore\n      pop\n      dup2\n      add\n      swap1\n      tag_20\n      swap2\n      swap1\n      tag_21\n      jump\t// in\n    tag_20:\n        /* \"Variados/Polimorfismo.sol\":313:322  resultado */\n      0x00\n        /* \"Variados/Polimorfismo.sol\":313:354  resultado = iSuma.sumar(numero1, numero2) */\n      dup2\n      swap1\n      sstore\n      pop\n        /* \"Variados/Polimorfismo.sol\":254:361  {... */\n      pop\n        /* \"Variados/Polimorfismo.sol\":149:361  function sumarDesdeContrato(uint numero1 , uint numero2, address direccionContrato) public returns(uint) {... */\n      swap4\n      swap3\n      pop\n      pop\n      pop\n      jump\t// out\n        /* \"Variados/Polimorfismo.sol\":121:142  uint public resultado */\n    tag_12:\n      sload(0x00)\n      dup2\n      jump\t// out\n        /* \"#utility.yul\":7:146   */\n    tag_23:\n        /* \"#utility.yul\":53:58   */\n      0x00\n        /* \"#utility.yul\":91:97   */\n      dup2\n        /* \"#utility.yul\":78:98   */\n      calldataload\n        /* \"#utility.yul\":69:98   */\n      swap1\n      pop\n        /* \"#utility.yul\":107:140   */\n      tag_25\n        /* \"#utility.yul\":134:139   */\n      dup2\n        /* \"#utility.yul\":107:140   */\n      tag_26\n      jump\t// in\n    tag_25:\n        /* \"#utility.yul\":7:146   */\n      swap3\n      swap2\n      pop\n      pop\n      jump\t// out\n        /* \"#utility.yul\":152:291   */\n    tag_27:\n        /* \"#utility.yul\":198:203   */\n      0x00\n        /* \"#utility.yul\":236:242   */\n      dup2\n        /* \"#utility.yul\":223:243   */\n      calldataload\n        /* \"#utility.yul\":214:243   */\n      swap1\n      pop\n        /* \"#utility.yul\":252:285   */\n      tag_29\n        /* \"#utility.yul\":279:284   */\n      dup2\n        /* \"#utility.yul\":252:285   */\n      tag_30\n      jump\t// in\n    tag_29:\n        /* \"#utility.yul\":152:291   */\n      swap3\n      swap2\n      pop\n      pop\n      jump\t// out\n        /* \"#utility.yul\":297:440   */\n    tag_31:\n        /* \"#utility.yul\":354:359   */\n      0x00\n        /* \"#utility.yul\":385:391   */\n      dup2\n        /* \"#utility.yul\":379:392   */\n      mload\n        /* \"#utility.yul\":370:392   */\n      swap1\n      pop\n        /* \"#utility.yul\":401:434   */\n      tag_33\n        /* \"#utility.yul\":428:433   */\n      dup2\n        /* \"#utility.yul\":401:434   */\n      tag_30\n      jump\t// in\n    tag_33:\n        /* \"#utility.yul\":297:440   */\n      swap3\n      swap2\n      pop\n      pop\n      jump\t// out\n        /* \"#utility.yul\":446:797   */\n    tag_21:\n        /* \"#utility.yul\":516:522   */\n      0x00\n        /* \"#utility.yul\":565:567   */\n      0x20\n        /* \"#utility.yul\":553:562   */\n      dup3\n        /* \"#utility.yul\":544:551   */\n      dup5\n        /* \"#utility.yul\":540:563   */\n      sub\n        /* \"#utility.yul\":536:568   */\n      slt\n        /* \"#utility.yul\":533:652   */\n      iszero\n      tag_35\n      jumpi\n        /* \"#utility.yul\":571:650   */\n      tag_36\n      tag_37\n      jump\t// in\n    tag_36:\n        /* \"#utility.yul\":533:652   */\n    tag_35:\n        /* \"#utility.yul\":691:692   */\n      0x00\n        /* \"#utility.yul\":716:780   */\n      tag_38\n        /* \"#utility.yul\":772:779   */\n      dup5\n        /* \"#utility.yul\":763:769   */\n      dup3\n        /* \"#utility.yul\":752:761   */\n      dup6\n        /* \"#utility.yul\":748:770   */\n      add\n        /* \"#utility.yul\":716:780   */\n      tag_31\n      jump\t// in\n    tag_38:\n        /* \"#utility.yul\":706:780   */\n      swap2\n      pop\n        /* \"#utility.yul\":662:790   */\n      pop\n        /* \"#utility.yul\":446:797   */\n      swap3\n      swap2\n      pop\n      pop\n      jump\t// out\n        /* \"#utility.yul\":803:1422   */\n    tag_7:\n        /* \"#utility.yul\":880:886   */\n      0x00\n        /* \"#utility.yul\":888:894   */\n      dup1\n        /* \"#utility.yul\":896:902   */\n      0x00\n        /* \"#utility.yul\":945:947   */\n      0x60\n        /* \"#utility.yul\":933:942   */\n      dup5\n        /* \"#utility.yul\":924:931   */\n      dup7\n        /* \"#utility.yul\":920:943   */\n      sub\n        /* \"#utility.yul\":916:948   */\n      slt\n        /* \"#utility.yul\":913:1032   */\n      iszero\n      tag_40\n      jumpi\n        /* \"#utility.yul\":951:1030   */\n      tag_41\n      tag_37\n      jump\t// in\n    tag_41:\n        /* \"#utility.yul\":913:1032   */\n    tag_40:\n        /* \"#utility.yul\":1071:1072   */\n      0x00\n        /* \"#utility.yul\":1096:1149   */\n      tag_42\n        /* \"#utility.yul\":1141:1148   */\n      dup7\n        /* \"#utility.yul\":1132:1138   */\n      dup3\n        /* \"#utility.yul\":1121:1130   */\n      dup8\n        /* \"#utility.yul\":1117:1139   */\n      add\n        /* \"#utility.yul\":1096:1149   */\n      tag_27\n      jump\t// in\n    tag_42:\n        /* \"#utility.yul\":1086:1149   */\n      swap4\n      pop\n        /* \"#utility.yul\":1042:1159   */\n      pop\n        /* \"#utility.yul\":1198:1200   */\n      0x20\n        /* \"#utility.yul\":1224:1277   */\n      tag_43\n        /* \"#utility.yul\":1269:1276   */\n      dup7\n        /* \"#utility.yul\":1260:1266   */\n      dup3\n        /* \"#utility.yul\":1249:1258   */\n      dup8\n        /* \"#utility.yul\":1245:1267   */\n      add\n        /* \"#utility.yul\":1224:1277   */\n      tag_27\n      jump\t// in\n    tag_43:\n        /* \"#utility.yul\":1214:1277   */\n      swap3\n      pop\n        /* \"#utility.yul\":1169:1287   */\n      pop\n        /* \"#utility.yul\":1326:1328   */\n      0x40\n        /* \"#utility.yul\":1352:1405   */\n      tag_44\n        /* \"#utility.yul\":1397:1404   */\n      dup7\n        /* \"#utility.yul\":1388:1394   */\n      dup3\n        /* \"#utility.yul\":1377:1386   */\n      dup8\n        /* \"#utility.yul\":1373:1395   */\n      add\n        /* \"#utility.yul\":1352:1405   */\n      tag_23\n      jump\t// in\n    tag_44:\n        /* \"#utility.yul\":1342:1405   */\n      swap2\n      pop\n        /* \"#utility.yul\":1297:1415   */\n      pop\n        /* \"#utility.yul\":803:1422   */\n      swap3\n      pop\n      swap3\n      pop\n      swap3\n      jump\t// out\n        /* \"#utility.yul\":1428:1546   */\n    tag_45:\n        /* \"#utility.yul\":1515:1539   */\n      tag_47\n        /* \"#utility.yul\":1533:1538   */\n      dup2\n        /* \"#utility.yul\":1515:1539   */\n      tag_48\n      jump\t// in\n    tag_47:\n        /* \"#utility.yul\":1510:1513   */\n      dup3\n        /* \"#utility.yul\":1503:1540   */\n      mstore\n        /* \"#utility.yul\":1428:1546   */\n      pop\n      pop\n      jump\t// out\n        /* \"#utility.yul\":1552:1774   */\n    tag_10:\n        /* \"#utility.yul\":1645:1649   */\n      0x00\n        /* \"#utility.yul\":1683:1685   */\n      0x20\n        /* \"#utility.yul\":1672:1681   */\n      dup3\n        /* \"#utility.yul\":1668:1686   */\n      add\n        /* \"#utility.yul\":1660:1686   */\n      swap1\n      pop\n        /* \"#utility.yul\":1696:1767   */\n      tag_50\n        /* \"#utility.yul\":1764:1765   */\n      0x00\n        /* \"#utility.yul\":1753:1762   */\n      dup4\n        /* \"#utility.yul\":1749:1766   */\n      add\n        /* \"#utility.yul\":1740:1746   */\n      dup5\n        /* \"#utility.yul\":1696:1767   */\n      tag_45\n      jump\t// in\n    tag_50:\n        /* \"#utility.yul\":1552:1774   */\n      swap3\n      swap2\n      pop\n      pop\n      jump\t// out\n        /* \"#utility.yul\":1780:2112   */\n    tag_16:\n        /* \"#utility.yul\":1901:1905   */\n      0x00\n        /* \"#utility.yul\":1939:1941   */\n      0x40\n        /* \"#utility.yul\":1928:1937   */\n      dup3\n        /* \"#utility.yul\":1924:1942   */\n      add\n        /* \"#utility.yul\":1916:1942   */\n      swap1\n      pop\n        /* \"#utility.yul\":1952:2023   */\n      tag_52\n        /* \"#utility.yul\":2020:2021   */\n      0x00\n        /* \"#utility.yul\":2009:2018   */\n      dup4\n        /* \"#utility.yul\":2005:2022   */\n      add\n        /* \"#utility.yul\":1996:2002   */\n      dup6\n        /* \"#utility.yul\":1952:2023   */\n      tag_45\n      jump\t// in\n    tag_52:\n        /* \"#utility.yul\":2033:2105   */\n      tag_53\n        /* \"#utility.yul\":2101:2103   */\n      0x20\n        /* \"#utility.yul\":2090:2099   */\n      dup4\n        /* \"#utility.yul\":2086:2104   */\n      add\n        /* \"#utility.yul\":2077:2083   */\n      dup5\n        /* \"#utility.yul\":2033:2105   */\n      tag_45\n      jump\t// in\n    tag_53:\n        /* \"#utility.yul\":1780:2112   */\n      swap4\n      swap3\n      pop\n      pop\n      pop\n      jump\t// out\n        /* \"#utility.yul\":2199:2295   */\n    tag_56:\n        /* \"#utility.yul\":2236:2243   */\n      0x00\n        /* \"#utility.yul\":2265:2289   */\n      tag_58\n        /* \"#utility.yul\":2283:2288   */\n      dup3\n        /* \"#utility.yul\":2265:2289   */\n      tag_59\n      jump\t// in\n    tag_58:\n        /* \"#utility.yul\":2254:2289   */\n      swap1\n      pop\n        /* \"#utility.yul\":2199:2295   */\n      swap2\n      swap1\n      pop\n      jump\t// out\n        /* \"#utility.yul\":2301:2427   */\n    tag_59:\n        /* \"#utility.yul\":2338:2345   */\n      0x00\n        /* \"#utility.yul\":2378:2420   */\n      0xffffffffffffffffffffffffffffffffffffffff\n        /* \"#utility.yul\":2371:2376   */\n      dup3\n        /* \"#utility.yul\":2367:2421   */\n      and\n        /* \"#utility.yul\":2356:2421   */\n      swap1\n      pop\n        /* \"#utility.yul\":2301:2427   */\n      swap2\n      swap1\n      pop\n      jump\t// out\n        /* \"#utility.yul\":2433:2510   */\n    tag_48:\n        /* \"#utility.yul\":2470:2477   */\n      0x00\n        /* \"#utility.yul\":2499:2504   */\n      dup2\n        /* \"#utility.yul\":2488:2504   */\n      swap1\n      pop\n        /* \"#utility.yul\":2433:2510   */\n      swap2\n      swap1\n      pop\n      jump\t// out\n        /* \"#utility.yul\":2639:2756   */\n    tag_37:\n        /* \"#utility.yul\":2748:2749   */\n      0x00\n        /* \"#utility.yul\":2745:2746   */\n      dup1\n        /* \"#utility.yul\":2738:2750   */\n      revert\n        /* \"#utility.yul\":2762:2884   */\n    tag_26:\n        /* \"#utility.yul\":2835:2859   */\n      tag_66\n        /* \"#utility.yul\":2853:2858   */\n      dup2\n        /* \"#utility.yul\":2835:2859   */\n      tag_56\n      jump\t// in\n    tag_66:\n        /* \"#utility.yul\":2828:2833   */\n      dup2\n        /* \"#utility.yul\":2825:2860   */\n      eq\n        /* \"#utility.yul\":2815:2878   */\n      tag_67\n      jumpi\n        /* \"#utility.yul\":2874:2875   */\n      0x00\n        /* \"#utility.yul\":2871:2872   */\n      dup1\n        /* \"#utility.yul\":2864:2876   */\n      revert\n        /* \"#utility.yul\":2815:2878   */\n    tag_67:\n        /* \"#utility.yul\":2762:2884   */\n      pop\n      jump\t// out\n        /* \"#utility.yul\":2890:3012   */\n    tag_30:\n        /* \"#utility.yul\":2963:2987   */\n      tag_69\n        /* \"#utility.yul\":2981:2986   */\n      dup2\n        /* \"#utility.yul\":2963:2987   */\n      tag_48\n      jump\t// in\n    tag_69:\n        /* \"#utility.yul\":2956:2961   */\n      dup2\n        /* \"#utility.yul\":2953:2988   */\n      eq\n        /* \"#utility.yul\":2943:3006   */\n      tag_70\n      jumpi\n        /* \"#utility.yul\":3002:3003   */\n      0x00\n        /* \"#utility.yul\":2999:3000   */\n      dup1\n        /* \"#utility.yul\":2992:3004   */\n      revert\n        /* \"#utility.yul\":2943:3006   */\n    tag_70:\n        /* \"#utility.yul\":2890:3012   */\n      pop\n      jump\t// out\n\n    auxdata: 0xa2646970667358221220cf9b3397c7c2d5e6a840ff7722e67fd2af4281aa2b7dcec7743b1880c2b148e764736f6c63430008070033\n}\n",
				"bytecode": {
					"linkReferences": {},
					"object": "608060405234801561001057600080fd5b506102e7806100206000396000f3fe608060405234801561001057600080fd5b50600436106100365760003560e01c80633d78a1d01461003b5780635206f1001461006b575b600080fd5b6100556004803603810190610050919061019c565b610089565b60405161006291906101fe565b60405180910390f35b61007361012a565b60405161008091906101fe565b60405180910390f35b6000808290508073ffffffffffffffffffffffffffffffffffffffff1663fd61371e86866040518363ffffffff1660e01b81526004016100ca929190610219565b602060405180830381600087803b1580156100e457600080fd5b505af11580156100f8573d6000803e3d6000fd5b505050506040513d601f19601f8201168201806040525081019061011c919061016f565b600081905550509392505050565b60005481565b60008135905061013f81610283565b92915050565b6000813590506101548161029a565b92915050565b6000815190506101698161029a565b92915050565b6000602082840312156101855761018461027e565b5b60006101938482850161015a565b91505092915050565b6000806000606084860312156101b5576101b461027e565b5b60006101c386828701610145565b93505060206101d486828701610145565b92505060406101e586828701610130565b9150509250925092565b6101f881610274565b82525050565b600060208201905061021360008301846101ef565b92915050565b600060408201905061022e60008301856101ef565b61023b60208301846101ef565b9392505050565b600061024d82610254565b9050919050565b600073ffffffffffffffffffffffffffffffffffffffff82169050919050565b6000819050919050565b600080fd5b61028c81610242565b811461029757600080fd5b50565b6102a381610274565b81146102ae57600080fd5b5056fea2646970667358221220cf9b3397c7c2d5e6a840ff7722e67fd2af4281aa2b7dcec7743b1880c2b148e764736f6c63430008070033",
					"opcodes": "PUSH1 0x80 PUSH1 0x40 MSTORE CALLVALUE DUP1 ISZERO PUSH2 0x10 JUMPI PUSH1 0x0 DUP1 REVERT JUMPDEST POP PUSH2 0x2E7 DUP1 PUSH2 0x20 PUSH1 0x0 CODECOPY PUSH1 0x0 RETURN INVALID PUSH1 0x80 PUSH1 0x40 MSTORE CALLVALUE DUP1 ISZERO PUSH2 0x10 JUMPI PUSH1 0x0 DUP1 REVERT JUMPDEST POP PUSH1 0x4 CALLDATASIZE LT PUSH2 0x36 JUMPI PUSH1 0x0 CALLDATALOAD PUSH1 0xE0 SHR DUP1 PUSH4 0x3D78A1D0 EQ PUSH2 0x3B JUMPI DUP1 PUSH4 0x5206F100 EQ PUSH2 0x6B JUMPI JUMPDEST PUSH1 0x0 DUP1 REVERT JUMPDEST PUSH2 0x55 PUSH1 0x4 DUP1 CALLDATASIZE SUB DUP2 ADD SWAP1 PUSH2 0x50 SWAP2 SWAP1 PUSH2 0x19C JUMP JUMPDEST PUSH2 0x89 JUMP JUMPDEST PUSH1 0x40 MLOAD PUSH2 0x62 SWAP2 SWAP1 PUSH2 0x1FE JUMP JUMPDEST PUSH1 0x40 MLOAD DUP1 SWAP2 SUB SWAP1 RETURN JUMPDEST PUSH2 0x73 PUSH2 0x12A JUMP JUMPDEST PUSH1 0x40 MLOAD PUSH2 0x80 SWAP2 SWAP1 PUSH2 0x1FE JUMP JUMPDEST PUSH1 0x40 MLOAD DUP1 SWAP2 SUB SWAP1 RETURN JUMPDEST PUSH1 0x0 DUP1 DUP3 SWAP1 POP DUP1 PUSH20 0xFFFFFFFFFFFFFFFFFFFFFFFFFFFFFFFFFFFFFFFF AND PUSH4 0xFD61371E DUP7 DUP7 PUSH1 0x40 MLOAD DUP4 PUSH4 0xFFFFFFFF AND PUSH1 0xE0 SHL DUP2 MSTORE PUSH1 0x4 ADD PUSH2 0xCA SWAP3 SWAP2 SWAP1 PUSH2 0x219 JUMP JUMPDEST PUSH1 0x20 PUSH1 0x40 MLOAD DUP1 DUP4 SUB DUP2 PUSH1 0x0 DUP8 DUP1 EXTCODESIZE ISZERO DUP1 ISZERO PUSH2 0xE4 JUMPI PUSH1 0x0 DUP1 REVERT JUMPDEST POP GAS CALL ISZERO DUP1 ISZERO PUSH2 0xF8 JUMPI RETURNDATASIZE PUSH1 0x0 DUP1 RETURNDATACOPY RETURNDATASIZE PUSH1 0x0 REVERT JUMPDEST POP POP POP POP PUSH1 0x40 MLOAD RETURNDATASIZE PUSH1 0x1F NOT PUSH1 0x1F DUP3 ADD AND DUP3 ADD DUP1 PUSH1 0x40 MSTORE POP DUP2 ADD SWAP1 PUSH2 0x11C SWAP2 SWAP1 PUSH2 0x16F JUMP JUMPDEST PUSH1 0x0 DUP2 SWAP1 SSTORE POP POP SWAP4 SWAP3 POP POP POP JUMP JUMPDEST PUSH1 0x0 SLOAD DUP2 JUMP JUMPDEST PUSH1 0x0 DUP2 CALLDATALOAD SWAP1 POP PUSH2 0x13F DUP2 PUSH2 0x283 JUMP JUMPDEST SWAP3 SWAP2 POP POP JUMP JUMPDEST PUSH1 0x0 DUP2 CALLDATALOAD SWAP1 POP PUSH2 0x154 DUP2 PUSH2 0x29A JUMP JUMPDEST SWAP3 SWAP2 POP POP JUMP JUMPDEST PUSH1 0x0 DUP2 MLOAD SWAP1 POP PUSH2 0x169 DUP2 PUSH2 0x29A JUMP JUMPDEST SWAP3 SWAP2 POP POP JUMP JUMPDEST PUSH1 0x0 PUSH1 0x20 DUP3 DUP5 SUB SLT ISZERO PUSH2 0x185 JUMPI PUSH2 0x184 PUSH2 0x27E JUMP JUMPDEST JUMPDEST PUSH1 0x0 PUSH2 0x193 DUP5 DUP3 DUP6 ADD PUSH2 0x15A JUMP JUMPDEST SWAP2 POP POP SWAP3 SWAP2 POP POP JUMP JUMPDEST PUSH1 0x0 DUP1 PUSH1 0x0 PUSH1 0x60 DUP5 DUP7 SUB SLT ISZERO PUSH2 0x1B5 JUMPI PUSH2 0x1B4 PUSH2 0x27E JUMP JUMPDEST JUMPDEST PUSH1 0x0 PUSH2 0x1C3 DUP7 DUP3 DUP8 ADD PUSH2 0x145 JUMP JUMPDEST SWAP4 POP POP PUSH1 0x20 PUSH2 0x1D4 DUP7 DUP3 DUP8 ADD PUSH2 0x145 JUMP JUMPDEST SWAP3 POP POP PUSH1 0x40 PUSH2 0x1E5 DUP7 DUP3 DUP8 ADD PUSH2 0x130 JUMP JUMPDEST SWAP2 POP POP SWAP3 POP SWAP3 POP SWAP3 JUMP JUMPDEST PUSH2 0x1F8 DUP2 PUSH2 0x274 JUMP JUMPDEST DUP3 MSTORE POP POP JUMP JUMPDEST PUSH1 0x0 PUSH1 0x20 DUP3 ADD SWAP1 POP PUSH2 0x213 PUSH1 0x0 DUP4 ADD DUP5 PUSH2 0x1EF JUMP JUMPDEST SWAP3 SWAP2 POP POP JUMP JUMPDEST PUSH1 0x0 PUSH1 0x40 DUP3 ADD SWAP1 POP PUSH2 0x22E PUSH1 0x0 DUP4 ADD DUP6 PUSH2 0x1EF JUMP JUMPDEST PUSH2 0x23B PUSH1 0x20 DUP4 ADD DUP5 PUSH2 0x1EF JUMP JUMPDEST SWAP4 SWAP3 POP POP POP JUMP JUMPDEST PUSH1 0x0 PUSH2 0x24D DUP3 PUSH2 0x254 JUMP JUMPDEST SWAP1 POP SWAP2 SWAP1 POP JUMP JUMPDEST PUSH1 0x0 PUSH20 0xFFFFFFFFFFFFFFFFFFFFFFFFFFFFFFFFFFFFFFFF DUP3 AND SWAP1 POP SWAP2 SWAP1 POP JUMP JUMPDEST PUSH1 0x0 DUP2 SWAP1 POP SWAP2 SWAP1 POP JUMP JUMPDEST PUSH1 0x0 DUP1 REVERT JUMPDEST PUSH2 0x28C DUP2 PUSH2 0x242 JUMP JUMPDEST DUP2 EQ PUSH2 0x297 JUMPI PUSH1 0x0 DUP1 REVERT JUMPDEST POP JUMP JUMPDEST PUSH2 0x2A3 DUP2 PUSH2 0x274 JUMP JUMPDEST DUP2 EQ PUSH2 0x2AE JUMPI PUSH1 0x0 DUP1 REVERT JUMPDEST POP JUMP INVALID LOG2 PUSH5 0x6970667358 0x22 SLT KECCAK256 0xCF SWAP12 CALLER SWAP8 0xC7 0xC2 0xD5 0xE6 0xA8 BLOCKHASH SELFDESTRUCT PUSH24 0x22E67FD2AF4281AA2B7DCEC7743B1880C2B148E764736F6C PUSH4 0x43000807 STOP CALLER "
				},
				"gasEstimates": {
					"creation": {
						"codeDepositCost": "148600",
						"executionCost": "196",
						"totalCost": "148796"
					},
					"external": {
						"resultado()": "2429",
						"sumarDesdeContrato(uint256,uint256,address)": "infinite"
					}
				},
				"methodIdentifiers": {
					"resultado()": "5206f100",
					"sumarDesdeContrato(uint256,uint256,address)": "3d78a1d0"
				}
			},
			"userdoc": {
				"kind": "user",
				"methods": {},
				"version": 1
			}
		}
	}
}