{
	"Variados/Modificaciones.sol": {
		"Modificadores": {
			"abi": [
				{
					"inputs": [],
					"stateMutability": "nonpayable",
					"type": "constructor"
				},
				{
					"inputs": [
						{
							"internalType": "uint256",
							"name": "numero1",
							"type": "uint256"
						},
						{
							"internalType": "uint256",
							"name": "numero2",
							"type": "uint256"
						}
					],
					"name": "Suma",
					"outputs": [
						{
							"internalType": "uint256",
							"name": "",
							"type": "uint256"
						}
					],
					"stateMutability": "pure",
					"type": "function"
				},
				{
					"inputs": [
						{
							"internalType": "address",
							"name": "",
							"type": "address"
						}
					],
					"name": "balance",
					"outputs": [
						{
							"internalType": "uint256",
							"name": "",
							"type": "uint256"
						}
					],
					"stateMutability": "view",
					"type": "function"
				},
				{
					"inputs": [],
					"name": "estadoDelContrato",
					"outputs": [
						{
							"internalType": "enum Modificadores.Estado",
							"name": "",
							"type": "uint8"
						}
					],
					"stateMutability": "view",
					"type": "function"
				}
			],
			"devdoc": {
				"kind": "dev",
				"methods": {},
				"version": 1
			},
			"evm": {
				"assembly": "    /* \"Variados/Modificaciones.sol\":69:371  contract Modificadores {... */\n  mstore(0x40, 0x80)\n    /* \"Variados/Modificaciones.sol\":230:250  constructor(){... */\n  callvalue\n  dup1\n  iszero\n  tag_1\n  jumpi\n  0x00\n  dup1\n  revert\ntag_1:\n  pop\n    /* \"Variados/Modificaciones.sol\":69:371  contract Modificadores {... */\n  dataSize(sub_0)\n  dup1\n  dataOffset(sub_0)\n  0x00\n  codecopy\n  0x00\n  return\nstop\n\nsub_0: assembly {\n        /* \"Variados/Modificaciones.sol\":69:371  contract Modificadores {... */\n      mstore(0x40, 0x80)\n      callvalue\n      dup1\n      iszero\n      tag_1\n      jumpi\n      0x00\n      dup1\n      revert\n    tag_1:\n      pop\n      jumpi(tag_2, lt(calldatasize, 0x04))\n      shr(0xe0, calldataload(0x00))\n      dup1\n      0x0594cc69\n      eq\n      tag_3\n      jumpi\n      dup1\n      0x05e0019d\n      eq\n      tag_4\n      jumpi\n      dup1\n      0xe3d670d7\n      eq\n      tag_5\n      jumpi\n    tag_2:\n      0x00\n      dup1\n      revert\n        /* \"Variados/Modificaciones.sol\":192:223  Estado public estadoDelContrato */\n    tag_3:\n      tag_6\n      tag_7\n      jump\t// in\n    tag_6:\n      mload(0x40)\n      tag_8\n      swap2\n      swap1\n      tag_9\n      jump\t// in\n    tag_8:\n      mload(0x40)\n      dup1\n      swap2\n      sub\n      swap1\n      return\n        /* \"Variados/Modificaciones.sol\":256:368  function Suma(uint numero1 , uint numero2 ) public pure returns(uint) {... */\n    tag_4:\n      tag_10\n      0x04\n      dup1\n      calldatasize\n      sub\n      dup2\n      add\n      swap1\n      tag_11\n      swap2\n      swap1\n      tag_12\n      jump\t// in\n    tag_11:\n      tag_13\n      jump\t// in\n    tag_10:\n      mload(0x40)\n      tag_14\n      swap2\n      swap1\n      tag_15\n      jump\t// in\n    tag_14:\n      mload(0x40)\n      dup1\n      swap2\n      sub\n      swap1\n      return\n        /* \"Variados/Modificaciones.sol\":99:139  mapping(address => uint ) public balance */\n    tag_5:\n      tag_16\n      0x04\n      dup1\n      calldatasize\n      sub\n      dup2\n      add\n      swap1\n      tag_17\n      swap2\n      swap1\n      tag_18\n      jump\t// in\n    tag_17:\n      tag_19\n      jump\t// in\n    tag_16:\n      mload(0x40)\n      tag_20\n      swap2\n      swap1\n      tag_15\n      jump\t// in\n    tag_20:\n      mload(0x40)\n      dup1\n      swap2\n      sub\n      swap1\n      return\n        /* \"Variados/Modificaciones.sol\":192:223  Estado public estadoDelContrato */\n    tag_7:\n      0x01\n      0x00\n      swap1\n      sload\n      swap1\n      0x0100\n      exp\n      swap1\n      div\n      0xff\n      and\n      dup2\n      jump\t// out\n        /* \"Variados/Modificaciones.sol\":256:368  function Suma(uint numero1 , uint numero2 ) public pure returns(uint) {... */\n    tag_13:\n        /* \"Variados/Modificaciones.sol\":320:324  uint */\n      0x00\n        /* \"Variados/Modificaciones.sol\":354:361  numero2 */\n      dup2\n        /* \"Variados/Modificaciones.sol\":343:350  numero1 */\n      dup4\n        /* \"Variados/Modificaciones.sol\":343:361  numero1  + numero2 */\n      tag_22\n      swap2\n      swap1\n      tag_23\n      jump\t// in\n    tag_22:\n        /* \"Variados/Modificaciones.sol\":336:361  return numero1  + numero2 */\n      swap1\n      pop\n        /* \"Variados/Modificaciones.sol\":256:368  function Suma(uint numero1 , uint numero2 ) public pure returns(uint) {... */\n      swap3\n      swap2\n      pop\n      pop\n      jump\t// out\n        /* \"Variados/Modificaciones.sol\":99:139  mapping(address => uint ) public balance */\n    tag_19:\n      mstore(0x20, 0x00)\n      dup1\n      0x00\n      mstore\n      keccak256(0x00, 0x40)\n      0x00\n      swap2\n      pop\n      swap1\n      pop\n      sload\n      dup2\n      jump\t// out\n        /* \"#utility.yul\":7:146   */\n    tag_25:\n        /* \"#utility.yul\":53:58   */\n      0x00\n        /* \"#utility.yul\":91:97   */\n      dup2\n        /* \"#utility.yul\":78:98   */\n      calldataload\n        /* \"#utility.yul\":69:98   */\n      swap1\n      pop\n        /* \"#utility.yul\":107:140   */\n      tag_27\n        /* \"#utility.yul\":134:139   */\n      dup2\n        /* \"#utility.yul\":107:140   */\n      tag_28\n      jump\t// in\n    tag_27:\n        /* \"#utility.yul\":7:146   */\n      swap3\n      swap2\n      pop\n      pop\n      jump\t// out\n        /* \"#utility.yul\":152:291   */\n    tag_29:\n        /* \"#utility.yul\":198:203   */\n      0x00\n        /* \"#utility.yul\":236:242   */\n      dup2\n        /* \"#utility.yul\":223:243   */\n      calldataload\n        /* \"#utility.yul\":214:243   */\n      swap1\n      pop\n        /* \"#utility.yul\":252:285   */\n      tag_31\n        /* \"#utility.yul\":279:284   */\n      dup2\n        /* \"#utility.yul\":252:285   */\n      tag_32\n      jump\t// in\n    tag_31:\n        /* \"#utility.yul\":152:291   */\n      swap3\n      swap2\n      pop\n      pop\n      jump\t// out\n        /* \"#utility.yul\":297:626   */\n    tag_18:\n        /* \"#utility.yul\":356:362   */\n      0x00\n        /* \"#utility.yul\":405:407   */\n      0x20\n        /* \"#utility.yul\":393:402   */\n      dup3\n        /* \"#utility.yul\":384:391   */\n      dup5\n        /* \"#utility.yul\":380:403   */\n      sub\n        /* \"#utility.yul\":376:408   */\n      slt\n        /* \"#utility.yul\":373:492   */\n      iszero\n      tag_34\n      jumpi\n        /* \"#utility.yul\":411:490   */\n      tag_35\n      tag_36\n      jump\t// in\n    tag_35:\n        /* \"#utility.yul\":373:492   */\n    tag_34:\n        /* \"#utility.yul\":531:532   */\n      0x00\n        /* \"#utility.yul\":556:609   */\n      tag_37\n        /* \"#utility.yul\":601:608   */\n      dup5\n        /* \"#utility.yul\":592:598   */\n      dup3\n        /* \"#utility.yul\":581:590   */\n      dup6\n        /* \"#utility.yul\":577:599   */\n      add\n        /* \"#utility.yul\":556:609   */\n      tag_25\n      jump\t// in\n    tag_37:\n        /* \"#utility.yul\":546:609   */\n      swap2\n      pop\n        /* \"#utility.yul\":502:619   */\n      pop\n        /* \"#utility.yul\":297:626   */\n      swap3\n      swap2\n      pop\n      pop\n      jump\t// out\n        /* \"#utility.yul\":632:1106   */\n    tag_12:\n        /* \"#utility.yul\":700:706   */\n      0x00\n        /* \"#utility.yul\":708:714   */\n      dup1\n        /* \"#utility.yul\":757:759   */\n      0x40\n        /* \"#utility.yul\":745:754   */\n      dup4\n        /* \"#utility.yul\":736:743   */\n      dup6\n        /* \"#utility.yul\":732:755   */\n      sub\n        /* \"#utility.yul\":728:760   */\n      slt\n        /* \"#utility.yul\":725:844   */\n      iszero\n      tag_39\n      jumpi\n        /* \"#utility.yul\":763:842   */\n      tag_40\n      tag_36\n      jump\t// in\n    tag_40:\n        /* \"#utility.yul\":725:844   */\n    tag_39:\n        /* \"#utility.yul\":883:884   */\n      0x00\n        /* \"#utility.yul\":908:961   */\n      tag_41\n        /* \"#utility.yul\":953:960   */\n      dup6\n        /* \"#utility.yul\":944:950   */\n      dup3\n        /* \"#utility.yul\":933:942   */\n      dup7\n        /* \"#utility.yul\":929:951   */\n      add\n        /* \"#utility.yul\":908:961   */\n      tag_29\n      jump\t// in\n    tag_41:\n        /* \"#utility.yul\":898:961   */\n      swap3\n      pop\n        /* \"#utility.yul\":854:971   */\n      pop\n        /* \"#utility.yul\":1010:1012   */\n      0x20\n        /* \"#utility.yul\":1036:1089   */\n      tag_42\n        /* \"#utility.yul\":1081:1088   */\n      dup6\n        /* \"#utility.yul\":1072:1078   */\n      dup3\n        /* \"#utility.yul\":1061:1070   */\n      dup7\n        /* \"#utility.yul\":1057:1079   */\n      add\n        /* \"#utility.yul\":1036:1089   */\n      tag_29\n      jump\t// in\n    tag_42:\n        /* \"#utility.yul\":1026:1089   */\n      swap2\n      pop\n        /* \"#utility.yul\":981:1099   */\n      pop\n        /* \"#utility.yul\":632:1106   */\n      swap3\n      pop\n      swap3\n      swap1\n      pop\n      jump\t// out\n        /* \"#utility.yul\":1112:1255   */\n    tag_43:\n        /* \"#utility.yul\":1205:1248   */\n      tag_45\n        /* \"#utility.yul\":1242:1247   */\n      dup2\n        /* \"#utility.yul\":1205:1248   */\n      tag_46\n      jump\t// in\n    tag_45:\n        /* \"#utility.yul\":1200:1203   */\n      dup3\n        /* \"#utility.yul\":1193:1249   */\n      mstore\n        /* \"#utility.yul\":1112:1255   */\n      pop\n      pop\n      jump\t// out\n        /* \"#utility.yul\":1261:1379   */\n    tag_47:\n        /* \"#utility.yul\":1348:1372   */\n      tag_49\n        /* \"#utility.yul\":1366:1371   */\n      dup2\n        /* \"#utility.yul\":1348:1372   */\n      tag_50\n      jump\t// in\n    tag_49:\n        /* \"#utility.yul\":1343:1346   */\n      dup3\n        /* \"#utility.yul\":1336:1373   */\n      mstore\n        /* \"#utility.yul\":1261:1379   */\n      pop\n      pop\n      jump\t// out\n        /* \"#utility.yul\":1385:1619   */\n    tag_9:\n        /* \"#utility.yul\":1484:1488   */\n      0x00\n        /* \"#utility.yul\":1522:1524   */\n      0x20\n        /* \"#utility.yul\":1511:1520   */\n      dup3\n        /* \"#utility.yul\":1507:1525   */\n      add\n        /* \"#utility.yul\":1499:1525   */\n      swap1\n      pop\n        /* \"#utility.yul\":1535:1612   */\n      tag_52\n        /* \"#utility.yul\":1609:1610   */\n      0x00\n        /* \"#utility.yul\":1598:1607   */\n      dup4\n        /* \"#utility.yul\":1594:1611   */\n      add\n        /* \"#utility.yul\":1585:1591   */\n      dup5\n        /* \"#utility.yul\":1535:1612   */\n      tag_43\n      jump\t// in\n    tag_52:\n        /* \"#utility.yul\":1385:1619   */\n      swap3\n      swap2\n      pop\n      pop\n      jump\t// out\n        /* \"#utility.yul\":1625:1847   */\n    tag_15:\n        /* \"#utility.yul\":1718:1722   */\n      0x00\n        /* \"#utility.yul\":1756:1758   */\n      0x20\n        /* \"#utility.yul\":1745:1754   */\n      dup3\n        /* \"#utility.yul\":1741:1759   */\n      add\n        /* \"#utility.yul\":1733:1759   */\n      swap1\n      pop\n        /* \"#utility.yul\":1769:1840   */\n      tag_54\n        /* \"#utility.yul\":1837:1838   */\n      0x00\n        /* \"#utility.yul\":1826:1835   */\n      dup4\n        /* \"#utility.yul\":1822:1839   */\n      add\n        /* \"#utility.yul\":1813:1819   */\n      dup5\n        /* \"#utility.yul\":1769:1840   */\n      tag_47\n      jump\t// in\n    tag_54:\n        /* \"#utility.yul\":1625:1847   */\n      swap3\n      swap2\n      pop\n      pop\n      jump\t// out\n        /* \"#utility.yul\":1934:2239   */\n    tag_23:\n        /* \"#utility.yul\":1974:1977   */\n      0x00\n        /* \"#utility.yul\":1993:2013   */\n      tag_58\n        /* \"#utility.yul\":2011:2012   */\n      dup3\n        /* \"#utility.yul\":1993:2013   */\n      tag_50\n      jump\t// in\n    tag_58:\n        /* \"#utility.yul\":1988:2013   */\n      swap2\n      pop\n        /* \"#utility.yul\":2027:2047   */\n      tag_59\n        /* \"#utility.yul\":2045:2046   */\n      dup4\n        /* \"#utility.yul\":2027:2047   */\n      tag_50\n      jump\t// in\n    tag_59:\n        /* \"#utility.yul\":2022:2047   */\n      swap3\n      pop\n        /* \"#utility.yul\":2181:2182   */\n      dup3\n        /* \"#utility.yul\":2113:2179   */\n      0xffffffffffffffffffffffffffffffffffffffffffffffffffffffffffffffff\n        /* \"#utility.yul\":2109:2183   */\n      sub\n        /* \"#utility.yul\":2106:2107   */\n      dup3\n        /* \"#utility.yul\":2103:2184   */\n      gt\n        /* \"#utility.yul\":2100:2207   */\n      iszero\n      tag_60\n      jumpi\n        /* \"#utility.yul\":2187:2205   */\n      tag_61\n      tag_62\n      jump\t// in\n    tag_61:\n        /* \"#utility.yul\":2100:2207   */\n    tag_60:\n        /* \"#utility.yul\":2231:2232   */\n      dup3\n        /* \"#utility.yul\":2228:2229   */\n      dup3\n        /* \"#utility.yul\":2224:2233   */\n      add\n        /* \"#utility.yul\":2217:2233   */\n      swap1\n      pop\n        /* \"#utility.yul\":1934:2239   */\n      swap3\n      swap2\n      pop\n      pop\n      jump\t// out\n        /* \"#utility.yul\":2245:2341   */\n    tag_63:\n        /* \"#utility.yul\":2282:2289   */\n      0x00\n        /* \"#utility.yul\":2311:2335   */\n      tag_65\n        /* \"#utility.yul\":2329:2334   */\n      dup3\n        /* \"#utility.yul\":2311:2335   */\n      tag_66\n      jump\t// in\n    tag_65:\n        /* \"#utility.yul\":2300:2335   */\n      swap1\n      pop\n        /* \"#utility.yul\":2245:2341   */\n      swap2\n      swap1\n      pop\n      jump\t// out\n        /* \"#utility.yul\":2347:2474   */\n    tag_67:\n        /* \"#utility.yul\":2392:2399   */\n      0x00\n        /* \"#utility.yul\":2421:2426   */\n      dup2\n        /* \"#utility.yul\":2410:2426   */\n      swap1\n      pop\n        /* \"#utility.yul\":2427:2468   */\n      tag_69\n        /* \"#utility.yul\":2462:2467   */\n      dup3\n        /* \"#utility.yul\":2427:2468   */\n      tag_70\n      jump\t// in\n    tag_69:\n        /* \"#utility.yul\":2347:2474   */\n      swap2\n      swap1\n      pop\n      jump\t// out\n        /* \"#utility.yul\":2480:2606   */\n    tag_66:\n        /* \"#utility.yul\":2517:2524   */\n      0x00\n        /* \"#utility.yul\":2557:2599   */\n      0xffffffffffffffffffffffffffffffffffffffff\n        /* \"#utility.yul\":2550:2555   */\n      dup3\n        /* \"#utility.yul\":2546:2600   */\n      and\n        /* \"#utility.yul\":2535:2600   */\n      swap1\n      pop\n        /* \"#utility.yul\":2480:2606   */\n      swap2\n      swap1\n      pop\n      jump\t// out\n        /* \"#utility.yul\":2612:2689   */\n    tag_50:\n        /* \"#utility.yul\":2649:2656   */\n      0x00\n        /* \"#utility.yul\":2678:2683   */\n      dup2\n        /* \"#utility.yul\":2667:2683   */\n      swap1\n      pop\n        /* \"#utility.yul\":2612:2689   */\n      swap2\n      swap1\n      pop\n      jump\t// out\n        /* \"#utility.yul\":2695:2822   */\n    tag_46:\n        /* \"#utility.yul\":2751:2760   */\n      0x00\n        /* \"#utility.yul\":2784:2816   */\n      tag_74\n        /* \"#utility.yul\":2810:2815   */\n      dup3\n        /* \"#utility.yul\":2784:2816   */\n      tag_67\n      jump\t// in\n    tag_74:\n        /* \"#utility.yul\":2771:2816   */\n      swap1\n      pop\n        /* \"#utility.yul\":2695:2822   */\n      swap2\n      swap1\n      pop\n      jump\t// out\n        /* \"#utility.yul\":2828:3008   */\n    tag_62:\n        /* \"#utility.yul\":2876:2953   */\n      0x4e487b7100000000000000000000000000000000000000000000000000000000\n        /* \"#utility.yul\":2873:2874   */\n      0x00\n        /* \"#utility.yul\":2866:2954   */\n      mstore\n        /* \"#utility.yul\":2973:2977   */\n      0x11\n        /* \"#utility.yul\":2970:2971   */\n      0x04\n        /* \"#utility.yul\":2963:2978   */\n      mstore\n        /* \"#utility.yul\":2997:3001   */\n      0x24\n        /* \"#utility.yul\":2994:2995   */\n      0x00\n        /* \"#utility.yul\":2987:3002   */\n      revert\n        /* \"#utility.yul\":3014:3194   */\n    tag_76:\n        /* \"#utility.yul\":3062:3139   */\n      0x4e487b7100000000000000000000000000000000000000000000000000000000\n        /* \"#utility.yul\":3059:3060   */\n      0x00\n        /* \"#utility.yul\":3052:3140   */\n      mstore\n        /* \"#utility.yul\":3159:3163   */\n      0x21\n        /* \"#utility.yul\":3156:3157   */\n      0x04\n        /* \"#utility.yul\":3149:3164   */\n      mstore\n        /* \"#utility.yul\":3183:3187   */\n      0x24\n        /* \"#utility.yul\":3180:3181   */\n      0x00\n        /* \"#utility.yul\":3173:3188   */\n      revert\n        /* \"#utility.yul\":3323:3440   */\n    tag_36:\n        /* \"#utility.yul\":3432:3433   */\n      0x00\n        /* \"#utility.yul\":3429:3430   */\n      dup1\n        /* \"#utility.yul\":3422:3434   */\n      revert\n        /* \"#utility.yul\":3446:3559   */\n    tag_70:\n        /* \"#utility.yul\":3527:3528   */\n      0x02\n        /* \"#utility.yul\":3520:3525   */\n      dup2\n        /* \"#utility.yul\":3517:3529   */\n      lt\n        /* \"#utility.yul\":3507:3553   */\n      tag_82\n      jumpi\n        /* \"#utility.yul\":3533:3551   */\n      tag_83\n      tag_76\n      jump\t// in\n    tag_83:\n        /* \"#utility.yul\":3507:3553   */\n    tag_82:\n        /* \"#utility.yul\":3446:3559   */\n      pop\n      jump\t// out\n        /* \"#utility.yul\":3565:3687   */\n    tag_28:\n        /* \"#utility.yul\":3638:3662   */\n      tag_85\n        /* \"#utility.yul\":3656:3661   */\n      dup2\n        /* \"#utility.yul\":3638:3662   */\n      tag_63\n      jump\t// in\n    tag_85:\n        /* \"#utility.yul\":3631:3636   */\n      dup2\n        /* \"#utility.yul\":3628:3663   */\n      eq\n        /* \"#utility.yul\":3618:3681   */\n      tag_86\n      jumpi\n        /* \"#utility.yul\":3677:3678   */\n      0x00\n        /* \"#utility.yul\":3674:3675   */\n      dup1\n        /* \"#utility.yul\":3667:3679   */\n      revert\n        /* \"#utility.yul\":3618:3681   */\n    tag_86:\n        /* \"#utility.yul\":3565:3687   */\n      pop\n      jump\t// out\n        /* \"#utility.yul\":3693:3815   */\n    tag_32:\n        /* \"#utility.yul\":3766:3790   */\n      tag_88\n        /* \"#utility.yul\":3784:3789   */\n      dup2\n        /* \"#utility.yul\":3766:3790   */\n      tag_50\n      jump\t// in\n    tag_88:\n        /* \"#utility.yul\":3759:3764   */\n      dup2\n        /* \"#utility.yul\":3756:3791   */\n      eq\n        /* \"#utility.yul\":3746:3809   */\n      tag_89\n      jumpi\n        /* \"#utility.yul\":3805:3806   */\n      0x00\n        /* \"#utility.yul\":3802:3803   */\n      dup1\n        /* \"#utility.yul\":3795:3807   */\n      revert\n        /* \"#utility.yul\":3746:3809   */\n    tag_89:\n        /* \"#utility.yul\":3693:3815   */\n      pop\n      jump\t// out\n\n    auxdata: 0xa26469706673582212203faca8f1f7f710d9ac23bd2fdf820798d134c1ad6cd8b18bff835dcc371c913664736f6c63430008070033\n}\n",
				"bytecode": {
					"linkReferences": {},
					"object": "608060405234801561001057600080fd5b50610382806100206000396000f3fe608060405234801561001057600080fd5b50600436106100415760003560e01c80630594cc691461004657806305e0019d14610064578063e3d670d714610094575b600080fd5b61004e6100c4565b60405161005b91906101ba565b60405180910390f35b61007e6004803603810190610079919061015c565b6100d7565b60405161008b91906101d5565b60405180910390f35b6100ae60048036038101906100a9919061012f565b6100ed565b6040516100bb91906101d5565b60405180910390f35b600160009054906101000a900460ff1681565b600081836100e591906101f0565b905092915050565b60006020528060005260406000206000915090505481565b6000813590506101148161031e565b92915050565b60008135905061012981610335565b92915050565b60006020828403121561014557610144610305565b5b600061015384828501610105565b91505092915050565b6000806040838503121561017357610172610305565b5b60006101818582860161011a565b92505060206101928582860161011a565b9150509250929050565b6101a581610295565b82525050565b6101b48161028b565b82525050565b60006020820190506101cf600083018461019c565b92915050565b60006020820190506101ea60008301846101ab565b92915050565b60006101fb8261028b565b91506102068361028b565b9250827fffffffffffffffffffffffffffffffffffffffffffffffffffffffffffffffff0382111561023b5761023a6102a7565b5b828201905092915050565b60006102518261026b565b9050919050565b60008190506102668261030a565b919050565b600073ffffffffffffffffffffffffffffffffffffffff82169050919050565b6000819050919050565b60006102a082610258565b9050919050565b7f4e487b7100000000000000000000000000000000000000000000000000000000600052601160045260246000fd5b7f4e487b7100000000000000000000000000000000000000000000000000000000600052602160045260246000fd5b600080fd5b6002811061031b5761031a6102d6565b5b50565b61032781610246565b811461033257600080fd5b50565b61033e8161028b565b811461034957600080fd5b5056fea26469706673582212203faca8f1f7f710d9ac23bd2fdf820798d134c1ad6cd8b18bff835dcc371c913664736f6c63430008070033",
					"opcodes": "PUSH1 0x80 PUSH1 0x40 MSTORE CALLVALUE DUP1 ISZERO PUSH2 0x10 JUMPI PUSH1 0x0 DUP1 REVERT JUMPDEST POP PUSH2 0x382 DUP1 PUSH2 0x20 PUSH1 0x0 CODECOPY PUSH1 0x0 RETURN INVALID PUSH1 0x80 PUSH1 0x40 MSTORE CALLVALUE DUP1 ISZERO PUSH2 0x10 JUMPI PUSH1 0x0 DUP1 REVERT JUMPDEST POP PUSH1 0x4 CALLDATASIZE LT PUSH2 0x41 JUMPI PUSH1 0x0 CALLDATALOAD PUSH1 0xE0 SHR DUP1 PUSH4 0x594CC69 EQ PUSH2 0x46 JUMPI DUP1 PUSH4 0x5E0019D EQ PUSH2 0x64 JUMPI DUP1 PUSH4 0xE3D670D7 EQ PUSH2 0x94 JUMPI JUMPDEST PUSH1 0x0 DUP1 REVERT JUMPDEST PUSH2 0x4E PUSH2 0xC4 JUMP JUMPDEST PUSH1 0x40 MLOAD PUSH2 0x5B SWAP2 SWAP1 PUSH2 0x1BA JUMP JUMPDEST PUSH1 0x40 MLOAD DUP1 SWAP2 SUB SWAP1 RETURN JUMPDEST PUSH2 0x7E PUSH1 0x4 DUP1 CALLDATASIZE SUB DUP2 ADD SWAP1 PUSH2 0x79 SWAP2 SWAP1 PUSH2 0x15C JUMP JUMPDEST PUSH2 0xD7 JUMP JUMPDEST PUSH1 0x40 MLOAD PUSH2 0x8B SWAP2 SWAP1 PUSH2 0x1D5 JUMP JUMPDEST PUSH1 0x40 MLOAD DUP1 SWAP2 SUB SWAP1 RETURN JUMPDEST PUSH2 0xAE PUSH1 0x4 DUP1 CALLDATASIZE SUB DUP2 ADD SWAP1 PUSH2 0xA9 SWAP2 SWAP1 PUSH2 0x12F JUMP JUMPDEST PUSH2 0xED JUMP JUMPDEST PUSH1 0x40 MLOAD PUSH2 0xBB SWAP2 SWAP1 PUSH2 0x1D5 JUMP JUMPDEST PUSH1 0x40 MLOAD DUP1 SWAP2 SUB SWAP1 RETURN JUMPDEST PUSH1 0x1 PUSH1 0x0 SWAP1 SLOAD SWAP1 PUSH2 0x100 EXP SWAP1 DIV PUSH1 0xFF AND DUP2 JUMP JUMPDEST PUSH1 0x0 DUP2 DUP4 PUSH2 0xE5 SWAP2 SWAP1 PUSH2 0x1F0 JUMP JUMPDEST SWAP1 POP SWAP3 SWAP2 POP POP JUMP JUMPDEST PUSH1 0x0 PUSH1 0x20 MSTORE DUP1 PUSH1 0x0 MSTORE PUSH1 0x40 PUSH1 0x0 KECCAK256 PUSH1 0x0 SWAP2 POP SWAP1 POP SLOAD DUP2 JUMP JUMPDEST PUSH1 0x0 DUP2 CALLDATALOAD SWAP1 POP PUSH2 0x114 DUP2 PUSH2 0x31E JUMP JUMPDEST SWAP3 SWAP2 POP POP JUMP JUMPDEST PUSH1 0x0 DUP2 CALLDATALOAD SWAP1 POP PUSH2 0x129 DUP2 PUSH2 0x335 JUMP JUMPDEST SWAP3 SWAP2 POP POP JUMP JUMPDEST PUSH1 0x0 PUSH1 0x20 DUP3 DUP5 SUB SLT ISZERO PUSH2 0x145 JUMPI PUSH2 0x144 PUSH2 0x305 JUMP JUMPDEST JUMPDEST PUSH1 0x0 PUSH2 0x153 DUP5 DUP3 DUP6 ADD PUSH2 0x105 JUMP JUMPDEST SWAP2 POP POP SWAP3 SWAP2 POP POP JUMP JUMPDEST PUSH1 0x0 DUP1 PUSH1 0x40 DUP4 DUP6 SUB SLT ISZERO PUSH2 0x173 JUMPI PUSH2 0x172 PUSH2 0x305 JUMP JUMPDEST JUMPDEST PUSH1 0x0 PUSH2 0x181 DUP6 DUP3 DUP7 ADD PUSH2 0x11A JUMP JUMPDEST SWAP3 POP POP PUSH1 0x20 PUSH2 0x192 DUP6 DUP3 DUP7 ADD PUSH2 0x11A JUMP JUMPDEST SWAP2 POP POP SWAP3 POP SWAP3 SWAP1 POP JUMP JUMPDEST PUSH2 0x1A5 DUP2 PUSH2 0x295 JUMP JUMPDEST DUP3 MSTORE POP POP JUMP JUMPDEST PUSH2 0x1B4 DUP2 PUSH2 0x28B JUMP JUMPDEST DUP3 MSTORE POP POP JUMP JUMPDEST PUSH1 0x0 PUSH1 0x20 DUP3 ADD SWAP1 POP PUSH2 0x1CF PUSH1 0x0 DUP4 ADD DUP5 PUSH2 0x19C JUMP JUMPDEST SWAP3 SWAP2 POP POP JUMP JUMPDEST PUSH1 0x0 PUSH1 0x20 DUP3 ADD SWAP1 POP PUSH2 0x1EA PUSH1 0x0 DUP4 ADD DUP5 PUSH2 0x1AB JUMP JUMPDEST SWAP3 SWAP2 POP POP JUMP JUMPDEST PUSH1 0x0 PUSH2 0x1FB DUP3 PUSH2 0x28B JUMP JUMPDEST SWAP2 POP PUSH2 0x206 DUP4 PUSH2 0x28B JUMP JUMPDEST SWAP3 POP DUP3 PUSH32 0xFFFFFFFFFFFFFFFFFFFFFFFFFFFFFFFFFFFFFFFFFFFFFFFFFFFFFFFFFFFFFFFF SUB DUP3 GT ISZERO PUSH2 0x23B JUMPI PUSH2 0x23A PUSH2 0x2A7 JUMP JUMPDEST JUMPDEST DUP3 DUP3 ADD SWAP1 POP SWAP3 SWAP2 POP POP JUMP JUMPDEST PUSH1 0x0 PUSH2 0x251 DUP3 PUSH2 0x26B JUMP JUMPDEST SWAP1 POP SWAP2 SWAP1 POP JUMP JUMPDEST PUSH1 0x0 DUP2 SWAP1 POP PUSH2 0x266 DUP3 PUSH2 0x30A JUMP JUMPDEST SWAP2 SWAP1 POP JUMP JUMPDEST PUSH1 0x0 PUSH20 0xFFFFFFFFFFFFFFFFFFFFFFFFFFFFFFFFFFFFFFFF DUP3 AND SWAP1 POP SWAP2 SWAP1 POP JUMP JUMPDEST PUSH1 0x0 DUP2 SWAP1 POP SWAP2 SWAP1 POP JUMP JUMPDEST PUSH1 0x0 PUSH2 0x2A0 DUP3 PUSH2 0x258 JUMP JUMPDEST SWAP1 POP SWAP2 SWAP1 POP JUMP JUMPDEST PUSH32 0x4E487B7100000000000000000000000000000000000000000000000000000000 PUSH1 0x0 MSTORE PUSH1 0x11 PUSH1 0x4 MSTORE PUSH1 0x24 PUSH1 0x0 REVERT JUMPDEST PUSH32 0x4E487B7100000000000000000000000000000000000000000000000000000000 PUSH1 0x0 MSTORE PUSH1 0x21 PUSH1 0x4 MSTORE PUSH1 0x24 PUSH1 0x0 REVERT JUMPDEST PUSH1 0x0 DUP1 REVERT JUMPDEST PUSH1 0x2 DUP2 LT PUSH2 0x31B JUMPI PUSH2 0x31A PUSH2 0x2D6 JUMP JUMPDEST JUMPDEST POP JUMP JUMPDEST PUSH2 0x327 DUP2 PUSH2 0x246 JUMP JUMPDEST DUP2 EQ PUSH2 0x332 JUMPI PUSH1 0x0 DUP1 REVERT JUMPDEST POP JUMP JUMPDEST PUSH2 0x33E DUP2 PUSH2 0x28B JUMP JUMPDEST DUP2 EQ PUSH2 0x349 JUMPI PUSH1 0x0 DUP1 REVERT JUMPDEST POP JUMP INVALID LOG2 PUSH5 0x6970667358 0x22 SLT KECCAK256 EXTCODEHASH 0xAC 0xA8 CALL 0xF7 0xF7 LT 0xD9 0xAC 0x23 0xBD 0x2F 0xDF DUP3 SMOD SWAP9 0xD1 CALLVALUE 0xC1 0xAD PUSH13 0xD8B18BFF835DCC371C91366473 PUSH16 0x6C634300080700330000000000000000 "
				},
				"gasEstimates": {
					"creation": {
						"codeDepositCost": "179600",
						"executionCost": "226",
						"totalCost": "179826"
					},
					"external": {
						"Suma(uint256,uint256)": "infinite",
						"balance(address)": "2836",
						"estadoDelContrato()": "2538"
					}
				},
				"methodIdentifiers": {
					"Suma(uint256,uint256)": "05e0019d",
					"balance(address)": "e3d670d7",
					"estadoDelContrato()": "0594cc69"
				}
			},
			"userdoc": {
				"kind": "user",
				"methods": {},
				"version": 1
			}
		}
	}
}