{
    "_format": "hh-sol-artifact-1",
    "contractName": "MintExample",
    "sourceName": "contracts/MintExample.sol",
    "abi": [
        {
            "inputs": [
                {
                    "internalType": "string",
                    "name": "name",
                    "type": "string"
                },
                {
                    "internalType": "string",
                    "name": "symbol",
                    "type": "string"
                }
            ],
            "stateMutability": "nonpayable",
            "type": "constructor"
        },
        {
            "anonymous": false,
            "inputs": [
                {
                    "indexed": true,
                    "internalType": "address",
                    "name": "owner",
                    "type": "address"
                },
                {
                    "indexed": true,
                    "internalType": "address",
                    "name": "approved",
                    "type": "address"
                },
                {
                    "indexed": true,
                    "internalType": "uint256",
                    "name": "tokenId",
                    "type": "uint256"
                }
            ],
            "name": "Approval",
            "type": "event"
        },
        {
            "anonymous": false,
            "inputs": [
                {
                    "indexed": true,
                    "internalType": "address",
                    "name": "owner",
                    "type": "address"
                },
                {
                    "indexed": true,
                    "internalType": "address",
                    "name": "operator",
                    "type": "address"
                },
                {
                    "indexed": false,
                    "internalType": "bool",
                    "name": "approved",
                    "type": "bool"
                }
            ],
            "name": "ApprovalForAll",
            "type": "event"
        },
        {
            "anonymous": false,
            "inputs": [
                {
                    "indexed": true,
                    "internalType": "address",
                    "name": "previousOwner",
                    "type": "address"
                },
                {
                    "indexed": true,
                    "internalType": "address",
                    "name": "newOwner",
                    "type": "address"
                }
            ],
            "name": "OwnershipTransferred",
            "type": "event"
        },
        {
            "anonymous": false,
            "inputs": [
                {
                    "indexed": true,
                    "internalType": "address",
                    "name": "from",
                    "type": "address"
                },
                {
                    "indexed": true,
                    "internalType": "address",
                    "name": "to",
                    "type": "address"
                },
                {
                    "indexed": true,
                    "internalType": "uint256",
                    "name": "tokenId",
                    "type": "uint256"
                }
            ],
            "name": "Transfer",
            "type": "event"
        },
        {
            "inputs": [
                {
                    "internalType": "address",
                    "name": "to",
                    "type": "address"
                },
                {
                    "internalType": "uint256",
                    "name": "tokenId",
                    "type": "uint256"
                }
            ],
            "name": "approve",
            "outputs": [],
            "stateMutability": "nonpayable",
            "type": "function"
        },
        {
            "inputs": [
                {
                    "internalType": "address",
                    "name": "",
                    "type": "address"
                }
            ],
            "name": "balance",
            "outputs": [
                {
                    "internalType": "uint256",
                    "name": "",
                    "type": "uint256"
                }
            ],
            "stateMutability": "view",
            "type": "function"
        },
        {
            "inputs": [
                {
                    "internalType": "address",
                    "name": "owner",
                    "type": "address"
                }
            ],
            "name": "balanceOf",
            "outputs": [
                {
                    "internalType": "uint256",
                    "name": "",
                    "type": "uint256"
                }
            ],
            "stateMutability": "view",
            "type": "function"
        },
        {
            "inputs": [
                {
                    "internalType": "uint256",
                    "name": "tokenId",
                    "type": "uint256"
                }
            ],
            "name": "getApproved",
            "outputs": [
                {
                    "internalType": "address",
                    "name": "",
                    "type": "address"
                }
            ],
            "stateMutability": "view",
            "type": "function"
        },
        {
            "inputs": [
                {
                    "internalType": "address",
                    "name": "owner",
                    "type": "address"
                },
                {
                    "internalType": "address",
                    "name": "operator",
                    "type": "address"
                }
            ],
            "name": "isApprovedForAll",
            "outputs": [
                {
                    "internalType": "bool",
                    "name": "",
                    "type": "bool"
                }
            ],
            "stateMutability": "view",
            "type": "function"
        },
        {
            "inputs": [
                {
                    "internalType": "uint256",
                    "name": "numberOfMints",
                    "type": "uint256"
                }
            ],
            "name": "mint",
            "outputs": [],
            "stateMutability": "payable",
            "type": "function"
        },
        {
            "inputs": [],
            "name": "name",
            "outputs": [
                {
                    "internalType": "string",
                    "name": "",
                    "type": "string"
                }
            ],
            "stateMutability": "view",
            "type": "function"
        },
        {
            "inputs": [],
            "name": "owner",
            "outputs": [
                {
                    "internalType": "address",
                    "name": "",
                    "type": "address"
                }
            ],
            "stateMutability": "view",
            "type": "function"
        },
        {
            "inputs": [
                {
                    "internalType": "uint256",
                    "name": "tokenId",
                    "type": "uint256"
                }
            ],
            "name": "ownerOf",
            "outputs": [
                {
                    "internalType": "address",
                    "name": "",
                    "type": "address"
                }
            ],
            "stateMutability": "view",
            "type": "function"
        },
        {
            "inputs": [],
            "name": "renounceOwnership",
            "outputs": [],
            "stateMutability": "nonpayable",
            "type": "function"
        },
        {
            "inputs": [
                {
                    "internalType": "address",
                    "name": "from",
                    "type": "address"
                },
                {
                    "internalType": "address",
                    "name": "to",
                    "type": "address"
                },
                {
                    "internalType": "uint256",
                    "name": "tokenId",
                    "type": "uint256"
                }
            ],
            "name": "safeTransferFrom",
            "outputs": [],
            "stateMutability": "nonpayable",
            "type": "function"
        },
        {
            "inputs": [
                {
                    "internalType": "address",
                    "name": "from",
                    "type": "address"
                },
                {
                    "internalType": "address",
                    "name": "to",
                    "type": "address"
                },
                {
                    "internalType": "uint256",
                    "name": "tokenId",
                    "type": "uint256"
                },
                {
                    "internalType": "bytes",
                    "name": "_data",
                    "type": "bytes"
                }
            ],
            "name": "safeTransferFrom",
            "outputs": [],
            "stateMutability": "nonpayable",
            "type": "function"
        },
        {
            "inputs": [
                {
                    "internalType": "address",
                    "name": "operator",
                    "type": "address"
                },
                {
                    "internalType": "bool",
                    "name": "approved",
                    "type": "bool"
                }
            ],
            "name": "setApprovalForAll",
            "outputs": [],
            "stateMutability": "nonpayable",
            "type": "function"
        },
        {
            "inputs": [
                {
                    "internalType": "bytes4",
                    "name": "interfaceId",
                    "type": "bytes4"
                }
            ],
            "name": "supportsInterface",
            "outputs": [
                {
                    "internalType": "bool",
                    "name": "",
                    "type": "bool"
                }
            ],
            "stateMutability": "view",
            "type": "function"
        },
        {
            "inputs": [],
            "name": "symbol",
            "outputs": [
                {
                    "internalType": "string",
                    "name": "",
                    "type": "string"
                }
            ],
            "stateMutability": "view",
            "type": "function"
        },
        {
            "inputs": [
                {
                    "internalType": "uint256",
                    "name": "index",
                    "type": "uint256"
                }
            ],
            "name": "tokenByIndex",
            "outputs": [
                {
                    "internalType": "uint256",
                    "name": "",
                    "type": "uint256"
                }
            ],
            "stateMutability": "view",
            "type": "function"
        },
        {
            "inputs": [
                {
                    "internalType": "address",
                    "name": "owner",
                    "type": "address"
                },
                {
                    "internalType": "uint256",
                    "name": "index",
                    "type": "uint256"
                }
            ],
            "name": "tokenOfOwnerByIndex",
            "outputs": [
                {
                    "internalType": "uint256",
                    "name": "",
                    "type": "uint256"
                }
            ],
            "stateMutability": "view",
            "type": "function"
        },
        {
            "inputs": [
                {
                    "internalType": "uint256",
                    "name": "tokenId",
                    "type": "uint256"
                }
            ],
            "name": "tokenURI",
            "outputs": [
                {
                    "internalType": "string",
                    "name": "",
                    "type": "string"
                }
            ],
            "stateMutability": "view",
            "type": "function"
        },
        {
            "inputs": [],
            "name": "totalSupply",
            "outputs": [
                {
                    "internalType": "uint256",
                    "name": "",
                    "type": "uint256"
                }
            ],
            "stateMutability": "view",
            "type": "function"
        },
        {
            "inputs": [
                {
                    "internalType": "address",
                    "name": "from",
                    "type": "address"
                },
                {
                    "internalType": "address",
                    "name": "to",
                    "type": "address"
                },
                {
                    "internalType": "uint256",
                    "name": "tokenId",
                    "type": "uint256"
                }
            ],
            "name": "transferFrom",
            "outputs": [],
            "stateMutability": "nonpayable",
            "type": "function"
        },
        {
            "inputs": [
                {
                    "internalType": "address",
                    "name": "newOwner",
                    "type": "address"
                }
            ],
            "name": "transferOwnership",
            "outputs": [],
            "stateMutability": "nonpayable",
            "type": "function"
        }
    ],
    "bytecode": "0x60806040523480156200001157600080fd5b506040516200393e3803806200393e833981810160405281019062000037919062000285565b818181600090805190602001906200005192919062000163565b5080600190805190602001906200006a92919062000163565b5050506200008d620000816200009560201b60201c565b6200009d60201b60201c565b505062000468565b600033905090565b6000600a60009054906101000a900473ffffffffffffffffffffffffffffffffffffffff16905081600a60006101000a81548173ffffffffffffffffffffffffffffffffffffffff021916908373ffffffffffffffffffffffffffffffffffffffff1602179055508173ffffffffffffffffffffffffffffffffffffffff168173ffffffffffffffffffffffffffffffffffffffff167f8be0079c531659141344cd1fd0a4f28419497f9722a3daafe3b4186f6b6457e060405160405180910390a35050565b82805462000171906200038d565b90600052602060002090601f016020900481019282620001955760008555620001e1565b82601f10620001b057805160ff1916838001178555620001e1565b82800160010185558215620001e1579182015b82811115620001e0578251825591602001919060010190620001c3565b5b509050620001f09190620001f4565b5090565b5b808211156200020f576000816000905550600101620001f5565b5090565b60006200022a620002248462000321565b620002f8565b9050828152602081018484840111156200024357600080fd5b6200025084828562000357565b509392505050565b600082601f8301126200026a57600080fd5b81516200027c84826020860162000213565b91505092915050565b600080604083850312156200029957600080fd5b600083015167ffffffffffffffff811115620002b457600080fd5b620002c28582860162000258565b925050602083015167ffffffffffffffff811115620002e057600080fd5b620002ee8582860162000258565b9150509250929050565b60006200030462000317565b9050620003128282620003c3565b919050565b6000604051905090565b600067ffffffffffffffff8211156200033f576200033e62000428565b5b6200034a8262000457565b9050602081019050919050565b60005b83811015620003775780820151818401526020810190506200035a565b8381111562000387576000848401525b50505050565b60006002820490506001821680620003a657607f821691505b60208210811415620003bd57620003bc620003f9565b5b50919050565b620003ce8262000457565b810181811067ffffffffffffffff82111715620003f057620003ef62000428565b5b80604052505050565b7f4e487b7100000000000000000000000000000000000000000000000000000000600052602260045260246000fd5b7f4e487b7100000000000000000000000000000000000000000000000000000000600052604160045260246000fd5b6000601f19601f8301169050919050565b6134c680620004786000396000f3fe60806040526004361061012a5760003560e01c806370a08231116100ab578063a22cb4651161006f578063a22cb465146103f7578063b88d4fde14610420578063c87b56dd14610449578063e3d670d714610486578063e985e9c5146104c3578063f2fde38b146105005761012a565b806370a0823114610331578063715018a61461036e5780638da5cb5b1461038557806395d89b41146103b0578063a0712d68146103db5761012a565b806323b872dd116100f257806323b872dd146102285780632f745c591461025157806342842e0e1461028e5780634f6ccce7146102b75780636352211e146102f45761012a565b806301ffc9a71461012f57806306fdde031461016c578063081812fc14610197578063095ea7b3146101d457806318160ddd146101fd575b600080fd5b34801561013b57600080fd5b50610156600480360381019061015191906124a6565b610529565b60405161016391906128f2565b60405180910390f35b34801561017857600080fd5b506101816105a3565b60405161018e919061290d565b60405180910390f35b3480156101a357600080fd5b506101be60048036038101906101b991906124f8565b610635565b6040516101cb919061288b565b60405180910390f35b3480156101e057600080fd5b506101fb60048036038101906101f6919061246a565b6106ba565b005b34801561020957600080fd5b506102126107d2565b60405161021f9190612b6f565b60405180910390f35b34801561023457600080fd5b5061024f600480360381019061024a9190612364565b6107df565b005b34801561025d57600080fd5b506102786004803603810190610273919061246a565b61083f565b6040516102859190612b6f565b60405180910390f35b34801561029a57600080fd5b506102b560048036038101906102b09190612364565b6108e4565b005b3480156102c357600080fd5b506102de60048036038101906102d991906124f8565b610904565b6040516102eb9190612b6f565b60405180910390f35b34801561030057600080fd5b5061031b600480360381019061031691906124f8565b61099b565b604051610328919061288b565b60405180910390f35b34801561033d57600080fd5b50610358600480360381019061035391906122ff565b610a4d565b6040516103659190612b6f565b60405180910390f35b34801561037a57600080fd5b50610383610b05565b005b34801561039157600080fd5b5061039a610b8d565b6040516103a7919061288b565b60405180910390f35b3480156103bc57600080fd5b506103c5610bb7565b6040516103d2919061290d565b60405180910390f35b6103f560048036038101906103f091906124f8565b610c49565b005b34801561040357600080fd5b5061041e6004803603810190610419919061242e565b610ce3565b005b34801561042c57600080fd5b50610447600480360381019061044291906123b3565b610cf9565b005b34801561045557600080fd5b50610470600480360381019061046b91906124f8565b610d5b565b60405161047d919061290d565b60405180910390f35b34801561049257600080fd5b506104ad60048036038101906104a891906122ff565b610e02565b6040516104ba9190612b6f565b60405180910390f35b3480156104cf57600080fd5b506104ea60048036038101906104e59190612328565b610e1a565b6040516104f791906128f2565b60405180910390f35b34801561050c57600080fd5b50610527600480360381019061052291906122ff565b610eae565b005b60007f780e9d63000000000000000000000000000000000000000000000000000000007bffffffffffffffffffffffffffffffffffffffffffffffffffffffff1916827bffffffffffffffffffffffffffffffffffffffffffffffffffffffff1916148061059c575061059b82610fa6565b5b9050919050565b6060600080546105b290612d94565b80601f01602080910402602001604051908101604052809291908181526020018280546105de90612d94565b801561062b5780601f106106005761010080835404028352916020019161062b565b820191906000526020600020905b81548152906001019060200180831161060e57829003601f168201915b5050505050905090565b600061064082611088565b61067f576040517f08c379a000000000000000000000000000000000000000000000000000000000815260040161067690612a8f565b60405180910390fd5b6004600083815260200190815260200160002060009054906101000a900473ffffffffffffffffffffffffffffffffffffffff169050919050565b60006106c58261099b565b90508073ffffffffffffffffffffffffffffffffffffffff168373ffffffffffffffffffffffffffffffffffffffff161415610736576040517f08c379a000000000000000000000000000000000000000000000000000000000815260040161072d90612b0f565b60405180910390fd5b8073ffffffffffffffffffffffffffffffffffffffff166107556110f4565b73ffffffffffffffffffffffffffffffffffffffff16148061078457506107838161077e6110f4565b610e1a565b5b6107c3576040517f08c379a00000000000000000000000000000000000000000000000000000000081526004016107ba90612a0f565b60405180910390fd5b6107cd83836110fc565b505050565b6000600880549050905090565b6107f06107ea6110f4565b826111b5565b61082f576040517f08c379a000000000000000000000000000000000000000000000000000000000815260040161082690612b2f565b60405180910390fd5b61083a838383611293565b505050565b600061084a83610a4d565b821061088b576040517f08c379a00000000000000000000000000000000000000000000000000000000081526004016108829061292f565b60405180910390fd5b600660008473ffffffffffffffffffffffffffffffffffffffff1673ffffffffffffffffffffffffffffffffffffffff168152602001908152602001600020600083815260200190815260200160002054905092915050565b6108ff83838360405180602001604052806000815250610cf9565b505050565b600061090e6107d2565b821061094f576040517f08c379a000000000000000000000000000000000000000000000000000000000815260040161094690612b4f565b60405180910390fd5b60088281548110610989577f4e487b7100000000000000000000000000000000000000000000000000000000600052603260045260246000fd5b90600052602060002001549050919050565b6000806002600084815260200190815260200160002060009054906101000a900473ffffffffffffffffffffffffffffffffffffffff169050600073ffffffffffffffffffffffffffffffffffffffff168173ffffffffffffffffffffffffffffffffffffffff161415610a44576040517f08c379a0000000000000000000000000000000000000000000000000000000008152600401610a3b90612a4f565b60405180910390fd5b80915050919050565b60008073ffffffffffffffffffffffffffffffffffffffff168273ffffffffffffffffffffffffffffffffffffffff161415610abe576040517f08c379a0000000000000000000000000000000000000000000000000000000008152600401610ab590612a2f565b60405180910390fd5b600360008373ffffffffffffffffffffffffffffffffffffffff1673ffffffffffffffffffffffffffffffffffffffff168152602001908152602001600020549050919050565b610b0d6110f4565b73ffffffffffffffffffffffffffffffffffffffff16610b2b610b8d565b73ffffffffffffffffffffffffffffffffffffffff1614610b81576040517f08c379a0000000000000000000000000000000000000000000000000000000008152600401610b7890612aaf565b60405180910390fd5b610b8b60006114ef565b565b6000600a60009054906101000a900473ffffffffffffffffffffffffffffffffffffffff16905090565b606060018054610bc690612d94565b80601f0160208091040260200160405190810160405280929190818152602001828054610bf290612d94565b8015610c3f5780601f10610c1457610100808354040283529160200191610c3f565b820191906000526020600020905b815481529060010190602001808311610c2257829003601f168201915b5050505050905090565b6000610c536107d2565b905060005b82811015610cde57610c7633600184610c719190612c23565b6115b5565b600b60003373ffffffffffffffffffffffffffffffffffffffff1673ffffffffffffffffffffffffffffffffffffffff1681526020019081526020016000206000815480929190610cc690612df7565b91905055508080610cd690612df7565b915050610c58565b505050565b610cf5610cee6110f4565b83836115d3565b5050565b610d0a610d046110f4565b836111b5565b610d49576040517f08c379a0000000000000000000000000000000000000000000000000000000008152600401610d4090612b2f565b60405180910390fd5b610d5584848484611740565b50505050565b6060610d6682611088565b610da5576040517f08c379a0000000000000000000000000000000000000000000000000000000008152600401610d9c90612aef565b60405180910390fd5b6000610daf61179c565b90506000815111610dcf5760405180602001604052806000815250610dfa565b80610dd9846117b3565b604051602001610dea929190612867565b6040516020818303038152906040525b915050919050565b600b6020528060005260406000206000915090505481565b6000600560008473ffffffffffffffffffffffffffffffffffffffff1673ffffffffffffffffffffffffffffffffffffffff16815260200190815260200160002060008373ffffffffffffffffffffffffffffffffffffffff1673ffffffffffffffffffffffffffffffffffffffff16815260200190815260200160002060009054906101000a900460ff16905092915050565b610eb66110f4565b73ffffffffffffffffffffffffffffffffffffffff16610ed4610b8d565b73ffffffffffffffffffffffffffffffffffffffff1614610f2a576040517f08c379a0000000000000000000000000000000000000000000000000000000008152600401610f2190612aaf565b60405180910390fd5b600073ffffffffffffffffffffffffffffffffffffffff168173ffffffffffffffffffffffffffffffffffffffff161415610f9a576040517f08c379a0000000000000000000000000000000000000000000000000000000008152600401610f919061296f565b60405180910390fd5b610fa3816114ef565b50565b60007f80ac58cd000000000000000000000000000000000000000000000000000000007bffffffffffffffffffffffffffffffffffffffffffffffffffffffff1916827bffffffffffffffffffffffffffffffffffffffffffffffffffffffff1916148061107157507f5b5e139f000000000000000000000000000000000000000000000000000000007bffffffffffffffffffffffffffffffffffffffffffffffffffffffff1916827bffffffffffffffffffffffffffffffffffffffffffffffffffffffff1916145b80611081575061108082611960565b5b9050919050565b60008073ffffffffffffffffffffffffffffffffffffffff166002600084815260200190815260200160002060009054906101000a900473ffffffffffffffffffffffffffffffffffffffff1673ffffffffffffffffffffffffffffffffffffffff1614159050919050565b600033905090565b816004600083815260200190815260200160002060006101000a81548173ffffffffffffffffffffffffffffffffffffffff021916908373ffffffffffffffffffffffffffffffffffffffff160217905550808273ffffffffffffffffffffffffffffffffffffffff1661116f8361099b565b73ffffffffffffffffffffffffffffffffffffffff167f8c5be1e5ebec7d5bd14f71427d1e84f3dd0314c0f7b2291e5b200ac8c7c3b92560405160405180910390a45050565b60006111c082611088565b6111ff576040517f08c379a00000000000000000000000000000000000000000000000000000000081526004016111f6906129ef565b60405180910390fd5b600061120a8361099b565b90508073ffffffffffffffffffffffffffffffffffffffff168473ffffffffffffffffffffffffffffffffffffffff16148061127957508373ffffffffffffffffffffffffffffffffffffffff1661126184610635565b73ffffffffffffffffffffffffffffffffffffffff16145b8061128a57506112898185610e1a565b5b91505092915050565b8273ffffffffffffffffffffffffffffffffffffffff166112b38261099b565b73ffffffffffffffffffffffffffffffffffffffff1614611309576040517f08c379a000000000000000000000000000000000000000000000000000000000815260040161130090612acf565b60405180910390fd5b600073ffffffffffffffffffffffffffffffffffffffff168273ffffffffffffffffffffffffffffffffffffffff161415611379576040517f08c379a0000000000000000000000000000000000000000000000000000000008152600401611370906129af565b60405180910390fd5b6113848383836119ca565b61138f6000826110fc565b6001600360008573ffffffffffffffffffffffffffffffffffffffff1673ffffffffffffffffffffffffffffffffffffffff16815260200190815260200160002060008282546113df9190612caa565b925050819055506001600360008473ffffffffffffffffffffffffffffffffffffffff1673ffffffffffffffffffffffffffffffffffffffff16815260200190815260200160002060008282546114369190612c23565b92505081905550816002600083815260200190815260200160002060006101000a81548173ffffffffffffffffffffffffffffffffffffffff021916908373ffffffffffffffffffffffffffffffffffffffff160217905550808273ffffffffffffffffffffffffffffffffffffffff168473ffffffffffffffffffffffffffffffffffffffff167fddf252ad1be2c89b69c2b068fc378daa952ba7f163c4a11628f55a4df523b3ef60405160405180910390a4505050565b6000600a60009054906101000a900473ffffffffffffffffffffffffffffffffffffffff16905081600a60006101000a81548173ffffffffffffffffffffffffffffffffffffffff021916908373ffffffffffffffffffffffffffffffffffffffff1602179055508173ffffffffffffffffffffffffffffffffffffffff168173ffffffffffffffffffffffffffffffffffffffff167f8be0079c531659141344cd1fd0a4f28419497f9722a3daafe3b4186f6b6457e060405160405180910390a35050565b6115cf828260405180602001604052806000815250611ade565b5050565b8173ffffffffffffffffffffffffffffffffffffffff168373ffffffffffffffffffffffffffffffffffffffff161415611642576040517f08c379a0000000000000000000000000000000000000000000000000000000008152600401611639906129cf565b60405180910390fd5b80600560008573ffffffffffffffffffffffffffffffffffffffff1673ffffffffffffffffffffffffffffffffffffffff16815260200190815260200160002060008473ffffffffffffffffffffffffffffffffffffffff1673ffffffffffffffffffffffffffffffffffffffff16815260200190815260200160002060006101000a81548160ff0219169083151502179055508173ffffffffffffffffffffffffffffffffffffffff168373ffffffffffffffffffffffffffffffffffffffff167f17307eab39ab6107e8899845ad3d59bd9653f200f220920489ca2b5937696c318360405161173391906128f2565b60405180910390a3505050565b61174b848484611293565b61175784848484611b39565b611796576040517f08c379a000000000000000000000000000000000000000000000000000000000815260040161178d9061294f565b60405180910390fd5b50505050565b606060405180602001604052806000815250905090565b606060008214156117fb576040518060400160405280600181526020017f3000000000000000000000000000000000000000000000000000000000000000815250905061195b565b600082905060005b6000821461182d57808061181690612df7565b915050600a826118269190612c79565b9150611803565b60008167ffffffffffffffff81111561186f577f4e487b7100000000000000000000000000000000000000000000000000000000600052604160045260246000fd5b6040519080825280601f01601f1916602001820160405280156118a15781602001600182028036833780820191505090505b5090505b60008514611954576001826118ba9190612caa565b9150600a856118c99190612e40565b60306118d59190612c23565b60f81b818381518110611911577f4e487b7100000000000000000000000000000000000000000000000000000000600052603260045260246000fd5b60200101907effffffffffffffffffffffffffffffffffffffffffffffffffffffffffffff1916908160001a905350600a8561194d9190612c79565b94506118a5565b8093505050505b919050565b60007f01ffc9a7000000000000000000000000000000000000000000000000000000007bffffffffffffffffffffffffffffffffffffffffffffffffffffffff1916827bffffffffffffffffffffffffffffffffffffffffffffffffffffffff1916149050919050565b6119d5838383611cd0565b600073ffffffffffffffffffffffffffffffffffffffff168373ffffffffffffffffffffffffffffffffffffffff161415611a1857611a1381611cd5565b611a57565b8173ffffffffffffffffffffffffffffffffffffffff168373ffffffffffffffffffffffffffffffffffffffff1614611a5657611a558382611d1e565b5b5b600073ffffffffffffffffffffffffffffffffffffffff168273ffffffffffffffffffffffffffffffffffffffff161415611a9a57611a9581611e8b565b611ad9565b8273ffffffffffffffffffffffffffffffffffffffff168273ffffffffffffffffffffffffffffffffffffffff1614611ad857611ad78282611fce565b5b5b505050565b611ae8838361204d565b611af56000848484611b39565b611b34576040517f08c379a0000000000000000000000000000000000000000000000000000000008152600401611b2b9061294f565b60405180910390fd5b505050565b6000611b5a8473ffffffffffffffffffffffffffffffffffffffff1661221b565b15611cc3578373ffffffffffffffffffffffffffffffffffffffff1663150b7a02611b836110f4565b8786866040518563ffffffff1660e01b8152600401611ba594939291906128a6565b602060405180830381600087803b158015611bbf57600080fd5b505af1925050508015611bf057506040513d601f19601f82011682018060405250810190611bed91906124cf565b60015b611c73573d8060008114611c20576040519150601f19603f3d011682016040523d82523d6000602084013e611c25565b606091505b50600081511415611c6b576040517f08c379a0000000000000000000000000000000000000000000000000000000008152600401611c629061294f565b60405180910390fd5b805181602001fd5b63150b7a0260e01b7bffffffffffffffffffffffffffffffffffffffffffffffffffffffff1916817bffffffffffffffffffffffffffffffffffffffffffffffffffffffff191614915050611cc8565b600190505b949350505050565b505050565b6008805490506009600083815260200190815260200160002081905550600881908060018154018082558091505060019003906000526020600020016000909190919091505550565b60006001611d2b84610a4d565b611d359190612caa565b9050600060076000848152602001908152602001600020549050818114611e1a576000600660008673ffffffffffffffffffffffffffffffffffffffff1673ffffffffffffffffffffffffffffffffffffffff168152602001908152602001600020600084815260200190815260200160002054905080600660008773ffffffffffffffffffffffffffffffffffffffff1673ffffffffffffffffffffffffffffffffffffffff168152602001908152602001600020600084815260200190815260200160002081905550816007600083815260200190815260200160002081905550505b6007600084815260200190815260200160002060009055600660008573ffffffffffffffffffffffffffffffffffffffff1673ffffffffffffffffffffffffffffffffffffffff16815260200190815260200160002060008381526020019081526020016000206000905550505050565b60006001600880549050611e9f9190612caa565b9050600060096000848152602001908152602001600020549050600060088381548110611ef5577f4e487b7100000000000000000000000000000000000000000000000000000000600052603260045260246000fd5b906000526020600020015490508060088381548110611f3d577f4e487b7100000000000000000000000000000000000000000000000000000000600052603260045260246000fd5b906000526020600020018190555081600960008381526020019081526020016000208190555060096000858152602001908152602001600020600090556008805480611fb2577f4e487b7100000000000000000000000000000000000000000000000000000000600052603160045260246000fd5b6001900381819060005260206000200160009055905550505050565b6000611fd983610a4d565b905081600660008573ffffffffffffffffffffffffffffffffffffffff1673ffffffffffffffffffffffffffffffffffffffff168152602001908152602001600020600083815260200190815260200160002081905550806007600084815260200190815260200160002081905550505050565b600073ffffffffffffffffffffffffffffffffffffffff168273ffffffffffffffffffffffffffffffffffffffff1614156120bd576040517f08c379a00000000000000000000000000000000000000000000000000000000081526004016120b490612a6f565b60405180910390fd5b6120c681611088565b15612106576040517f08c379a00000000000000000000000000000000000000000000000000000000081526004016120fd9061298f565b60405180910390fd5b612112600083836119ca565b6001600360008473ffffffffffffffffffffffffffffffffffffffff1673ffffffffffffffffffffffffffffffffffffffff16815260200190815260200160002060008282546121629190612c23565b92505081905550816002600083815260200190815260200160002060006101000a81548173ffffffffffffffffffffffffffffffffffffffff021916908373ffffffffffffffffffffffffffffffffffffffff160217905550808273ffffffffffffffffffffffffffffffffffffffff16600073ffffffffffffffffffffffffffffffffffffffff167fddf252ad1be2c89b69c2b068fc378daa952ba7f163c4a11628f55a4df523b3ef60405160405180910390a45050565b600080823b905060008111915050919050565b600061224161223c84612baf565b612b8a565b90508281526020810184848401111561225957600080fd5b612264848285612d52565b509392505050565b60008135905061227b81613434565b92915050565b6000813590506122908161344b565b92915050565b6000813590506122a581613462565b92915050565b6000815190506122ba81613462565b92915050565b600082601f8301126122d157600080fd5b81356122e184826020860161222e565b91505092915050565b6000813590506122f981613479565b92915050565b60006020828403121561231157600080fd5b600061231f8482850161226c565b91505092915050565b6000806040838503121561233b57600080fd5b60006123498582860161226c565b925050602061235a8582860161226c565b9150509250929050565b60008060006060848603121561237957600080fd5b60006123878682870161226c565b93505060206123988682870161226c565b92505060406123a9868287016122ea565b9150509250925092565b600080600080608085870312156123c957600080fd5b60006123d78782880161226c565b94505060206123e88782880161226c565b93505060406123f9878288016122ea565b925050606085013567ffffffffffffffff81111561241657600080fd5b612422878288016122c0565b91505092959194509250565b6000806040838503121561244157600080fd5b600061244f8582860161226c565b925050602061246085828601612281565b9150509250929050565b6000806040838503121561247d57600080fd5b600061248b8582860161226c565b925050602061249c858286016122ea565b9150509250929050565b6000602082840312156124b857600080fd5b60006124c684828501612296565b91505092915050565b6000602082840312156124e157600080fd5b60006124ef848285016122ab565b91505092915050565b60006020828403121561250a57600080fd5b6000612518848285016122ea565b91505092915050565b61252a81612cde565b82525050565b61253981612cf0565b82525050565b600061254a82612be0565b6125548185612bf6565b9350612564818560208601612d61565b61256d81612f2d565b840191505092915050565b600061258382612beb565b61258d8185612c07565b935061259d818560208601612d61565b6125a681612f2d565b840191505092915050565b60006125bc82612beb565b6125c68185612c18565b93506125d6818560208601612d61565b80840191505092915050565b60006125ef602b83612c07565b91506125fa82612f3e565b604082019050919050565b6000612612603283612c07565b915061261d82612f8d565b604082019050919050565b6000612635602683612c07565b915061264082612fdc565b604082019050919050565b6000612658601c83612c07565b91506126638261302b565b602082019050919050565b600061267b602483612c07565b915061268682613054565b604082019050919050565b600061269e601983612c07565b91506126a9826130a3565b602082019050919050565b60006126c1602c83612c07565b91506126cc826130cc565b604082019050919050565b60006126e4603883612c07565b91506126ef8261311b565b604082019050919050565b6000612707602a83612c07565b91506127128261316a565b604082019050919050565b600061272a602983612c07565b9150612735826131b9565b604082019050919050565b600061274d602083612c07565b915061275882613208565b602082019050919050565b6000612770602c83612c07565b915061277b82613231565b604082019050919050565b6000612793602083612c07565b915061279e82613280565b602082019050919050565b60006127b6602983612c07565b91506127c1826132a9565b604082019050919050565b60006127d9602f83612c07565b91506127e4826132f8565b604082019050919050565b60006127fc602183612c07565b915061280782613347565b604082019050919050565b600061281f603183612c07565b915061282a82613396565b604082019050919050565b6000612842602c83612c07565b915061284d826133e5565b604082019050919050565b61286181612d48565b82525050565b600061287382856125b1565b915061287f82846125b1565b91508190509392505050565b60006020820190506128a06000830184612521565b92915050565b60006080820190506128bb6000830187612521565b6128c86020830186612521565b6128d56040830185612858565b81810360608301526128e7818461253f565b905095945050505050565b60006020820190506129076000830184612530565b92915050565b600060208201905081810360008301526129278184612578565b905092915050565b60006020820190508181036000830152612948816125e2565b9050919050565b6000602082019050818103600083015261296881612605565b9050919050565b6000602082019050818103600083015261298881612628565b9050919050565b600060208201905081810360008301526129a88161264b565b9050919050565b600060208201905081810360008301526129c88161266e565b9050919050565b600060208201905081810360008301526129e881612691565b9050919050565b60006020820190508181036000830152612a08816126b4565b9050919050565b60006020820190508181036000830152612a28816126d7565b9050919050565b60006020820190508181036000830152612a48816126fa565b9050919050565b60006020820190508181036000830152612a688161271d565b9050919050565b60006020820190508181036000830152612a8881612740565b9050919050565b60006020820190508181036000830152612aa881612763565b9050919050565b60006020820190508181036000830152612ac881612786565b9050919050565b60006020820190508181036000830152612ae8816127a9565b9050919050565b60006020820190508181036000830152612b08816127cc565b9050919050565b60006020820190508181036000830152612b28816127ef565b9050919050565b60006020820190508181036000830152612b4881612812565b9050919050565b60006020820190508181036000830152612b6881612835565b9050919050565b6000602082019050612b846000830184612858565b92915050565b6000612b94612ba5565b9050612ba08282612dc6565b919050565b6000604051905090565b600067ffffffffffffffff821115612bca57612bc9612efe565b5b612bd382612f2d565b9050602081019050919050565b600081519050919050565b600081519050919050565b600082825260208201905092915050565b600082825260208201905092915050565b600081905092915050565b6000612c2e82612d48565b9150612c3983612d48565b9250827fffffffffffffffffffffffffffffffffffffffffffffffffffffffffffffffff03821115612c6e57612c6d612e71565b5b828201905092915050565b6000612c8482612d48565b9150612c8f83612d48565b925082612c9f57612c9e612ea0565b5b828204905092915050565b6000612cb582612d48565b9150612cc083612d48565b925082821015612cd357612cd2612e71565b5b828203905092915050565b6000612ce982612d28565b9050919050565b60008115159050919050565b60007fffffffff0000000000000000000000000000000000000000000000000000000082169050919050565b600073ffffffffffffffffffffffffffffffffffffffff82169050919050565b6000819050919050565b82818337600083830152505050565b60005b83811015612d7f578082015181840152602081019050612d64565b83811115612d8e576000848401525b50505050565b60006002820490506001821680612dac57607f821691505b60208210811415612dc057612dbf612ecf565b5b50919050565b612dcf82612f2d565b810181811067ffffffffffffffff82111715612dee57612ded612efe565b5b80604052505050565b6000612e0282612d48565b91507fffffffffffffffffffffffffffffffffffffffffffffffffffffffffffffffff821415612e3557612e34612e71565b5b600182019050919050565b6000612e4b82612d48565b9150612e5683612d48565b925082612e6657612e65612ea0565b5b828206905092915050565b7f4e487b7100000000000000000000000000000000000000000000000000000000600052601160045260246000fd5b7f4e487b7100000000000000000000000000000000000000000000000000000000600052601260045260246000fd5b7f4e487b7100000000000000000000000000000000000000000000000000000000600052602260045260246000fd5b7f4e487b7100000000000000000000000000000000000000000000000000000000600052604160045260246000fd5b6000601f19601f8301169050919050565b7f455243373231456e756d657261626c653a206f776e657220696e646578206f7560008201527f74206f6620626f756e6473000000000000000000000000000000000000000000602082015250565b7f4552433732313a207472616e7366657220746f206e6f6e20455243373231526560008201527f63656976657220696d706c656d656e7465720000000000000000000000000000602082015250565b7f4f776e61626c653a206e6577206f776e657220697320746865207a65726f206160008201527f6464726573730000000000000000000000000000000000000000000000000000602082015250565b7f4552433732313a20746f6b656e20616c7265616479206d696e74656400000000600082015250565b7f4552433732313a207472616e7366657220746f20746865207a65726f2061646460008201527f7265737300000000000000000000000000000000000000000000000000000000602082015250565b7f4552433732313a20617070726f766520746f2063616c6c657200000000000000600082015250565b7f4552433732313a206f70657261746f7220717565727920666f72206e6f6e657860008201527f697374656e7420746f6b656e0000000000000000000000000000000000000000602082015250565b7f4552433732313a20617070726f76652063616c6c6572206973206e6f74206f7760008201527f6e6572206e6f7220617070726f76656420666f7220616c6c0000000000000000602082015250565b7f4552433732313a2062616c616e636520717565727920666f7220746865207a6560008201527f726f206164647265737300000000000000000000000000000000000000000000602082015250565b7f4552433732313a206f776e657220717565727920666f72206e6f6e657869737460008201527f656e7420746f6b656e0000000000000000000000000000000000000000000000602082015250565b7f4552433732313a206d696e7420746f20746865207a65726f2061646472657373600082015250565b7f4552433732313a20617070726f76656420717565727920666f72206e6f6e657860008201527f697374656e7420746f6b656e0000000000000000000000000000000000000000602082015250565b7f4f776e61626c653a2063616c6c6572206973206e6f7420746865206f776e6572600082015250565b7f4552433732313a207472616e73666572206f6620746f6b656e2074686174206960008201527f73206e6f74206f776e0000000000000000000000000000000000000000000000602082015250565b7f4552433732314d657461646174613a2055524920717565727920666f72206e6f60008201527f6e6578697374656e7420746f6b656e0000000000000000000000000000000000602082015250565b7f4552433732313a20617070726f76616c20746f2063757272656e74206f776e6560008201527f7200000000000000000000000000000000000000000000000000000000000000602082015250565b7f4552433732313a207472616e736665722063616c6c6572206973206e6f74206f60008201527f776e6572206e6f7220617070726f766564000000000000000000000000000000602082015250565b7f455243373231456e756d657261626c653a20676c6f62616c20696e646578206f60008201527f7574206f6620626f756e64730000000000000000000000000000000000000000602082015250565b61343d81612cde565b811461344857600080fd5b50565b61345481612cf0565b811461345f57600080fd5b50565b61346b81612cfc565b811461347657600080fd5b50565b61348281612d48565b811461348d57600080fd5b5056fea264697066735822122089dcdf6223c4994538b243e9c702dc3f6ab2cd792ccd02aca59e0b30ece8985264736f6c63430008040033",
    "linkReferences": {},
    "deployedLinkReferences": {}
}