{
  "contractName": "Oracle",
  "abi": [
    {
      "inputs": [],
      "stateMutability": "nonpayable",
      "type": "constructor"
    },
    {
      "anonymous": false,
      "inputs": [],
      "name": "__calbackNewData",
      "type": "event"
    },
    {
      "inputs": [],
      "name": "numberAsteroids",
      "outputs": [
        {
          "internalType": "uint256",
          "name": "",
          "type": "uint256"
        }
      ],
      "stateMutability": "view",
      "type": "function",
      "constant": true
    },
    {
      "inputs": [],
      "name": "update",
      "outputs": [],
      "stateMutability": "nonpayable",
      "type": "function"
    },
    {
      "inputs": [
        {
          "internalType": "uint256",
          "name": "_num",
          "type": "uint256"
        }
      ],
      "name": "setNumberAsteroids",
      "outputs": [],
      "stateMutability": "nonpayable",
      "type": "function"
    }
  ],
  "bytecode": "0x608060405234801561001057600080fd5b50336000806101000a81548173ffffffffffffffffffffffffffffffffffffffff021916908373ffffffffffffffffffffffffffffffffffffffff160217905550610329806100606000396000f3fe608060405234801561001057600080fd5b50600436106100415760003560e01c8063402bc6bb14610046578063829400cb14610062578063a2e6204514610080575b600080fd5b610060600480360381019061005b919061021f565b61008a565b005b61006a610122565b604051610077919061025b565b60405180910390f35b610088610128565b005b60008054906101000a900473ffffffffffffffffffffffffffffffffffffffff1673ffffffffffffffffffffffffffffffffffffffff163373ffffffffffffffffffffffffffffffffffffffff1614610118576040517f08c379a000000000000000000000000000000000000000000000000000000000815260040161010f906102d3565b60405180910390fd5b8060018190555050565b60015481565b60008054906101000a900473ffffffffffffffffffffffffffffffffffffffff1673ffffffffffffffffffffffffffffffffffffffff163373ffffffffffffffffffffffffffffffffffffffff16146101b6576040517f08c379a00000000000000000000000000000000000000000000000000000000081526004016101ad906102d3565b60405180910390fd5b7f487836118ce6cfa1f22cdfe1ec056d90c2ba0135d9a1cd3cc0599d8b1cc650b760405160405180910390a1565b600080fd5b6000819050919050565b6101fc816101e9565b811461020757600080fd5b50565b600081359050610219816101f3565b92915050565b600060208284031215610235576102346101e4565b5b60006102438482850161020a565b91505092915050565b610255816101e9565b82525050565b6000602082019050610270600083018461024c565b92915050565b600082825260208201905092915050565b7f4f6e6c79204f776e657200000000000000000000000000000000000000000000600082015250565b60006102bd600a83610276565b91506102c882610287565b602082019050919050565b600060208201905081810360008301526102ec816102b0565b905091905056fea2646970667358221220001c687fc39051aa0b2d5403c5b30a97dbca51117b6c6d2a8a8434af5de2a5d164736f6c63430008090033",
  "immutableReferences": {},
  "source": "\n// https://api.nasa.gov/neo/rest/v1/feed?start_date=START_DATE&end_date=END_DATE&api_key=API_KEY \n\n// SPDX-License-Identifier: GPL-3.0\n\n\npragma solidity >=0.7.0 <0.9.0;\n\ncontract Oracle {\n\n    //Direccion \n    address owner;\n\n    // Numero de asteroids\n    uint public  numberAsteroids;\n\n    //Evento que recibe datos del oraculo\n    event __calbackNewData();\n\n     //modifier only owner\n     modifier onlyOnwer() {\n      require(msg.sender == owner , \"Only Owner\");\n      _;\n     }\n    \n    // Constructor\n    constructor () {\n        owner = msg.sender;\n    }\n\n    // Recibe datos del oraculo\n    function update() public onlyOnwer {\n        emit __calbackNewData();\n    }\n\n    // Funcion de configuracion manual del numero de asteroides \n    function setNumberAsteroids(uint _num) public onlyOnwer {\n        numberAsteroids = _num;\n    }\n\n\n\n\n}",
  "sourcePath": "/home/manuonda/projects/blockchain/truffle/project-oraculo/contracts/Oracle.sol",
  "compiler": {
    "name": "solc",
    "version": "0.8.9+commit.e5eed63a.Emscripten.clang"
  },
  "schemaVersion": "3.4.3",
  "updatedAt": "2022-01-17T23:52:02.464Z",
  "networkType": "ethereum",
  "devdoc": {
    "kind": "dev",
    "methods": {},
    "version": 1
  },
  "userdoc": {
    "kind": "user",
    "methods": {},
    "version": 1
  }
}